{
  "contractName": "BondingCurve",
  "abi": [
    {
      "inputs": [],
      "name": "version",
      "outputs": [
        {
          "internalType": "string",
          "name": "",
          "type": "string"
        }
      ],
      "stateMutability": "view",
      "type": "function"
    },
    {
      "inputs": [
        {
          "internalType": "uint256",
          "name": "_supply",
          "type": "uint256"
        },
        {
          "internalType": "uint256",
          "name": "_reserveBalance",
          "type": "uint256"
        },
        {
          "internalType": "uint32",
          "name": "_reserveRatio",
          "type": "uint32"
        },
        {
          "internalType": "uint256",
          "name": "_depositAmount",
          "type": "uint256"
        }
      ],
      "name": "calculatePurchaseReturn",
      "outputs": [
        {
          "internalType": "uint256",
          "name": "",
          "type": "uint256"
        }
      ],
      "stateMutability": "view",
      "type": "function"
    },
    {
      "inputs": [
        {
          "internalType": "uint256",
          "name": "_supply",
          "type": "uint256"
        },
        {
          "internalType": "uint256",
          "name": "_reserveBalance",
          "type": "uint256"
        },
        {
          "internalType": "uint32",
          "name": "_reserveRatio",
          "type": "uint32"
        },
        {
          "internalType": "uint256",
          "name": "_sellAmount",
          "type": "uint256"
        }
      ],
      "name": "calculateSaleReturn",
      "outputs": [
        {
          "internalType": "uint256",
          "name": "",
          "type": "uint256"
        }
      ],
      "stateMutability": "view",
      "type": "function"
    }
  ],
  "bytecode": "0x60c06040526003608081905262302e3360e81b60a090815262000026916000919062000764565b503480156200003457600080fd5b506001641c35fedd1560601b036021556001646c3390ecc9605e1b036022556001640cf801476160611b0360235560016431bdb23e1d605f1b0360245560016502fb1d8fe083605b1b0360255560016505b771955b37605a1b036026556001650af67a93bb5160591b0360275560016515060c256cb360581b036028556001651428a2f98d7360581b036029556001654d515663970960561b03602a55600165944620b0e70f60551b03602b55600166011c592761c66760541b03602c5560016602214d10d014eb60531b03602d55600166020ade36b7dbef60531b03602e5560016603eab73b3bbfe360521b03602f556001660782ee3593f6d760511b036030556001661ccf4b44bb4821604f1b0360315560016606e7f88ad8a77760511b0360325560016669f3d1c921891d604d1b03603355600166cb2ff529eb71e5604c1b03603455600166c2d415c3db974b604c1b0360355560016702eb40f9f620fda7604a1b0360365560016705990681d961a1eb60491b03603755600167055e12902701414760491b0360385560016714962dee9dc9764160471b0360395560016704ef57b9b560fab560491b03603a5560016712ed7b32a58f552b60471b03603b556001679131271922eaa60760441b03603c556001678b380f3558668c4760441b03603d556001680215f77c045fbe885760421b03603e556001600160831b03603f556001670f577eded5773a1160471b036040556001680eb5ec597592befbf5603f1b036041556001681c35fedd14b861eb05603e1b036042556001683619c87664579bc94b603d1b0360435560016867c00a3b07ffc01fd7603c1b03604455600168c6f6c8f8739773a7a5603b1b03604555600168bec763f8209b7a72b1603b1b0360465560016902dbb8caad9b7097b91b60391b03604755600169057b3d49dda84556d6f760381b03604855600169054183095b2c8ececf3160381b036049556001690a14517cc6b9457111ef60371b03604a5560016913545598e5c23276ccf160361b03604b556001692511882c39c3adea96ff60351b03604c55600169471649d87199aa99075760341b03604d557004429a21a029d4c1457cfbffffffffffff604e55700415bc6d6fb7dd71af2cb3ffffffffffff604f557003eab73b3bbfe282243ce1ffffffffffff6050557003c1771ac9fb6b4c18e229ffffffffffff605155700399e96897690418f785257fffffffffff605255700373fc456c53bb779bf0ea9fffffffffff60535570034f9e8e490c48e67e6ab8bfffffffffff60545570032cbfd4a7adc790560b3337ffffffffff60555570030b50570f6e5d2acca94613ffffffffff6056557002eb40f9f620fda6b56c2861ffffffffff6057557002cc8340ecb0d0f520a6af58ffffffffff6058557002af09481380a0a35cf1ba02ffffffffff605955700292c5bdd3b92ec810287b1b3fffffffff605a55700277abdcdab07d5a77ac6d6b9fffffffff605b5570025daf6654b1eaa55fd64df5efffffffff605c55700244c49c648baa98192dce88b7ffffffff605d5570022ce03cd5619a311b2471268bffffffff605e55700215f77c045fbe885654a44a0fffffffff605f556001600160811b036060557001eaefdbdaaee7421fc4d3ede5ffffffff6061557001d6bd8b2eb257df7e8ca57b09bfffffff6062557001c35fedd14b861eb0443f7f133fffffff6063557001b0ce43b322bcde4a56e8ada5afffffff60645570019f0028ec1fff007f5a195a39dfffffff60655570018ded91f0e72ee74f49b15ba527ffffff60665570017d8ec7f04136f4e5615fd41a63ffffff60675570016ddc6556cdb84bdc8d12d22e6fffffff60685570015ecf52776a1155b5bd8395814f7fffff60695570015060c256cb23b3b3cc3754cf40ffffff606a557001428a2f98d728ae223ddab715be3fffff606b5570013545598e5c23276ccf0ede68034fffff606c557001288c4161ce1d6f54b7f61081194fffff606d5570011c592761c666aa641d5a01a40f17ffff606e55700110a688680a7530515f3e6e6cfdcdffff606f557001056f1b5bedf75c6bcb2ce8aed428ffff6070556ffaadceceeff8a0890f3875f008277fff6071556ff05dc6b27edad306388a600f6ba0bfff6072556fe67a5a25da41063de1495d5b18cdbfff6073556fdcff115b14eedde6fc3aa5353f2e4fff6074556fd3e7a3924312399f9aae2e0f868f8fff6075556fcb2ff529eb71e41582cccd5a1ee26fff6076556fc2d415c3db974ab32a51840c0b67edff6077556fbad03e7d883f69ad5b0a186184e06bff6078556fb320d03b2c343d4829abd6075f0cc5ff6079556fabc25204e02828d73c6e80bcdb1a95bf607a556fa4b16f74ee4bb2040a1ec6c15fbbf2df607b556f9deaf736ac1f569deb1b5ae3f36c130f607c556f976bd9952c7aa957f5937d790ef65037607d556f9131271922eaa6064b73a22d0bd4f2bf607e556f8b380f3558668c46c91c49a2f8e967b9607f556f857ddf0117efa215952912839f6473e660805562000800565b828054600181600116156101000203166002900490600052602060002090601f016020900481019282601f10620007a757805160ff1916838001178555620007d7565b82800160010185558215620007d7579182015b82811115620007d7578251825591602001919060010190620007ba565b50620007e5929150620007e9565b5090565b5b80821115620007e55760008155600101620007ea565b6113f780620008106000396000f3fe608060405234801561001057600080fd5b50600436106100415760003560e01c806329a00e7c1461004657806349f9b0f71461008d57806354fd4d50146100c2575b600080fd5b61007b6004803603608081101561005c57600080fd5b5080359060208101359063ffffffff604082013516906060013561013f565b60408051918252519081900360200190f35b61007b600480360360808110156100a357600080fd5b5080359060208101359063ffffffff6040820135169060600135610244565b6100ca61035b565b6040805160208082528351818301528351919283929083019185019080838360005b838110156101045781810151838201526020016100ec565b50505050905090810190601f1680156101315780820380516001836020036101000a031916815260200191505b509250505060405180910390f35b600080851180156101505750600084115b8015610162575060008363ffffffff16115b80156101775750620f424063ffffffff841611155b6101ba576040805162461bcd60e51b815260206004820152600f60248201526e24b73b30b634b21034b7383aba399760891b604482015290519081900360640190fd5b816101c75750600061023c565b63ffffffff8316620f424014156101f3576101ec846101e687856103e9565b9061044b565b905061023c565b6000808061020185886104b2565b9050610212818888620f424061050c565b9093509150600060ff83166102278a866103e9565b901c9050610235818a61067b565b9450505050505b949350505050565b600080851180156102555750600084115b8015610267575060008363ffffffff16115b801561027c5750620f424063ffffffff841611155b80156102885750848211155b6102cb576040805162461bcd60e51b815260206004820152600f60248201526e24b73b30b634b21034b7383aba399760891b604482015290519081900360640190fd5b816102d85750600061023c565b848214156102e757508261023c565b63ffffffff8316620f42401415610306576101ec856101e686856103e9565b60008080610314888661067b565b90506103258882620f42408961050c565b9093509150600061033688856103e9565b905060ff831688901b61034d856101e6848461067b565b9a9950505050505050505050565b6000805460408051602060026001851615610100026000190190941693909304601f810184900484028201840190925281815292918301828280156103e15780601f106103b6576101008083540402835291602001916103e1565b820191906000526020600020905b8154815290600101906020018083116103c457829003601f168201915b505050505081565b6000826103f857506000610445565b8282028284828161040557fe5b04146104425760405162461bcd60e51b81526004018080602001828103825260218152602001806113a16021913960400191505060405180910390fd5b90505b92915050565b60008082116104a1576040805162461bcd60e51b815260206004820152601a60248201527f536166654d6174683a206469766973696f6e206279207a65726f000000000000604482015290519081900360640190fd5b8183816104aa57fe5b049392505050565b600082820183811015610442576040805162461bcd60e51b815260206004820152601b60248201527f536166654d6174683a206164646974696f6e206f766572666c6f770000000000604482015290519081900360640190fd5b600080600160811b8610610567576040805162461bcd60e51b815260206004820152601860248201527f626173654e2065786365656473206d61782076616c75652e0000000000000000604482015290519081900360640190fd5b848610156105bc576040805162461bcd60e51b815260206004820152601c60248201527f4261736573203c203120617265206e6f7420737570706f727465642e00000000604482015290519081900360640190fd5b600080866001607f1b8902816105ce57fe5b04905070015bf0a8b1457695355fb8ac404e7a79e38110156105fa576105f3816106d8565b9150610606565b61060381610abc565b91505b60008563ffffffff168763ffffffff1684028161061f57fe5b049050600160831b8110156106455761063781610b6c565b607f94509450505050610672565b600061065082610f10565b905061066581607f0360ff1683901c82610fa2565b9550935061067292505050565b94509492505050565b6000828211156106d2576040805162461bcd60e51b815260206004820152601e60248201527f536166654d6174683a207375627472616374696f6e206f766572666c6f770000604482015290519081900360640190fd5b50900390565b6000808080806fd3094c70f034de4b96ff7d5b6f99fcd88610610721576001607e1b840193506fd3094c70f034de4b96ff7d5b6f99fcd86001607f1b87028161071d57fe5b0495505b6fa45af1e1f40c333b3de1db4dd55f29a78610610764576001607d1b840193506fa45af1e1f40c333b3de1db4dd55f29a76001607f1b87028161076057fe5b0495505b6f910b022db7ae67ce76b441c27035c6a186106107a7576001607c1b840193506f910b022db7ae67ce76b441c27035c6a16001607f1b8702816107a357fe5b0495505b6f88415abbe9a76bead8d00cf112e4d4a886106107ea576001607b1b840193506f88415abbe9a76bead8d00cf112e4d4a86001607f1b8702816107e657fe5b0495505b6f84102b00893f64c705e841d5d4064bd3861061082d576001607a1b840193506f84102b00893f64c705e841d5d4064bd36001607f1b87028161082957fe5b0495505b6f8204055aaef1c8bd5c3259f4822735a2861061087057600160791b840193506f8204055aaef1c8bd5c3259f4822735a26001607f1b87028161086c57fe5b0495505b6f810100ab00222d861931c15e39b44e9986106108b357600160781b840193506f810100ab00222d861931c15e39b44e996001607f1b8702816108af57fe5b0495505b6f808040155aabbbe9451521693554f73386106108f657600160771b840193506f808040155aabbbe9451521693554f7336001607f1b8702816108f257fe5b0495505b6f7fffffffffffffffffffffffffffffff19860192508291506001607f1b828002049050600160801b838103830204840193506001607f1b8183028161093857fe5b049150600160811b836faaaaaaaaaaaaaaaaaaaaaaaaaaaaaaaa0383028161095c57fe5b04840193506001607f1b8183028161097057fe5b049150600360801b836f999999999999999999999999999999990383028161099457fe5b04840193506001607f1b818302816109a857fe5b049150600160821b836f92492492492492492492492492492492038302816109cc57fe5b04840193506001607f1b818302816109e057fe5b049150600560801b836f8e38e38e38e38e38e38e38e38e38e38e03830281610a0457fe5b04840193506001607f1b81830281610a1857fe5b049150600360811b836f8ba2e8ba2e8ba2e8ba2e8ba2e8ba2e8b03830281610a3c57fe5b04840193506001607f1b81830281610a5057fe5b049150600760801b836f89d89d89d89d89d89d89d89d89d89d8903830281610a7457fe5b04840193506001607f1b81830281610a8857fe5b049150600160831b836f8888888888888888888888888888888803830281610aac57fe5b049390930193505050505b919050565b60008082600160801b8110610aef576000610adc6001607f1b830461133c565b60ff166001607f1b810293509190911c90505b6001607f1b811115610b3f57607f5b60ff811615610b3d576001607f1b828002049150600160801b8210610b3457600182901c91506001810360ff166001901b830192505b60001901610afe565b505b6f05b9de1d10bf4103d647b0955897ba806f03f80fe03f80fe03f80fe03f80fe03f8830204949350505050565b6000670168244fdac780006001607f1b6f0fffffffffffffffffffffffffffffff84168080028290048082028390048083028490049485026710e1b3be415a00009092026705a0913f6b1e000091909102010192909181830204905080664807432bc1800002830192506001607f1b82820281610be557fe5b04905080660c0135dca0400002830192506001607f1b82820281610c0557fe5b049050806601b707b1cdc00002830192506001607f1b82820281610c2557fe5b049050806536e0f639b80002830192506001607f1b82820281610c4457fe5b04905080650618fee9f80002830192506001607f1b82820281610c6357fe5b04905080649c197dcc0002830192506001607f1b82820281610c8157fe5b04905080640e30dce40002830192506001607f1b82820281610c9f57fe5b0490508064012ebd130002830192506001607f1b82820281610cbd57fe5b049050806317499f0002830192506001607f1b82820281610cda57fe5b049050806301a9d48002830192506001607f1b82820281610cf757fe5b04905080621c638002830192506001607f1b82820281610d1357fe5b049050806201c63802830192506001607f1b82820281610d2f57fe5b04905080611ab802830192506001607f1b82820281610d4a57fe5b0490508061017c02830192506001607f1b82820281610d6557fe5b04905080601402830192506001607f1b82820281610d7f57fe5b6721c3677c82b400009190049384010482016001607f1b019290506001607c1b851615610dd05770018ebef9eac820ae8682b9793ac6d1e7767001c3d6a24ed82218787d624d3e5eba95f984020492505b6001607d1b851615610e06577001368b2fc6f9609fe7aceb46aa619baed470018ebef9eac820ae8682b9793ac6d1e77884020492505b6001607e1b851615610e3b576fbc5ab1b16779be3575bd8f0520a9f21f7001368b2fc6f9609fe7aceb46aa619baed584020492505b6001607f1b851615610e6f576f454aaa8efe072e7f6ddbab84b40a55c96fbc5ab1b16779be3575bd8f0520a9f21e84020492505b600160801b851615610ea3576f0960aadc109e7a3bf4578099615711ea6f454aaa8efe072e7f6ddbab84b40a55c584020492505b600160811b851615610ed6576e2bf84208204f5977f9a8cf01fdce3d6f0960aadc109e7a3bf4578099615711d784020492505b600160821b851615610f07576d03c6ab775dd0b95b4cbee7e65d116e2bf84208204f5977f9a8cf01fdc30784020492505b50909392505050565b60006020607f5b8060ff168260010160ff161015610f5f576000600260ff848401160490508460018260ff1660808110610f4657fe5b015410610f5557809250610f59565b8091505b50610f17565b8360018260ff1660808110610f7057fe5b015410610f80579150610ab79050565b8360018360ff1660808110610f9157fe5b015410610fa057509050610ab7565bfe5b60008083905060008360ff16858302901c9150816f03442c4e6074a82f1797f72ac000000002810190508360ff16858302901c9150816f0116b96f757c380fb287fd0e4000000002810190508360ff16858302901c9150816e45ae5bdd5f0e03eca1ff439000000002810190508360ff16858302901c9150816e0defabf91302cd95b9ffda5000000002810190508360ff16858302901c9150816e02529ca9832b22439efff9b800000002810190508360ff16858302901c9150816d54f1cf12bd04e516b6da8800000002810190508360ff16858302901c9150816d0a9e39e257a09ca2d6db5100000002810190508360ff16858302901c9150816d012e066e7b839fa050c30900000002810190508360ff16858302901c9150816c1e33d7d926c329a1ad1a80000002810190508360ff16858302901c9150816c02bee513bdb4a6b19b5f80000002810190508360ff16858302901c9150816b3a9316fa79b88eccf2a0000002810190508360ff16858302901c9150816b048177ebe1fa81237520000002810190508360ff16858302901c9150816a5263fe90242dcbacf0000002810190508360ff16858302901c9150816a057e22099c030d9410000002810190508360ff16858302901c9150816957e22099c030d941000002810190508360ff16858302901c91508169052b6b5456997631000002810190508360ff16858302901c915081684985f67696bf74800002810190508360ff16858302901c9150816803dea12ea99e49800002810190508360ff16858302901c9150816731880f2214b6e00002810190508360ff16858302901c91508167025bcff56eb3600002810190508360ff16858302901c915081661b722e10ab100002810190508360ff16858302901c9150816601317c7007700002810190508360ff16858302901c915081650cba84aafa0002810190508360ff16858302901c9150816482573a0a0002810190508360ff16858302901c9150816405035ad90002810190508360ff16858302901c915081632f881b0002810190508360ff16858302901c9150816301b2934002810190508360ff16858302901c915081620efc4002810190508360ff16858302901c915081617fe002810190508360ff16858302901c91508161042002810190508360ff16858302901c915081602102810190508360ff16858302901c915081600102810190508360ff166001901b856f0688589cc0e9505e2f2fee5580000000838161133057fe5b04010195945050505050565b60008082610100811015611365575b6001811115611360576001918201911c61134b565b611399565b60805b60ff81161561139757600160ff82161b821061138c579182179160ff81169190911c905b60011c607f16611368565b505b509291505056fe536166654d6174683a206d756c7469706c69636174696f6e206f766572666c6f77a2646970667358221220b5b2581ded58a1543cd20507a3de7f37e12ca580141957a7a1fa75badb9b95b964736f6c634300060c0033",
  "immutableReferences": {},
  "source": "// SPDX-License-Identifier: MIT\npragma solidity >=0.6.0 <0.8.0;\nimport \"@openzeppelin/contracts/math/SafeMath.sol\";\nimport './Power.sol';\n\n\n/**\n* @title BondingCurve on Bancor formula by Bancor\n*\n* Licensed to the Apache Software Foundation (ASF) under one or more contributor license agreements;\n* and to You under the Apache License, Version 2.0. \"\n*/\ncontract BondingCurve is Power {\n    using SafeMath for uint256;\n    uint32 private constant MAX_RESERVE_RATIO = 1000000;\n\n    /**\n    * @dev given a continuous token supply, reserve token balance, reserve ratio, and a deposit amount (in the reserve token),\n    * calculates the return for a given conversion (in the continuous token)\n    *\n    * Formula:\n    * Return = _supply * ((1 + _depositAmount / _reserveBalance) ^ (_reserveRatio / MAX_RESERVE_RATIO) - 1)\n    *\n    * @param _supply              continuous token total supply\n    * @param _reserveBalance    total reserve token balance\n    * @param _reserveRatio     reserve ratio, represented in ppm, 1-1000000\n    * @param _depositAmount       deposit amount, in reserve token\n    *\n    *  @return purchase return amount\n    */\n    function calculatePurchaseReturn(\n        uint256 _supply,\n        uint256 _reserveBalance,\n        uint32 _reserveRatio,\n        uint256 _depositAmount) public view returns (uint256)\n    {\n        // validate input\n        require(_supply > 0 && _reserveBalance > 0 && _reserveRatio > 0 && _reserveRatio <= MAX_RESERVE_RATIO, \"Invalid inputs.\");\n        // special case for 0 deposit amount\n        if (_depositAmount == 0) {\n            return 0;\n        }\n        // special case if the ratio = 100%\n        if (_reserveRatio == MAX_RESERVE_RATIO) {\n            return _supply.mul(_depositAmount).div(_reserveBalance);\n        }\n        uint256 result;\n        uint8 precision;\n        uint256 baseN = _depositAmount.add(_reserveBalance);\n        (result, precision) = power(\n            baseN, _reserveBalance, _reserveRatio, MAX_RESERVE_RATIO\n        );\n        uint256 newTokenSupply = _supply.mul(result) >> precision;\n        return newTokenSupply.sub(_supply);\n    }\n\n    /**\n    * @dev given a continuous token supply, reserve token balance, reserve ratio and a sell amount (in the continuous token),\n    * calculates the return for a given conversion (in the reserve token)\n    *\n    * Formula:\n    * Return = _reserveBalance * (1 - (1 - _sellAmount / _supply) ^ (1 / (_reserveRatio / MAX_RESERVE_RATIO)))\n    *\n    * @param _supply              continuous token total supply\n    * @param _reserveBalance    total reserve token balance\n    * @param _reserveRatio     constant reserve ratio, represented in ppm, 1-1000000\n    * @param _sellAmount          sell amount, in the continuous token itself\n    *\n    * @return sale return amount\n    */\n    function calculateSaleReturn(\n        uint256 _supply,\n        uint256 _reserveBalance,\n        uint32 _reserveRatio,\n        uint256 _sellAmount) public view returns (uint256)\n    {\n        // validate input\n        require(_supply > 0 && _reserveBalance > 0 && _reserveRatio > 0 && _reserveRatio <= MAX_RESERVE_RATIO && _sellAmount <= _supply, \"Invalid inputs.\");\n        // special case for 0 sell amount\n        if (_sellAmount == 0) {\n            return 0;\n        }\n        // special case for selling the entire supply\n        if (_sellAmount == _supply) {\n            return _reserveBalance;\n        }\n        // special case if the ratio = 100%\n        if (_reserveRatio == MAX_RESERVE_RATIO) {\n            return _reserveBalance.mul(_sellAmount).div(_supply);\n        }\n        uint256 result;\n        uint8 precision;\n        uint256 baseD = _supply.sub(_sellAmount);\n        (result, precision) = power(\n            _supply, baseD, MAX_RESERVE_RATIO, _reserveRatio\n        );\n        uint256 oldBalance = _reserveBalance.mul(result);\n        uint256 newBalance = _reserveBalance << precision;\n        return oldBalance.sub(newBalance).div(result);\n    }\n}",
  "sourcePath": "/home/adeel/Desktop/ninjaswap-core/contracts/BondingCurve/BondingCurve.sol",
  "compiler": {
    "name": "solc",
    "version": "0.6.12+commit.27d51765.Emscripten.clang"
  },
  "schemaVersion": "3.3.4",
  "updatedAt": "2021-02-26T04:52:09.927Z",
  "devdoc": {
    "kind": "dev",
    "methods": {
      "calculatePurchaseReturn(uint256,uint256,uint32,uint256)": {
        "details": "given a continuous token supply, reserve token balance, reserve ratio, and a deposit amount (in the reserve token), calculates the return for a given conversion (in the continuous token) Formula: Return = _supply * ((1 + _depositAmount / _reserveBalance) ^ (_reserveRatio / MAX_RESERVE_RATIO) - 1)",
        "params": {
          "_depositAmount": "deposit amount, in reserve token",
          "_reserveBalance": "total reserve token balance",
          "_reserveRatio": "reserve ratio, represented in ppm, 1-1000000",
          "_supply": "continuous token total supply"
        },
        "returns": {
          "_0": "purchase return amount"
        }
      },
      "calculateSaleReturn(uint256,uint256,uint32,uint256)": {
        "details": "given a continuous token supply, reserve token balance, reserve ratio and a sell amount (in the continuous token), calculates the return for a given conversion (in the reserve token) Formula: Return = _reserveBalance * (1 - (1 - _sellAmount / _supply) ^ (1 / (_reserveRatio / MAX_RESERVE_RATIO)))",
        "params": {
          "_reserveBalance": "total reserve token balance",
          "_reserveRatio": "constant reserve ratio, represented in ppm, 1-1000000",
          "_sellAmount": "sell amount, in the continuous token itself",
          "_supply": "continuous token total supply"
        },
        "returns": {
          "_0": "sale return amount"
        }
      }
    },
    "title": "BondingCurve on Bancor formula by Bancor Licensed to the Apache Software Foundation (ASF) under one or more contributor license agreements; and to You under the Apache License, Version 2.0. \"",
    "version": 1
  },
  "userdoc": {
    "kind": "user",
    "methods": {},
    "version": 1
  }
}