{
  "contractName": "MasterChef",
  "abi": [
    {
      "inputs": [
        {
          "internalType": "contract NinjaToken",
          "name": "_ninja",
          "type": "address"
        }
      ],
      "stateMutability": "nonpayable",
      "type": "constructor"
    },
    {
      "anonymous": false,
      "inputs": [
        {
          "indexed": true,
          "internalType": "address",
          "name": "user",
          "type": "address"
        },
        {
          "indexed": true,
          "internalType": "uint256",
          "name": "pid",
          "type": "uint256"
        },
        {
          "indexed": false,
          "internalType": "uint256",
          "name": "amount",
          "type": "uint256"
        }
      ],
      "name": "Deposit",
      "type": "event"
    },
    {
      "anonymous": false,
      "inputs": [
        {
          "indexed": true,
          "internalType": "address",
          "name": "user",
          "type": "address"
        },
        {
          "indexed": true,
          "internalType": "uint256",
          "name": "pid",
          "type": "uint256"
        },
        {
          "indexed": false,
          "internalType": "uint256",
          "name": "amount",
          "type": "uint256"
        }
      ],
      "name": "EmergencyWithdraw",
      "type": "event"
    },
    {
      "anonymous": false,
      "inputs": [
        {
          "indexed": true,
          "internalType": "address",
          "name": "previousOwner",
          "type": "address"
        },
        {
          "indexed": true,
          "internalType": "address",
          "name": "newOwner",
          "type": "address"
        }
      ],
      "name": "OwnershipTransferred",
      "type": "event"
    },
    {
      "anonymous": false,
      "inputs": [
        {
          "indexed": false,
          "internalType": "uint256",
          "name": "reward",
          "type": "uint256"
        }
      ],
      "name": "RewardAdded",
      "type": "event"
    },
    {
      "anonymous": false,
      "inputs": [
        {
          "indexed": true,
          "internalType": "address",
          "name": "user",
          "type": "address"
        },
        {
          "indexed": false,
          "internalType": "uint256",
          "name": "reward",
          "type": "uint256"
        }
      ],
      "name": "RewardPaid",
      "type": "event"
    },
    {
      "anonymous": false,
      "inputs": [
        {
          "indexed": true,
          "internalType": "address",
          "name": "user",
          "type": "address"
        },
        {
          "indexed": true,
          "internalType": "uint256",
          "name": "pid",
          "type": "uint256"
        },
        {
          "indexed": false,
          "internalType": "uint256",
          "name": "amount",
          "type": "uint256"
        }
      ],
      "name": "Withdraw",
      "type": "event"
    },
    {
      "inputs": [],
      "name": "Reward",
      "outputs": [
        {
          "internalType": "uint256",
          "name": "",
          "type": "uint256"
        }
      ],
      "stateMutability": "view",
      "type": "function"
    },
    {
      "inputs": [],
      "name": "TotalSupply",
      "outputs": [
        {
          "internalType": "uint256",
          "name": "",
          "type": "uint256"
        }
      ],
      "stateMutability": "view",
      "type": "function"
    },
    {
      "inputs": [],
      "name": "ninja",
      "outputs": [
        {
          "internalType": "contract NinjaToken",
          "name": "",
          "type": "address"
        }
      ],
      "stateMutability": "view",
      "type": "function"
    },
    {
      "inputs": [],
      "name": "owner",
      "outputs": [
        {
          "internalType": "address",
          "name": "",
          "type": "address"
        }
      ],
      "stateMutability": "view",
      "type": "function"
    },
    {
      "inputs": [],
      "name": "period1",
      "outputs": [
        {
          "internalType": "uint256",
          "name": "",
          "type": "uint256"
        }
      ],
      "stateMutability": "view",
      "type": "function"
    },
    {
      "inputs": [],
      "name": "period2",
      "outputs": [
        {
          "internalType": "uint256",
          "name": "",
          "type": "uint256"
        }
      ],
      "stateMutability": "view",
      "type": "function"
    },
    {
      "inputs": [],
      "name": "period3",
      "outputs": [
        {
          "internalType": "uint256",
          "name": "",
          "type": "uint256"
        }
      ],
      "stateMutability": "view",
      "type": "function"
    },
    {
      "inputs": [],
      "name": "period4",
      "outputs": [
        {
          "internalType": "uint256",
          "name": "",
          "type": "uint256"
        }
      ],
      "stateMutability": "view",
      "type": "function"
    },
    {
      "inputs": [],
      "name": "periodFinish",
      "outputs": [
        {
          "internalType": "uint256",
          "name": "",
          "type": "uint256"
        }
      ],
      "stateMutability": "view",
      "type": "function"
    },
    {
      "inputs": [
        {
          "internalType": "uint256",
          "name": "",
          "type": "uint256"
        }
      ],
      "name": "poolInfo",
      "outputs": [
        {
          "internalType": "contract IERC20",
          "name": "lpToken",
          "type": "address"
        },
        {
          "internalType": "uint256",
          "name": "allocPoint",
          "type": "uint256"
        },
        {
          "internalType": "uint256",
          "name": "lastUpdateTime",
          "type": "uint256"
        },
        {
          "internalType": "uint256",
          "name": "rewardPerTokenStored",
          "type": "uint256"
        }
      ],
      "stateMutability": "view",
      "type": "function"
    },
    {
      "inputs": [],
      "name": "renounceOwnership",
      "outputs": [],
      "stateMutability": "nonpayable",
      "type": "function"
    },
    {
      "inputs": [],
      "name": "rewardRate",
      "outputs": [
        {
          "internalType": "uint256",
          "name": "",
          "type": "uint256"
        }
      ],
      "stateMutability": "view",
      "type": "function"
    },
    {
      "inputs": [],
      "name": "totalAllocPoint",
      "outputs": [
        {
          "internalType": "uint256",
          "name": "",
          "type": "uint256"
        }
      ],
      "stateMutability": "view",
      "type": "function"
    },
    {
      "inputs": [
        {
          "internalType": "address",
          "name": "newOwner",
          "type": "address"
        }
      ],
      "name": "transferOwnership",
      "outputs": [],
      "stateMutability": "nonpayable",
      "type": "function"
    },
    {
      "inputs": [
        {
          "internalType": "uint256",
          "name": "",
          "type": "uint256"
        },
        {
          "internalType": "address",
          "name": "",
          "type": "address"
        }
      ],
      "name": "userInfo",
      "outputs": [
        {
          "internalType": "uint256",
          "name": "amount",
          "type": "uint256"
        },
        {
          "internalType": "uint256",
          "name": "rewardPerTokenPaid",
          "type": "uint256"
        },
        {
          "internalType": "uint256",
          "name": "rewards",
          "type": "uint256"
        }
      ],
      "stateMutability": "view",
      "type": "function"
    },
    {
      "inputs": [],
      "name": "lastTimeRewardApplicable",
      "outputs": [
        {
          "internalType": "uint256",
          "name": "",
          "type": "uint256"
        }
      ],
      "stateMutability": "view",
      "type": "function"
    },
    {
      "inputs": [
        {
          "internalType": "uint256",
          "name": "_pid",
          "type": "uint256"
        }
      ],
      "name": "rewardPerToken",
      "outputs": [
        {
          "internalType": "uint256",
          "name": "",
          "type": "uint256"
        }
      ],
      "stateMutability": "view",
      "type": "function"
    },
    {
      "inputs": [
        {
          "internalType": "uint256",
          "name": "_pid",
          "type": "uint256"
        },
        {
          "internalType": "address",
          "name": "_user",
          "type": "address"
        }
      ],
      "name": "earned",
      "outputs": [
        {
          "internalType": "uint256",
          "name": "",
          "type": "uint256"
        }
      ],
      "stateMutability": "view",
      "type": "function"
    },
    {
      "inputs": [
        {
          "internalType": "uint256",
          "name": "_allocPoint",
          "type": "uint256"
        },
        {
          "internalType": "contract IERC20",
          "name": "_lpToken",
          "type": "address"
        }
      ],
      "name": "add",
      "outputs": [],
      "stateMutability": "nonpayable",
      "type": "function"
    },
    {
      "inputs": [],
      "name": "poolLength",
      "outputs": [
        {
          "internalType": "uint256",
          "name": "",
          "type": "uint256"
        }
      ],
      "stateMutability": "view",
      "type": "function"
    },
    {
      "inputs": [
        {
          "internalType": "uint256",
          "name": "_pid",
          "type": "uint256"
        },
        {
          "internalType": "uint256",
          "name": "_allocPoint",
          "type": "uint256"
        }
      ],
      "name": "set",
      "outputs": [],
      "stateMutability": "nonpayable",
      "type": "function"
    },
    {
      "inputs": [
        {
          "internalType": "uint256",
          "name": "_pid",
          "type": "uint256"
        },
        {
          "internalType": "address",
          "name": "_user",
          "type": "address"
        }
      ],
      "name": "pendingNINJA",
      "outputs": [
        {
          "internalType": "uint256",
          "name": "",
          "type": "uint256"
        }
      ],
      "stateMutability": "view",
      "type": "function"
    },
    {
      "inputs": [
        {
          "internalType": "uint256",
          "name": "_pid",
          "type": "uint256"
        },
        {
          "internalType": "uint256",
          "name": "_amount",
          "type": "uint256"
        }
      ],
      "name": "deposit",
      "outputs": [],
      "stateMutability": "nonpayable",
      "type": "function"
    },
    {
      "inputs": [
        {
          "internalType": "uint256",
          "name": "_pid",
          "type": "uint256"
        },
        {
          "internalType": "uint256",
          "name": "_amount",
          "type": "uint256"
        }
      ],
      "name": "withdraw",
      "outputs": [],
      "stateMutability": "nonpayable",
      "type": "function"
    },
    {
      "inputs": [
        {
          "internalType": "uint256",
          "name": "_pid",
          "type": "uint256"
        }
      ],
      "name": "withdrawReward",
      "outputs": [],
      "stateMutability": "nonpayable",
      "type": "function"
    },
    {
      "inputs": [
        {
          "internalType": "uint256",
          "name": "_pid",
          "type": "uint256"
        }
      ],
      "name": "emergencyWithdraw",
      "outputs": [],
      "stateMutability": "nonpayable",
      "type": "function"
    }
  ],
  "bytecode": "0x608060405269d3c21bcecceda1000000600155692a5a058fc295ed0000006002556000600355600060045560006005556000600655600060075560006008556000600c5534801561004f57600080fd5b506040516122f33803806122f38339818101604052602081101561007257600080fd5b5051600061007e6100ed565b600080546001600160a01b0319166001600160a01b0383169081178255604051929350917f8be0079c531659141344cd1fd0a4f28419497f9722a3daafe3b4186f6b6457e0908290a350600980546001600160a01b0319166001600160a01b03929092169190911790556100f1565b3390565b6121f3806101006000396000f3fe608060405234801561001057600080fd5b506004361061018e5760003560e01c806380faa57d116100de578063b307b70411610097578063e2e15f2e11610071578063e2e15f2e146103d2578063e39c08fc146103da578063ebe2b12b14610406578063f2fde38b1461040e5761018e565b8063b307b7041461039f578063c6023f66146103a7578063e2bbb158146103af5761018e565b806380faa57d146102fc578063853a070714610304578063874c120b1461030c5780638da5cb5b1461032957806393f1a40b1461034d578063a44b47f7146103975761018e565b8063441a3e701161014b5780635312ea8e116101255780635312ea8e146102a35780635cce4409146102c0578063715018a6146102ec5780637b0a47ee146102f45761018e565b8063441a3e701461025b578063475fcbf61461027e578063523a3f08146102865761018e565b8063030e342214610193578063081e3eda146101ad5780631526fe27146101b557806317caf6f1146102025780631ab06ee51461020a5780632b8bbbe81461022f575b600080fd5b61019b610434565b60408051918252519081900360200190f35b61019b61043c565b6101d2600480360360208110156101cb57600080fd5b5035610442565b604080516001600160a01b0390951685526020850193909352838301919091526060830152519081900360800190f35b61019b610483565b61022d6004803603604081101561022057600080fd5b5080359060200135610489565b005b61022d6004803603604081101561024557600080fd5b50803590602001356001600160a01b0316610555565b61022d6004803603604081101561027157600080fd5b5080359060200135610726565b61019b610c7a565b61022d6004803603602081101561029c57600080fd5b5035610c81565b61022d600480360360208110156102b957600080fd5b50356110db565b61019b600480360360408110156102d657600080fd5b50803590602001356001600160a01b0316611176565b61022d61118b565b61019b611237565b61019b61123d565b61019b611264565b61019b6004803603602081101561032257600080fd5b503561126c565b61033161137e565b604080516001600160a01b039092168252519081900360200190f35b6103796004803603604081101561036357600080fd5b50803590602001356001600160a01b031661138d565b60408051938452602084019290925282820152519081900360600190f35b61019b6113b9565b61019b6113bf565b6103316113c7565b61022d600480360360408110156103c557600080fd5b50803590602001356113d6565b61019b6118c9565b61019b600480360360408110156103f057600080fd5b50803590602001356001600160a01b03166118cf565b61019b61192f565b61022d6004803603602081101561042457600080fd5b50356001600160a01b0316611935565b6301e1338081565b600a5490565b600a818154811061044f57fe5b600091825260209091206004909102018054600182015460028301546003909301546001600160a01b039092169350919084565b600c5481565b610491611a37565b6001600160a01b03166104a261137e565b6001600160a01b0316146104eb576040805162461bcd60e51b81526020600482018190526024820152600080516020612149833981519152604482015290519081900360640190fd5b61052881610522600a85815481106104ff57fe5b906000526020600020906004020160010154600c54611a3b90919063ffffffff16565b90611a98565b600c8190555080600a838154811061053c57fe5b9060005260206000209060040201600101819055505050565b61055d611a37565b6001600160a01b031661056e61137e565b6001600160a01b0316146105b7576040805162461bcd60e51b81526020600482018190526024820152600080516020612149833981519152604482015290519081900360640190fd5b6001600160a01b0381166000908152600d602052604090205460ff161561060f5760405162461bcd60e51b815260040180806020018281038252602b815260200180612169602b913960400191505060405180910390fd5b600c5461061c9083611a98565b600c55604080516080810182526001600160a01b039283168082526020808301958652600083850181815260608501828152600a80546001808201835591855296517fc65a7bb8d6351c1cf70c95a316cc6a92839c986682d98bc35f958f4883f9d2a8600490980297880180546001600160a01b03191691909a161790985597517fc65a7bb8d6351c1cf70c95a316cc6a92839c986682d98bc35f958f4883f9d2a9860155517fc65a7bb8d6351c1cf70c95a316cc6a92839c986682d98bc35f958f4883f9d2aa85015595517fc65a7bb8d6351c1cf70c95a316cc6a92839c986682d98bc35f958f4883f9d2ab909301929092558452600d9052909120805460ff19169091179055565b81336000600a838154811061073757fe5b60009182526020808320868452600b825260408085206001600160a01b03881686529092529220600490910290910191506107718461126c565b600383015561077e61123d565b60028301556001600160a01b038316156107ac5761079c84846118cf565b6002820155600382015460018201555b60035461086e576107c04262ed4e00611a98565b6003556002546107d39062ed4e00611af2565b600855600954600254604080516340c10f1960e01b81523060048201526024810192909252516001600160a01b03909216916340c10f199160448082019260009290919082900301818387803b15801561082c57600080fd5b505af1158015610840573d6000803e3d6000fd5b505060025460408051918252516000805160206121088339815191529350908190036020019150a160016004555b60035442101580156108805750600554155b1561094257610893426301e13380611a98565b6003556002546108a7906301e13380611af2565b600855600954600254604080516340c10f1960e01b81523060048201526024810192909252516001600160a01b03909216916340c10f199160448082019260009290919082900301818387803b15801561090057600080fd5b505af1158015610914573d6000803e3d6000fd5b505060025460408051918252516000805160206121088339815191529350908190036020019150a160016005555b60035442101580156109545750600654155b15610a1657610967426303c26700611a98565b60035560025461097b906303c26700611af2565b600855600954600254604080516340c10f1960e01b81523060048201526024810192909252516001600160a01b03909216916340c10f199160448082019260009290919082900301818387803b1580156109d457600080fd5b505af11580156109e8573d6000803e3d6000fd5b505060025460408051918252516000805160206121088339815191529350908190036020019150a160016006555b6003544210158015610a285750600754155b15610b8957610a3b42630784ce00611a98565b60035560095460408051635219298960e01b815290516000926001600160a01b0316916352192989916004808301926020929190829003018186803b158015610a8357600080fd5b505afa158015610a97573d6000803e3d6000fd5b505050506040513d6020811015610aad57600080fd5b5051600254909150600090610ae190610ac7906003611b59565b610adb8469a968163f0a57b4000000611a98565b90611a3b565b9050610af1816303c26700611af2565b600855600954604080516340c10f1960e01b81523060048201526024810184905290516001600160a01b03909216916340c10f199160448082019260009290919082900301818387803b158015610b4757600080fd5b505af1158015610b5b573d6000803e3d6000fd5b50506040805184815290516000805160206121088339815191529350908190036020019150a1505060016007555b6000600a8781548110610b9857fe5b600091825260208083208a8452600b825260408085203386529092529220805460049092029092019250871115610c0b576040805162461bcd60e51b81526020600482015260126024820152711dda5d1a191c985dce881b9bdd0819dbdbd960721b604482015290519081900360640190fd5b610c158833611bb2565b8054610c219088611a3b565b81558154610c39906001600160a01b03163389611d3e565b604080518881529051899133917ff279e6a1f5e320cca91135676d9cb6e44ca8a08c0b88342bcdb1144f6511b5689181900360200190a35050505050505050565b62ed4e0081565b80336000600a8381548110610c9257fe5b60009182526020808320868452600b825260408085206001600160a01b0388168652909252922060049091029091019150610ccc8461126c565b6003830155610cd961123d565b60028301556001600160a01b03831615610d0757610cf784846118cf565b6002820155600382015460018201555b600354610dc957610d1b4262ed4e00611a98565b600355600254610d2e9062ed4e00611af2565b600855600954600254604080516340c10f1960e01b81523060048201526024810192909252516001600160a01b03909216916340c10f199160448082019260009290919082900301818387803b158015610d8757600080fd5b505af1158015610d9b573d6000803e3d6000fd5b505060025460408051918252516000805160206121088339815191529350908190036020019150a160016004555b6003544210158015610ddb5750600554155b15610e9d57610dee426301e13380611a98565b600355600254610e02906301e13380611af2565b600855600954600254604080516340c10f1960e01b81523060048201526024810192909252516001600160a01b03909216916340c10f199160448082019260009290919082900301818387803b158015610e5b57600080fd5b505af1158015610e6f573d6000803e3d6000fd5b505060025460408051918252516000805160206121088339815191529350908190036020019150a160016005555b6003544210158015610eaf5750600654155b15610f7157610ec2426303c26700611a98565b600355600254610ed6906303c26700611af2565b600855600954600254604080516340c10f1960e01b81523060048201526024810192909252516001600160a01b03909216916340c10f199160448082019260009290919082900301818387803b158015610f2f57600080fd5b505af1158015610f43573d6000803e3d6000fd5b505060025460408051918252516000805160206121088339815191529350908190036020019150a160016006555b6003544210158015610f835750600754155b156110ca57610f9642630784ce00611a98565b60035560095460408051635219298960e01b815290516000926001600160a01b0316916352192989916004808301926020929190829003018186803b158015610fde57600080fd5b505afa158015610ff2573d6000803e3d6000fd5b505050506040513d602081101561100857600080fd5b505160025490915060009061102290610ac7906003611b59565b9050611032816303c26700611af2565b600855600954604080516340c10f1960e01b81523060048201526024810184905290516001600160a01b03909216916340c10f199160448082019260009290919082900301818387803b15801561108857600080fd5b505af115801561109c573d6000803e3d6000fd5b50506040805184815290516000805160206121088339815191529350908190036020019150a1505060016007555b6110d48533611bb2565b5050505050565b6000600a82815481106110ea57fe5b60009182526020808320858452600b8252604080852033808752935290932080546004909302909301805490945061112f926001600160a01b03919091169190611d3e565b80546040805191825251849133917fbb757047c2b5f3974fe26b7c10f732e7bce710b0952a71082702781e62ae05959181900360200190a360008082556002909101555050565b600061118283836118cf565b90505b92915050565b611193611a37565b6001600160a01b03166111a461137e565b6001600160a01b0316146111ed576040805162461bcd60e51b81526020600482018190526024820152600080516020612149833981519152604482015290519081900360640190fd5b600080546040516001600160a01b03909116907f8be0079c531659141344cd1fd0a4f28419497f9722a3daafe3b4186f6b6457e0908390a3600080546001600160a01b0319169055565b60085481565b600060035460001480611251575060035442105b61125d5760035461125f565b425b905090565b630784ce0081565b600080600a838154811061127c57fe5b600091825260208083206004928302018054604080516370a0823160e01b81523095810195909552519195506001600160a01b0316926370a08231926024808301939192829003018186803b1580156112d457600080fd5b505afa1580156112e8573d6000803e3d6000fd5b505050506040513d60208110156112fe57600080fd5b50519050806113135750600301549050611379565b61137461136982611363670de0b6b3a764000061135d600c54611363896001015461135d60085461135d8d60020154600014611353578d60020154611355565b425b610adb61123d565b90611b59565b90611af2565b600384015490611a98565b925050505b919050565b6000546001600160a01b031690565b600b60209081526000928352604080842090915290825290208054600182015460029092015490919083565b60015481565b6303c2670081565b6009546001600160a01b031681565b81336000600a83815481106113e757fe5b60009182526020808320868452600b825260408085206001600160a01b03881686529092529220600490910290910191506114218461126c565b600383015561142e61123d565b60028301556001600160a01b0383161561145c5761144c84846118cf565b6002820155600382015460018201555b60035461151e576114704262ed4e00611a98565b6003556002546114839062ed4e00611af2565b600855600954600254604080516340c10f1960e01b81523060048201526024810192909252516001600160a01b03909216916340c10f199160448082019260009290919082900301818387803b1580156114dc57600080fd5b505af11580156114f0573d6000803e3d6000fd5b505060025460408051918252516000805160206121088339815191529350908190036020019150a160016004555b60035442101580156115305750600554155b156115f257611543426301e13380611a98565b600355600254611557906301e13380611af2565b600855600954600254604080516340c10f1960e01b81523060048201526024810192909252516001600160a01b03909216916340c10f199160448082019260009290919082900301818387803b1580156115b057600080fd5b505af11580156115c4573d6000803e3d6000fd5b505060025460408051918252516000805160206121088339815191529350908190036020019150a160016005555b60035442101580156116045750600654155b156116c657611617426303c26700611a98565b60035560025461162b906303c26700611af2565b600855600954600254604080516340c10f1960e01b81523060048201526024810192909252516001600160a01b03909216916340c10f199160448082019260009290919082900301818387803b15801561168457600080fd5b505af1158015611698573d6000803e3d6000fd5b505060025460408051918252516000805160206121088339815191529350908190036020019150a160016006555b60035442101580156116d85750600754155b1561181f576116eb42630784ce00611a98565b60035560095460408051635219298960e01b815290516000926001600160a01b0316916352192989916004808301926020929190829003018186803b15801561173357600080fd5b505afa158015611747573d6000803e3d6000fd5b505050506040513d602081101561175d57600080fd5b505160025490915060009061177790610ac7906003611b59565b9050611787816303c26700611af2565b600855600954604080516340c10f1960e01b81523060048201526024810184905290516001600160a01b03909216916340c10f199160448082019260009290919082900301818387803b1580156117dd57600080fd5b505af11580156117f1573d6000803e3d6000fd5b50506040805184815290516000805160206121088339815191529350908190036020019150a1505060016007555b6000600a878154811061182e57fe5b600091825260208083208a8452600b825260408085203380875293529093206004909202909201925090611863908990611bb2565b815461187a906001600160a01b031633308a611d95565b80546118869088611a98565b8155604080518881529051899133917f90890809c654f11d6e72a28fa60149770a0d11ec6c92319d6ceb2bb0a4ea1a159181900360200190a35050505050505050565b60025481565b6000828152600b602090815260408083206001600160a01b0385168452909152812060028101546001820154611927919061052290670de0b6b3a7640000906113639061191f90610adb8b61126c565b865490611b59565b949350505050565b60035481565b61193d611a37565b6001600160a01b031661194e61137e565b6001600160a01b031614611997576040805162461bcd60e51b81526020600482018190526024820152600080516020612149833981519152604482015290519081900360640190fd5b6001600160a01b0381166119dc5760405162461bcd60e51b81526004018080602001828103825260268152602001806120bc6026913960400191505060405180910390fd5b600080546040516001600160a01b03808516939216917f8be0079c531659141344cd1fd0a4f28419497f9722a3daafe3b4186f6b6457e091a3600080546001600160a01b0319166001600160a01b0392909216919091179055565b3390565b600082821115611a92576040805162461bcd60e51b815260206004820152601e60248201527f536166654d6174683a207375627472616374696f6e206f766572666c6f770000604482015290519081900360640190fd5b50900390565b600082820183811015611182576040805162461bcd60e51b815260206004820152601b60248201527f536166654d6174683a206164646974696f6e206f766572666c6f770000000000604482015290519081900360640190fd5b6000808211611b48576040805162461bcd60e51b815260206004820152601a60248201527f536166654d6174683a206469766973696f6e206279207a65726f000000000000604482015290519081900360640190fd5b818381611b5157fe5b049392505050565b600082611b6857506000611185565b82820282848281611b7557fe5b04146111825760405162461bcd60e51b81526004018080602001828103825260218152602001806121286021913960400191505060405180910390fd5b6000828152600b602090815260408083206001600160a01b0385168452909152812090611bdf84846118cf565b90508015611d3857600060028301819055600954604080516370a0823160e01b815230600482015290516001600160a01b03909216916370a0823191602480820192602092909190829003018186803b158015611c3b57600080fd5b505afa158015611c4f573d6000803e3d6000fd5b505050506040513d6020811015611c6557600080fd5b5051905080821115611c75578091505b6009546040805163a9059cbb60e01b81526001600160a01b038781166004830152602482018690529151919092169163a9059cbb9160448083019260209291908290030181600087803b158015611ccb57600080fd5b505af1158015611cdf573d6000803e3d6000fd5b505050506040513d6020811015611cf557600080fd5b50506040805183815290516001600160a01b038616917fe2403640ba68fed3a2f88b7557551d1993f84b99bb10ff833f0cf8db0c5e0486919081900360200190a2505b50505050565b604080516001600160a01b038416602482015260448082018490528251808303909101815260649091019091526020810180516001600160e01b031663a9059cbb60e01b179052611d90908490611deb565b505050565b604080516001600160a01b0380861660248301528416604482015260648082018490528251808303909101815260849091019091526020810180516001600160e01b03166323b872dd60e01b179052611d389085905b6060611e40826040518060400160405280602081526020017f5361666545524332303a206c6f772d6c6576656c2063616c6c206661696c6564815250856001600160a01b0316611e9c9092919063ffffffff16565b805190915015611d9057808060200190516020811015611e5f57600080fd5b5051611d905760405162461bcd60e51b815260040180806020018281038252602a815260200180612194602a913960400191505060405180910390fd5b6060611eab8484600085611eb5565b90505b9392505050565b606082471015611ef65760405162461bcd60e51b81526004018080602001828103825260268152602001806120e26026913960400191505060405180910390fd5b611eff85612011565b611f50576040805162461bcd60e51b815260206004820152601d60248201527f416464726573733a2063616c6c20746f206e6f6e2d636f6e7472616374000000604482015290519081900360640190fd5b60006060866001600160a01b031685876040518082805190602001908083835b60208310611f8f5780518252601f199092019160209182019101611f70565b6001836020036101000a03801982511681845116808217855250505050505090500191505060006040518083038185875af1925050503d8060008114611ff1576040519150601f19603f3d011682016040523d82523d6000602084013e611ff6565b606091505b5091509150612006828286612017565b979650505050505050565b3b151590565b60608315612026575081611eae565b8251156120365782518084602001fd5b8160405162461bcd60e51b81526004018080602001828103825283818151815260200191508051906020019080838360005b83811015612080578181015183820152602001612068565b50505050905090810190601f1680156120ad5780820380516001836020036101000a031916815260200191505b509250505060405180910390fdfe4f776e61626c653a206e6577206f776e657220697320746865207a65726f2061646472657373416464726573733a20696e73756666696369656e742062616c616e636520666f722063616c6cde88a922e0d3b88b24e9623efeb464919c6bf9f66857a65e2bfcf2ce87a9433d536166654d6174683a206d756c7469706c69636174696f6e206f766572666c6f774f776e61626c653a2063616c6c6572206973206e6f7420746865206f776e6572646f206e6f7420616464207468652073616d65206c7020746f6b656e206d6f7265207468616e206f6e63655361666545524332303a204552433230206f7065726174696f6e20646964206e6f742073756363656564a2646970667358221220015b07e4c8522e6bf235192a966409aa5648db88d3dc1ea7d9b67ca1b2b4608464736f6c634300060c0033",
  "immutableReferences": {},
  "source": "pragma solidity 0.6.12;\n\nimport \"@openzeppelin/contracts/GSN/Context.sol\";\nimport \"@openzeppelin/contracts/token/ERC20/IERC20.sol\";\nimport \"@openzeppelin/contracts/math/SafeMath.sol\";\nimport \"@openzeppelin/contracts/utils/Address.sol\";\nimport \"@openzeppelin/contracts/token/ERC20/ERC20.sol\";\nimport \"@openzeppelin/contracts/token/ERC20/SafeERC20.sol\";\nimport \"@openzeppelin/contracts/access/Ownable.sol\";\n\nimport \"./NinjaToken.sol\";\n\ncontract MasterChef is Ownable {\n    uint256 public constant period1 = 180 days; // about 6 months\n    uint256 public constant period2 = 365 days; // 1 year\n    uint256 public constant period3 = 730 days;  // 2 years\n    uint256 public constant period4 = 1460 days; // 4 years  \n    uint256 public TotalSupply = 1000000 * 1e18;\n    uint256 public Reward = 200000 * 1e18;\n    uint256 public periodFinish = 0;\n    uint256 Period1Status=0;\n    uint256 Period2Status=0;\n    uint256 Period3Status=0;\n    uint256 Period4Status=0;\n    using SafeMath for uint256;\n    using SafeERC20 for IERC20;\n\n    uint256 public rewardRate = 0;\n\n    // Info of each user.\n    struct UserInfo {\n        uint256 amount;\n        uint256 rewardPerTokenPaid;\n        uint256 rewards;\n    }\n\n    // Info of each pool.\n    struct PoolInfo {\n        IERC20 lpToken;\n        uint256 allocPoint;\n        uint256 lastUpdateTime;\n        uint256 rewardPerTokenStored;\n    }\n\n    // The NINJA TOKEN!\n    NinjaToken public ninja;\n    // Info of each pool.\n    PoolInfo[] public poolInfo;\n    // Info of each user that stakes LP tokens.\n    mapping(uint256 => mapping(address => UserInfo)) public userInfo;\n    // Total allocation poitns. Must be the sum of all allocation points in all pools.\n    uint256 public totalAllocPoint = 0;\n    // add the same LP token only once\n    mapping(address => bool) lpExists;\n\n    event RewardAdded(uint256 reward);\n    event Deposit(address indexed user, uint256 indexed pid, uint256 amount);\n    event Withdraw(address indexed user, uint256 indexed pid, uint256 amount);\n    event RewardPaid(address indexed user, uint256 reward);\n    event EmergencyWithdraw(address indexed user, uint256 indexed pid, uint256 amount);\n\n    constructor(NinjaToken _ninja) public {\n        ninja = _ninja;\n    }\n    modifier reduceHalve() {\n        if (periodFinish == 0) {\n            periodFinish = block.timestamp.add(period1);\n            rewardRate = Reward.div(period1);\n            ninja.mint(address(this), Reward);\n            emit RewardAdded(Reward);\n            Period1Status = 1;\n         } \n         if(block.timestamp >= periodFinish && Period2Status == 0) {\n            periodFinish = block.timestamp.add(period2);\n            rewardRate = Reward.div(period2);\n            ninja.mint(address(this), Reward);\n            emit RewardAdded(Reward);\n            Period2Status = 1;\n        } \n        if(block.timestamp >= periodFinish && Period3Status == 0) {\n            periodFinish = block.timestamp.add(period3);\n            rewardRate = Reward.div(period3);\n            ninja.mint(address(this), Reward);\n            emit RewardAdded(Reward);\n            Period3Status = 1;\n        }   \n        if(block.timestamp >= periodFinish && Period4Status == 0) {\n            periodFinish = block.timestamp.add(period4);\n            // calcualte 4th reward as AMO added 0.1x in wallet \n            uint256 masterChefWallet = ninja.masterChefWallet();\n            // add 800k in wallet and minus 3 previous rewards\n            uint256 reward4th = masterChefWallet.add(800000000000000000000000).sub(Reward.mul(3));\n            rewardRate = reward4th.div(period3);\n            ninja.mint(address(this), reward4th);\n            emit RewardAdded(reward4th);\n            Period4Status = 1;\n        }      \n        _;\n    }\n\n \n\n    modifier updateReward(uint256 _pid, address _user) {\n        PoolInfo storage pool = poolInfo[_pid];\n        UserInfo storage user = userInfo[_pid][_user];\n\n        pool.rewardPerTokenStored = rewardPerToken(_pid);\n        pool.lastUpdateTime = lastTimeRewardApplicable();\n        if (_user != address(0)) {\n            user.rewards = earned(_pid, _user);\n            user.rewardPerTokenPaid = pool.rewardPerTokenStored;\n        }\n        _;\n    }\n\n    function lastTimeRewardApplicable() public view returns (uint256) {\n        return (periodFinish == 0 || block.timestamp < periodFinish) ? block.timestamp : periodFinish;\n    }\n\n    function rewardPerToken(uint256 _pid) public view returns (uint256) {\n        PoolInfo storage pool = poolInfo[_pid];\n        uint256 lpSupply = pool.lpToken.balanceOf(address(this));\n        if (lpSupply == 0) {\n            return pool.rewardPerTokenStored;\n        }\n        return pool.rewardPerTokenStored.add(\n            lastTimeRewardApplicable()\n            .sub(pool.lastUpdateTime == 0 ? block.timestamp : pool.lastUpdateTime)\n            .mul(rewardRate)\n            .mul(pool.allocPoint)\n            .div(totalAllocPoint)\n            .mul(1e18)\n            .div(lpSupply)\n        );\n    }\n\n    function earned(uint256 _pid, address _user) public view returns (uint256) {\n        UserInfo storage user = userInfo[_pid][_user];\n        return user.amount\n        .mul(rewardPerToken(_pid).sub(user.rewardPerTokenPaid))\n        .div(1e18)\n        .add(user.rewards);\n    }\n\n    // Add a new lp to the pool. Can only be called by the owner.\n    function add(uint256 _allocPoint, IERC20 _lpToken) public onlyOwner {\n        require(!lpExists[address(_lpToken)], \"do not add the same lp token more than once\");\n\n        totalAllocPoint = totalAllocPoint.add(_allocPoint);\n        poolInfo.push(PoolInfo({\n            lpToken : _lpToken,\n            allocPoint : _allocPoint,\n            lastUpdateTime : 0,\n            rewardPerTokenStored : 0\n            }));\n\n        lpExists[address(_lpToken)] = true;\n    }\n\n    function poolLength() external view returns (uint256) {\n        return poolInfo.length;\n    }\n\n    // Update the given pool's NINJA allocation point. Can only be called by the owner.\n    function set(uint256 _pid, uint256 _allocPoint) public onlyOwner {\n        totalAllocPoint = totalAllocPoint.sub(poolInfo[_pid].allocPoint).add(_allocPoint);\n        poolInfo[_pid].allocPoint = _allocPoint;\n    }\n\n    // View function to see pending NINJAs on frontend.\n    function pendingNINJA(uint256 _pid, address _user) external view returns (uint256) {\n        return earned(_pid, _user);\n    }\n\n    function _getReward(uint256 _pid, address _user) private {\n        UserInfo storage user = userInfo[_pid][_user];\n        uint256 reward = earned(_pid, _user);\n        if (reward > 0) {\n            user.rewards = 0;\n            uint256 ninjaBal = ninja.balanceOf(address(this));\n            if (reward > ninjaBal) {\n                reward = ninjaBal;\n            }\n            ninja.transfer(_user, reward);\n            emit RewardPaid(_user, reward);\n        }\n    }\n\n    // Deposit LP tokens to MasterChef for NINJA allocation.\n    function deposit(uint256 _pid, uint256 _amount) public updateReward(_pid, msg.sender) reduceHalve {\n        PoolInfo storage pool = poolInfo[_pid];\n        UserInfo storage user = userInfo[_pid][msg.sender];\n        _getReward(_pid, msg.sender);\n        pool.lpToken.safeTransferFrom(address(msg.sender), address(this), _amount);\n        user.amount = user.amount.add(_amount);\n        emit Deposit(msg.sender, _pid, _amount);\n    }\n\n    // Withdraw LP tokens from MasterChef.\n    function withdraw(uint256 _pid, uint256 _amount) public updateReward(_pid, msg.sender) reduceHalve {\n        PoolInfo storage pool = poolInfo[_pid];\n        UserInfo storage user = userInfo[_pid][msg.sender];\n        require(user.amount >= _amount, \"withdraw: not good\");\n        _getReward(_pid, msg.sender);\n        user.amount = user.amount.sub(_amount);\n        pool.lpToken.safeTransfer(address(msg.sender), _amount);\n        emit Withdraw(msg.sender, _pid, _amount);\n    }\n\n    // withdraw reward only.\n    function withdrawReward(uint256 _pid) public updateReward(_pid, msg.sender) reduceHalve {\n        _getReward(_pid, msg.sender);\n    }\n\n    // Withdraw without caring about rewards. EMERGENCY ONLY.\n    function emergencyWithdraw(uint256 _pid) public {\n        PoolInfo storage pool = poolInfo[_pid];\n        UserInfo storage user = userInfo[_pid][msg.sender];\n        pool.lpToken.safeTransfer(address(msg.sender), user.amount);\n        emit EmergencyWithdraw(msg.sender, _pid, user.amount);\n        user.amount = 0;\n        user.rewards = 0;\n    }\n\n}",
  "sourcePath": "/home/adeel/Desktop/ninjaswap-core/contracts/NinjaMaster.sol",
  "compiler": {
    "name": "solc",
    "version": "0.6.12+commit.27d51765.Emscripten.clang"
  },
  "schemaVersion": "3.3.4",
  "updatedAt": "2021-02-26T04:52:10.239Z",
  "devdoc": {
    "kind": "dev",
    "methods": {
      "owner()": {
        "details": "Returns the address of the current owner."
      },
      "renounceOwnership()": {
        "details": "Leaves the contract without owner. It will not be possible to call `onlyOwner` functions anymore. Can only be called by the current owner. NOTE: Renouncing ownership will leave the contract without an owner, thereby removing any functionality that is only available to the owner."
      },
      "transferOwnership(address)": {
        "details": "Transfers ownership of the contract to a new account (`newOwner`). Can only be called by the current owner."
      }
    },
    "version": 1
  },
  "userdoc": {
    "kind": "user",
    "methods": {},
    "version": 1
  }
}