{
  "contractName": "NinjaToken",
  "abi": [
    {
      "inputs": [
        {
          "internalType": "address",
          "name": "_ninjaBounty",
          "type": "address"
        }
      ],
      "stateMutability": "nonpayable",
      "type": "constructor"
    },
    {
      "anonymous": false,
      "inputs": [
        {
          "indexed": true,
          "internalType": "address",
          "name": "owner",
          "type": "address"
        },
        {
          "indexed": true,
          "internalType": "address",
          "name": "spender",
          "type": "address"
        },
        {
          "indexed": false,
          "internalType": "uint256",
          "name": "value",
          "type": "uint256"
        }
      ],
      "name": "Approval",
      "type": "event"
    },
    {
      "anonymous": false,
      "inputs": [
        {
          "indexed": true,
          "internalType": "address",
          "name": "previousOwner",
          "type": "address"
        },
        {
          "indexed": true,
          "internalType": "address",
          "name": "newOwner",
          "type": "address"
        }
      ],
      "name": "OwnershipTransferred",
      "type": "event"
    },
    {
      "anonymous": false,
      "inputs": [
        {
          "indexed": true,
          "internalType": "address",
          "name": "from",
          "type": "address"
        },
        {
          "indexed": true,
          "internalType": "address",
          "name": "to",
          "type": "address"
        },
        {
          "indexed": false,
          "internalType": "uint256",
          "name": "value",
          "type": "uint256"
        }
      ],
      "name": "Transfer",
      "type": "event"
    },
    {
      "inputs": [],
      "name": "AMO",
      "outputs": [
        {
          "internalType": "address",
          "name": "",
          "type": "address"
        }
      ],
      "stateMutability": "view",
      "type": "function"
    },
    {
      "inputs": [],
      "name": "AMOMinted",
      "outputs": [
        {
          "internalType": "uint256",
          "name": "",
          "type": "uint256"
        }
      ],
      "stateMutability": "view",
      "type": "function"
    },
    {
      "inputs": [],
      "name": "MasterChef",
      "outputs": [
        {
          "internalType": "address",
          "name": "",
          "type": "address"
        }
      ],
      "stateMutability": "view",
      "type": "function"
    },
    {
      "inputs": [
        {
          "internalType": "address",
          "name": "owner",
          "type": "address"
        },
        {
          "internalType": "address",
          "name": "spender",
          "type": "address"
        }
      ],
      "name": "allowance",
      "outputs": [
        {
          "internalType": "uint256",
          "name": "",
          "type": "uint256"
        }
      ],
      "stateMutability": "view",
      "type": "function"
    },
    {
      "inputs": [
        {
          "internalType": "address",
          "name": "spender",
          "type": "address"
        },
        {
          "internalType": "uint256",
          "name": "amount",
          "type": "uint256"
        }
      ],
      "name": "approve",
      "outputs": [
        {
          "internalType": "bool",
          "name": "",
          "type": "bool"
        }
      ],
      "stateMutability": "nonpayable",
      "type": "function"
    },
    {
      "inputs": [
        {
          "internalType": "address",
          "name": "account",
          "type": "address"
        }
      ],
      "name": "balanceOf",
      "outputs": [
        {
          "internalType": "uint256",
          "name": "",
          "type": "uint256"
        }
      ],
      "stateMutability": "view",
      "type": "function"
    },
    {
      "inputs": [],
      "name": "decimals",
      "outputs": [
        {
          "internalType": "uint8",
          "name": "",
          "type": "uint8"
        }
      ],
      "stateMutability": "view",
      "type": "function"
    },
    {
      "inputs": [
        {
          "internalType": "address",
          "name": "spender",
          "type": "address"
        },
        {
          "internalType": "uint256",
          "name": "subtractedValue",
          "type": "uint256"
        }
      ],
      "name": "decreaseAllowance",
      "outputs": [
        {
          "internalType": "bool",
          "name": "",
          "type": "bool"
        }
      ],
      "stateMutability": "nonpayable",
      "type": "function"
    },
    {
      "inputs": [
        {
          "internalType": "address",
          "name": "spender",
          "type": "address"
        },
        {
          "internalType": "uint256",
          "name": "addedValue",
          "type": "uint256"
        }
      ],
      "name": "increaseAllowance",
      "outputs": [
        {
          "internalType": "bool",
          "name": "",
          "type": "bool"
        }
      ],
      "stateMutability": "nonpayable",
      "type": "function"
    },
    {
      "inputs": [],
      "name": "masterChefMinted",
      "outputs": [
        {
          "internalType": "uint256",
          "name": "",
          "type": "uint256"
        }
      ],
      "stateMutability": "view",
      "type": "function"
    },
    {
      "inputs": [],
      "name": "masterChefWallet",
      "outputs": [
        {
          "internalType": "uint256",
          "name": "",
          "type": "uint256"
        }
      ],
      "stateMutability": "view",
      "type": "function"
    },
    {
      "inputs": [],
      "name": "name",
      "outputs": [
        {
          "internalType": "string",
          "name": "",
          "type": "string"
        }
      ],
      "stateMutability": "view",
      "type": "function"
    },
    {
      "inputs": [],
      "name": "owner",
      "outputs": [
        {
          "internalType": "address",
          "name": "",
          "type": "address"
        }
      ],
      "stateMutability": "view",
      "type": "function"
    },
    {
      "inputs": [],
      "name": "renounceOwnership",
      "outputs": [],
      "stateMutability": "nonpayable",
      "type": "function"
    },
    {
      "inputs": [],
      "name": "symbol",
      "outputs": [
        {
          "internalType": "string",
          "name": "",
          "type": "string"
        }
      ],
      "stateMutability": "view",
      "type": "function"
    },
    {
      "inputs": [],
      "name": "totalSupply",
      "outputs": [
        {
          "internalType": "uint256",
          "name": "",
          "type": "uint256"
        }
      ],
      "stateMutability": "view",
      "type": "function"
    },
    {
      "inputs": [
        {
          "internalType": "address",
          "name": "recipient",
          "type": "address"
        },
        {
          "internalType": "uint256",
          "name": "amount",
          "type": "uint256"
        }
      ],
      "name": "transfer",
      "outputs": [
        {
          "internalType": "bool",
          "name": "",
          "type": "bool"
        }
      ],
      "stateMutability": "nonpayable",
      "type": "function"
    },
    {
      "inputs": [
        {
          "internalType": "address",
          "name": "sender",
          "type": "address"
        },
        {
          "internalType": "address",
          "name": "recipient",
          "type": "address"
        },
        {
          "internalType": "uint256",
          "name": "amount",
          "type": "uint256"
        }
      ],
      "name": "transferFrom",
      "outputs": [
        {
          "internalType": "bool",
          "name": "",
          "type": "bool"
        }
      ],
      "stateMutability": "nonpayable",
      "type": "function"
    },
    {
      "inputs": [
        {
          "internalType": "address",
          "name": "newOwner",
          "type": "address"
        }
      ],
      "name": "transferOwnership",
      "outputs": [],
      "stateMutability": "nonpayable",
      "type": "function"
    },
    {
      "inputs": [
        {
          "internalType": "address",
          "name": "_to",
          "type": "address"
        },
        {
          "internalType": "uint256",
          "name": "_amount",
          "type": "uint256"
        }
      ],
      "name": "mint",
      "outputs": [],
      "stateMutability": "nonpayable",
      "type": "function"
    },
    {
      "inputs": [
        {
          "internalType": "uint256",
          "name": "_newReward",
          "type": "uint256"
        }
      ],
      "name": "addRewardMWallet",
      "outputs": [],
      "stateMutability": "nonpayable",
      "type": "function"
    },
    {
      "inputs": [
        {
          "internalType": "address",
          "name": "_masterChef",
          "type": "address"
        }
      ],
      "name": "updateMasterChef",
      "outputs": [],
      "stateMutability": "nonpayable",
      "type": "function"
    },
    {
      "inputs": [
        {
          "internalType": "address",
          "name": "_AMO",
          "type": "address"
        }
      ],
      "name": "updateAMO",
      "outputs": [],
      "stateMutability": "nonpayable",
      "type": "function"
    }
  ],
  "bytecode": "0x60806040523480156200001157600080fd5b506040516200147438038062001474833981810160405260208110156200003757600080fd5b5051604080518082018252600981526804e696e6a61537761760bc1b6020828101918252835180850190945260058452644e494e4a4160d81b9084015281519192916200008791600391620002a6565b5080516200009d906004906020840190620002a6565b50506005805460ff19166012179055506000620000b96200012c565b60058054610100600160a81b0319166101006001600160a01b03841690810291909117909155604051919250906000907f8be0079c531659141344cd1fd0a4f28419497f9722a3daafe3b4186f6b6457e0908290a3506200012581692a5a058fc295ed00000062000130565b5062000342565b3390565b6001600160a01b0382166200018c576040805162461bcd60e51b815260206004820152601f60248201527f45524332303a206d696e7420746f20746865207a65726f206164647265737300604482015290519081900360640190fd5b6200019a600083836200023f565b620001b6816002546200024460201b62000b6d1790919060201c565b6002556001600160a01b03821660009081526020818152604090912054620001e991839062000b6d62000244821b17901c565b6001600160a01b0383166000818152602081815260408083209490945583518581529351929391927fddf252ad1be2c89b69c2b068fc378daa952ba7f163c4a11628f55a4df523b3ef9281900390910190a35050565b505050565b6000828201838110156200029f576040805162461bcd60e51b815260206004820152601b60248201527f536166654d6174683a206164646974696f6e206f766572666c6f770000000000604482015290519081900360640190fd5b9392505050565b828054600181600116156101000203166002900490600052602060002090601f016020900481019282601f10620002e957805160ff191683800117855562000319565b8280016001018555821562000319579182015b8281111562000319578251825591602001919060010190620002fc565b50620003279291506200032b565b5090565b5b808211156200032757600081556001016200032c565b61112280620003526000396000f3fe608060405234801561001057600080fd5b506004361061014d5760003560e01c806370a08231116100c3578063a9059cbb1161007c578063a9059cbb146103d6578063b5b90fae14610402578063bc9faa3d1461040a578063dd62ed3e14610412578063e9ea46c714610440578063f2fde38b146104485761014d565b806370a0823114610333578063715018a6146103595780637ec2f2ca146103615780638da5cb5b1461037e57806395d89b41146103a2578063a457c2d7146103aa5761014d565b8063313ce56711610115578063313ce5671461026757806339509351146102855780633b24d896146102b157806340c10f19146102d9578063521929891461030557806357e455621461030d5761014d565b806306fdde031461015257806309546da4146101cf578063095ea7b3146101e957806318160ddd1461022957806323b872dd14610231575b600080fd5b61015a61046e565b6040805160208082528351818301528351919283929083019185019080838360005b8381101561019457818101518382015260200161017c565b50505050905090810190601f1680156101c15780820380516001836020036101000a031916815260200191505b509250505060405180910390f35b6101d7610504565b60408051918252519081900360200190f35b610215600480360360408110156101ff57600080fd5b506001600160a01b03813516906020013561050a565b604080519115158252519081900360200190f35b6101d7610527565b6102156004803603606081101561024757600080fd5b506001600160a01b0381358116916020810135909116906040013561052d565b61026f6105b4565b6040805160ff9092168252519081900360200190f35b6102156004803603604081101561029b57600080fd5b506001600160a01b0381351690602001356105bd565b6102d7600480360360208110156102c757600080fd5b50356001600160a01b031661060b565b005b6102d7600480360360408110156102ef57600080fd5b506001600160a01b03813516906020013561068f565b6101d7610751565b6102d76004803603602081101561032357600080fd5b50356001600160a01b0316610757565b6101d76004803603602081101561034957600080fd5b50356001600160a01b03166107db565b6102d76107f6565b6102d76004803603602081101561037757600080fd5b50356108a8565b61038661091f565b604080516001600160a01b039092168252519081900360200190f35b61015a610933565b610215600480360360408110156103c057600080fd5b506001600160a01b038135169060200135610994565b610215600480360360408110156103ec57600080fd5b506001600160a01b0381351690602001356109fc565b6101d7610a10565b610386610a16565b6101d76004803603604081101561042857600080fd5b506001600160a01b0381358116916020013516610a25565b610386610a50565b6102d76004803603602081101561045e57600080fd5b50356001600160a01b0316610a5f565b60038054604080516020601f60026000196101006001881615020190951694909404938401819004810282018101909252828152606093909290918301828280156104fa5780601f106104cf576101008083540402835291602001916104fa565b820191906000526020600020905b8154815290600101906020018083116104dd57829003601f168201915b5050505050905090565b600a5481565b600061051e610517610bce565b8484610bd2565b50600192915050565b60025490565b600061053a848484610cbe565b6105aa84610546610bce565b6105a585604051806060016040528060288152602001611037602891396001600160a01b038a16600090815260016020526040812090610584610bce565b6001600160a01b031681526020810191909152604001600020549190610e19565b610bd2565b5060019392505050565b60055460ff1690565b600061051e6105ca610bce565b846105a585600160006105db610bce565b6001600160a01b03908116825260208083019390935260409182016000908120918c168152925290205490610b6d565b610613610bce565b6001600160a01b031661062461091f565b6001600160a01b03161461066d576040805162461bcd60e51b8152602060048201819052602482015260008051602061105f833981519152604482015290519081900360640190fd5b600680546001600160a01b0319166001600160a01b0392909216919091179055565b6006546001600160a01b03163314806106b257506007546001600160a01b031633145b6106f3576040805162461bcd60e51b815260206004820152600d60248201526c2737902832b936b4b9b9b4b7b760991b604482015290519081900360640190fd5b6007546001600160a01b031633141561072057600a546107139082610b6d565b600a556107208282610eb0565b6006546001600160a01b031633141561074d576009546107409082610b6d565b60095561074d8282610eb0565b5050565b60085481565b61075f610bce565b6001600160a01b031661077061091f565b6001600160a01b0316146107b9576040805162461bcd60e51b8152602060048201819052602482015260008051602061105f833981519152604482015290519081900360640190fd5b600780546001600160a01b0319166001600160a01b0392909216919091179055565b6001600160a01b031660009081526020819052604090205490565b6107fe610bce565b6001600160a01b031661080f61091f565b6001600160a01b031614610858576040805162461bcd60e51b8152602060048201819052602482015260008051602061105f833981519152604482015290519081900360640190fd5b60055460405160009161010090046001600160a01b0316907f8be0079c531659141344cd1fd0a4f28419497f9722a3daafe3b4186f6b6457e0908390a360058054610100600160a81b0319169055565b6006546001600160a01b03163314806108cb57506007546001600160a01b031633145b61090c576040805162461bcd60e51b815260206004820152600d60248201526c2737902832b936b4b9b9b4b7b760991b604482015290519081900360640190fd5b6008546109199082610b6d565b60085550565b60055461010090046001600160a01b031690565b60048054604080516020601f60026000196101006001881615020190951694909404938401819004810282018101909252828152606093909290918301828280156104fa5780601f106104cf576101008083540402835291602001916104fa565b600061051e6109a1610bce565b846105a5856040518060600160405280602581526020016110c860259139600160006109cb610bce565b6001600160a01b03908116825260208083019390935260409182016000908120918d16815292529020549190610e19565b600061051e610a09610bce565b8484610cbe565b60095481565b6006546001600160a01b031681565b6001600160a01b03918216600090815260016020908152604080832093909416825291909152205490565b6007546001600160a01b031681565b610a67610bce565b6001600160a01b0316610a7861091f565b6001600160a01b031614610ac1576040805162461bcd60e51b8152602060048201819052602482015260008051602061105f833981519152604482015290519081900360640190fd5b6001600160a01b038116610b065760405162461bcd60e51b8152600401808060200182810382526026815260200180610fc96026913960400191505060405180910390fd5b6005546040516001600160a01b0380841692610100900416907f8be0079c531659141344cd1fd0a4f28419497f9722a3daafe3b4186f6b6457e090600090a3600580546001600160a01b0390921661010002610100600160a81b0319909216919091179055565b600082820183811015610bc7576040805162461bcd60e51b815260206004820152601b60248201527f536166654d6174683a206164646974696f6e206f766572666c6f770000000000604482015290519081900360640190fd5b9392505050565b3390565b6001600160a01b038316610c175760405162461bcd60e51b81526004018080602001828103825260248152602001806110a46024913960400191505060405180910390fd5b6001600160a01b038216610c5c5760405162461bcd60e51b8152600401808060200182810382526022815260200180610fef6022913960400191505060405180910390fd5b6001600160a01b03808416600081815260016020908152604080832094871680845294825291829020859055815185815291517f8c5be1e5ebec7d5bd14f71427d1e84f3dd0314c0f7b2291e5b200ac8c7c3b9259281900390910190a3505050565b6001600160a01b038316610d035760405162461bcd60e51b815260040180806020018281038252602581526020018061107f6025913960400191505060405180910390fd5b6001600160a01b038216610d485760405162461bcd60e51b8152600401808060200182810382526023815260200180610fa66023913960400191505060405180910390fd5b610d53838383610fa0565b610d9081604051806060016040528060268152602001611011602691396001600160a01b0386166000908152602081905260409020549190610e19565b6001600160a01b038085166000908152602081905260408082209390935590841681522054610dbf9082610b6d565b6001600160a01b038084166000818152602081815260409182902094909455805185815290519193928716927fddf252ad1be2c89b69c2b068fc378daa952ba7f163c4a11628f55a4df523b3ef92918290030190a3505050565b60008184841115610ea85760405162461bcd60e51b81526004018080602001828103825283818151815260200191508051906020019080838360005b83811015610e6d578181015183820152602001610e55565b50505050905090810190601f168015610e9a5780820380516001836020036101000a031916815260200191505b509250505060405180910390fd5b505050900390565b6001600160a01b038216610f0b576040805162461bcd60e51b815260206004820152601f60248201527f45524332303a206d696e7420746f20746865207a65726f206164647265737300604482015290519081900360640190fd5b610f1760008383610fa0565b600254610f249082610b6d565b6002556001600160a01b038216600090815260208190526040902054610f4a9082610b6d565b6001600160a01b0383166000818152602081815260408083209490945583518581529351929391927fddf252ad1be2c89b69c2b068fc378daa952ba7f163c4a11628f55a4df523b3ef9281900390910190a35050565b50505056fe45524332303a207472616e7366657220746f20746865207a65726f20616464726573734f776e61626c653a206e6577206f776e657220697320746865207a65726f206164647265737345524332303a20617070726f766520746f20746865207a65726f206164647265737345524332303a207472616e7366657220616d6f756e7420657863656564732062616c616e636545524332303a207472616e7366657220616d6f756e74206578636565647320616c6c6f77616e63654f776e61626c653a2063616c6c6572206973206e6f7420746865206f776e657245524332303a207472616e736665722066726f6d20746865207a65726f206164647265737345524332303a20617070726f76652066726f6d20746865207a65726f206164647265737345524332303a2064656372656173656420616c6c6f77616e63652062656c6f77207a65726fa2646970667358221220f85b0131efe336201ab37dad4291b6f63017b97bd23dffa76c4c280a1bbab7e664736f6c634300060c0033",
  "immutableReferences": {},
  "source": "pragma solidity 0.6.12;\n// SPDX-License-Identifier: MIT\n\nimport \"@openzeppelin/contracts/GSN/Context.sol\";\nimport \"@openzeppelin/contracts/token/ERC20/IERC20.sol\";\nimport \"@openzeppelin/contracts/math/SafeMath.sol\";\nimport \"@openzeppelin/contracts/utils/Address.sol\";\nimport \"@openzeppelin/contracts/token/ERC20/ERC20.sol\";\nimport \"@openzeppelin/contracts/access/Ownable.sol\";\n\ncontract NinjaToken is ERC20(\"NinjaSwap\", \"NINJA\"), Ownable {\n    using SafeMath for uint256;\n\n    address public AMO;\n    address public MasterChef;\n    uint256 public masterChefWallet;\n    uint256 public AMOMinted;\n    uint256 public masterChefMinted;\n\n    constructor(address _ninjaBounty) public {\n       _mint(_ninjaBounty, 200000000000000000000000);  //mint 200k for airdrop and bounty\n    }\n    function mint(address _to, uint256 _amount) public onlyMinter {\n        if (msg.sender == MasterChef) {\n            masterChefMinted = masterChefMinted.add(_amount);\n             _mint(_to, _amount);\n        }\n        if (msg.sender == AMO) {\n            AMOMinted = AMOMinted.add(_amount);\n             _mint(_to, _amount);\n        }\n    }\n\n    function addRewardMWallet(uint256 _newReward) public onlyMinter {\n        masterChefWallet = masterChefWallet.add(_newReward);\n    }\n    function updateMasterChef(address _masterChef) public onlyOwner {\n        MasterChef = _masterChef;\n    }\n    function updateAMO(address _AMO) public onlyOwner {\n        AMO = _AMO;\n    }\n\n    //only masterChef and AMO can mint\n    modifier onlyMinter() {\n        require(\n            AMO == msg.sender || MasterChef == msg.sender,\n            \"No Permission\"\n        );\n        _;\n    }\n}\n",
  "sourcePath": "/home/adeel/Desktop/ninjaswap-core/contracts/NinjaToken.sol",
  "compiler": {
    "name": "solc",
    "version": "0.6.12+commit.27d51765.Emscripten.clang"
  },
  "schemaVersion": "3.3.4",
  "updatedAt": "2021-02-26T04:52:10.335Z",
  "devdoc": {
    "kind": "dev",
    "methods": {
      "allowance(address,address)": {
        "details": "See {IERC20-allowance}."
      },
      "approve(address,uint256)": {
        "details": "See {IERC20-approve}. Requirements: - `spender` cannot be the zero address."
      },
      "balanceOf(address)": {
        "details": "See {IERC20-balanceOf}."
      },
      "decimals()": {
        "details": "Returns the number of decimals used to get its user representation. For example, if `decimals` equals `2`, a balance of `505` tokens should be displayed to a user as `5,05` (`505 / 10 ** 2`). Tokens usually opt for a value of 18, imitating the relationship between Ether and Wei. This is the value {ERC20} uses, unless {_setupDecimals} is called. NOTE: This information is only used for _display_ purposes: it in no way affects any of the arithmetic of the contract, including {IERC20-balanceOf} and {IERC20-transfer}."
      },
      "decreaseAllowance(address,uint256)": {
        "details": "Atomically decreases the allowance granted to `spender` by the caller. This is an alternative to {approve} that can be used as a mitigation for problems described in {IERC20-approve}. Emits an {Approval} event indicating the updated allowance. Requirements: - `spender` cannot be the zero address. - `spender` must have allowance for the caller of at least `subtractedValue`."
      },
      "increaseAllowance(address,uint256)": {
        "details": "Atomically increases the allowance granted to `spender` by the caller. This is an alternative to {approve} that can be used as a mitigation for problems described in {IERC20-approve}. Emits an {Approval} event indicating the updated allowance. Requirements: - `spender` cannot be the zero address."
      },
      "name()": {
        "details": "Returns the name of the token."
      },
      "owner()": {
        "details": "Returns the address of the current owner."
      },
      "renounceOwnership()": {
        "details": "Leaves the contract without owner. It will not be possible to call `onlyOwner` functions anymore. Can only be called by the current owner. NOTE: Renouncing ownership will leave the contract without an owner, thereby removing any functionality that is only available to the owner."
      },
      "symbol()": {
        "details": "Returns the symbol of the token, usually a shorter version of the name."
      },
      "totalSupply()": {
        "details": "See {IERC20-totalSupply}."
      },
      "transfer(address,uint256)": {
        "details": "See {IERC20-transfer}. Requirements: - `recipient` cannot be the zero address. - the caller must have a balance of at least `amount`."
      },
      "transferFrom(address,address,uint256)": {
        "details": "See {IERC20-transferFrom}. Emits an {Approval} event indicating the updated allowance. This is not required by the EIP. See the note at the beginning of {ERC20}. Requirements: - `sender` and `recipient` cannot be the zero address. - `sender` must have a balance of at least `amount`. - the caller must have allowance for ``sender``'s tokens of at least `amount`."
      },
      "transferOwnership(address)": {
        "details": "Transfers ownership of the contract to a new account (`newOwner`). Can only be called by the current owner."
      }
    },
    "version": 1
  },
  "userdoc": {
    "kind": "user",
    "methods": {},
    "version": 1
  }
}