{
  "contractName": "NinjaMaster",
  "abi": [
    {
      "inputs": [
        {
          "internalType": "contract NinjaToken",
          "name": "_ninja",
          "type": "address"
        }
      ],
      "stateMutability": "nonpayable",
      "type": "constructor"
    },
    {
      "anonymous": false,
      "inputs": [
        {
          "indexed": true,
          "internalType": "address",
          "name": "user",
          "type": "address"
        },
        {
          "indexed": true,
          "internalType": "uint256",
          "name": "pid",
          "type": "uint256"
        },
        {
          "indexed": false,
          "internalType": "uint256",
          "name": "amount",
          "type": "uint256"
        }
      ],
      "name": "Deposit",
      "type": "event"
    },
    {
      "anonymous": false,
      "inputs": [
        {
          "indexed": true,
          "internalType": "address",
          "name": "user",
          "type": "address"
        },
        {
          "indexed": true,
          "internalType": "uint256",
          "name": "pid",
          "type": "uint256"
        },
        {
          "indexed": false,
          "internalType": "uint256",
          "name": "amount",
          "type": "uint256"
        }
      ],
      "name": "EmergencyWithdraw",
      "type": "event"
    },
    {
      "anonymous": false,
      "inputs": [
        {
          "indexed": true,
          "internalType": "address",
          "name": "previousOwner",
          "type": "address"
        },
        {
          "indexed": true,
          "internalType": "address",
          "name": "newOwner",
          "type": "address"
        }
      ],
      "name": "OwnershipTransferred",
      "type": "event"
    },
    {
      "anonymous": false,
      "inputs": [
        {
          "indexed": false,
          "internalType": "uint256",
          "name": "reward",
          "type": "uint256"
        }
      ],
      "name": "RewardAdded",
      "type": "event"
    },
    {
      "anonymous": false,
      "inputs": [
        {
          "indexed": true,
          "internalType": "address",
          "name": "user",
          "type": "address"
        },
        {
          "indexed": false,
          "internalType": "uint256",
          "name": "reward",
          "type": "uint256"
        }
      ],
      "name": "RewardPaid",
      "type": "event"
    },
    {
      "anonymous": false,
      "inputs": [
        {
          "indexed": true,
          "internalType": "address",
          "name": "user",
          "type": "address"
        },
        {
          "indexed": true,
          "internalType": "uint256",
          "name": "pid",
          "type": "uint256"
        },
        {
          "indexed": false,
          "internalType": "uint256",
          "name": "amount",
          "type": "uint256"
        }
      ],
      "name": "Withdraw",
      "type": "event"
    },
    {
      "inputs": [],
      "name": "Reward",
      "outputs": [
        {
          "internalType": "uint256",
          "name": "",
          "type": "uint256"
        }
      ],
      "stateMutability": "view",
      "type": "function"
    },
    {
      "inputs": [],
      "name": "ninja",
      "outputs": [
        {
          "internalType": "contract NinjaToken",
          "name": "",
          "type": "address"
        }
      ],
      "stateMutability": "view",
      "type": "function"
    },
    {
      "inputs": [],
      "name": "owner",
      "outputs": [
        {
          "internalType": "address",
          "name": "",
          "type": "address"
        }
      ],
      "stateMutability": "view",
      "type": "function"
    },
    {
      "inputs": [],
      "name": "period1",
      "outputs": [
        {
          "internalType": "uint256",
          "name": "",
          "type": "uint256"
        }
      ],
      "stateMutability": "view",
      "type": "function"
    },
    {
      "inputs": [],
      "name": "period2",
      "outputs": [
        {
          "internalType": "uint256",
          "name": "",
          "type": "uint256"
        }
      ],
      "stateMutability": "view",
      "type": "function"
    },
    {
      "inputs": [],
      "name": "period3",
      "outputs": [
        {
          "internalType": "uint256",
          "name": "",
          "type": "uint256"
        }
      ],
      "stateMutability": "view",
      "type": "function"
    },
    {
      "inputs": [],
      "name": "period4",
      "outputs": [
        {
          "internalType": "uint256",
          "name": "",
          "type": "uint256"
        }
      ],
      "stateMutability": "view",
      "type": "function"
    },
    {
      "inputs": [],
      "name": "periodFinish",
      "outputs": [
        {
          "internalType": "uint256",
          "name": "",
          "type": "uint256"
        }
      ],
      "stateMutability": "view",
      "type": "function"
    },
    {
      "inputs": [
        {
          "internalType": "uint256",
          "name": "",
          "type": "uint256"
        }
      ],
      "name": "poolInfo",
      "outputs": [
        {
          "internalType": "contract IERC20",
          "name": "lpToken",
          "type": "address"
        },
        {
          "internalType": "uint256",
          "name": "allocPoint",
          "type": "uint256"
        },
        {
          "internalType": "uint256",
          "name": "lastUpdateTime",
          "type": "uint256"
        },
        {
          "internalType": "uint256",
          "name": "rewardPerTokenStored",
          "type": "uint256"
        }
      ],
      "stateMutability": "view",
      "type": "function"
    },
    {
      "inputs": [],
      "name": "renounceOwnership",
      "outputs": [],
      "stateMutability": "nonpayable",
      "type": "function"
    },
    {
      "inputs": [],
      "name": "rewardRate",
      "outputs": [
        {
          "internalType": "uint256",
          "name": "",
          "type": "uint256"
        }
      ],
      "stateMutability": "view",
      "type": "function"
    },
    {
      "inputs": [],
      "name": "totalAllocPoint",
      "outputs": [
        {
          "internalType": "uint256",
          "name": "",
          "type": "uint256"
        }
      ],
      "stateMutability": "view",
      "type": "function"
    },
    {
      "inputs": [
        {
          "internalType": "address",
          "name": "newOwner",
          "type": "address"
        }
      ],
      "name": "transferOwnership",
      "outputs": [],
      "stateMutability": "nonpayable",
      "type": "function"
    },
    {
      "inputs": [
        {
          "internalType": "uint256",
          "name": "",
          "type": "uint256"
        },
        {
          "internalType": "address",
          "name": "",
          "type": "address"
        }
      ],
      "name": "userInfo",
      "outputs": [
        {
          "internalType": "uint256",
          "name": "amount",
          "type": "uint256"
        },
        {
          "internalType": "uint256",
          "name": "rewardPerTokenPaid",
          "type": "uint256"
        },
        {
          "internalType": "uint256",
          "name": "rewards",
          "type": "uint256"
        }
      ],
      "stateMutability": "view",
      "type": "function"
    },
    {
      "inputs": [],
      "name": "lastTimeRewardApplicable",
      "outputs": [
        {
          "internalType": "uint256",
          "name": "",
          "type": "uint256"
        }
      ],
      "stateMutability": "view",
      "type": "function"
    },
    {
      "inputs": [
        {
          "internalType": "uint256",
          "name": "_pid",
          "type": "uint256"
        }
      ],
      "name": "rewardPerToken",
      "outputs": [
        {
          "internalType": "uint256",
          "name": "",
          "type": "uint256"
        }
      ],
      "stateMutability": "view",
      "type": "function"
    },
    {
      "inputs": [
        {
          "internalType": "uint256",
          "name": "_pid",
          "type": "uint256"
        },
        {
          "internalType": "address",
          "name": "_user",
          "type": "address"
        }
      ],
      "name": "earned",
      "outputs": [
        {
          "internalType": "uint256",
          "name": "",
          "type": "uint256"
        }
      ],
      "stateMutability": "view",
      "type": "function"
    },
    {
      "inputs": [
        {
          "internalType": "uint256",
          "name": "_allocPoint",
          "type": "uint256"
        },
        {
          "internalType": "contract IERC20",
          "name": "_lpToken",
          "type": "address"
        }
      ],
      "name": "add",
      "outputs": [],
      "stateMutability": "nonpayable",
      "type": "function"
    },
    {
      "inputs": [],
      "name": "poolLength",
      "outputs": [
        {
          "internalType": "uint256",
          "name": "",
          "type": "uint256"
        }
      ],
      "stateMutability": "view",
      "type": "function"
    },
    {
      "inputs": [
        {
          "internalType": "uint256",
          "name": "_pid",
          "type": "uint256"
        },
        {
          "internalType": "uint256",
          "name": "_allocPoint",
          "type": "uint256"
        }
      ],
      "name": "set",
      "outputs": [],
      "stateMutability": "nonpayable",
      "type": "function"
    },
    {
      "inputs": [
        {
          "internalType": "uint256",
          "name": "_pid",
          "type": "uint256"
        },
        {
          "internalType": "address",
          "name": "_user",
          "type": "address"
        }
      ],
      "name": "pendingNINJA",
      "outputs": [
        {
          "internalType": "uint256",
          "name": "",
          "type": "uint256"
        }
      ],
      "stateMutability": "view",
      "type": "function"
    },
    {
      "inputs": [
        {
          "internalType": "uint256",
          "name": "_pid",
          "type": "uint256"
        },
        {
          "internalType": "uint256",
          "name": "_amount",
          "type": "uint256"
        }
      ],
      "name": "deposit",
      "outputs": [],
      "stateMutability": "nonpayable",
      "type": "function"
    },
    {
      "inputs": [
        {
          "internalType": "uint256",
          "name": "_pid",
          "type": "uint256"
        },
        {
          "internalType": "uint256",
          "name": "_amount",
          "type": "uint256"
        }
      ],
      "name": "withdraw",
      "outputs": [],
      "stateMutability": "nonpayable",
      "type": "function"
    },
    {
      "inputs": [
        {
          "internalType": "uint256",
          "name": "_pid",
          "type": "uint256"
        }
      ],
      "name": "withdrawReward",
      "outputs": [],
      "stateMutability": "nonpayable",
      "type": "function"
    },
    {
      "inputs": [
        {
          "internalType": "uint256",
          "name": "_pid",
          "type": "uint256"
        }
      ],
      "name": "emergencyWithdraw",
      "outputs": [],
      "stateMutability": "nonpayable",
      "type": "function"
    }
  ],
  "bytecode": "0x6080604052692a5a058fc295ed0000006001556000600255600060035560006004556000600555600060065560006007556000600b5534801561004157600080fd5b506040516122bc3803806122bc8339818101604052602081101561006457600080fd5b505160006100706100df565b600080546001600160a01b0319166001600160a01b0383169081178255604051929350917f8be0079c531659141344cd1fd0a4f28419497f9722a3daafe3b4186f6b6457e0908290a350600880546001600160a01b0319166001600160a01b03929092169190911790556100e3565b3390565b6121ca806100f26000396000f3fe608060405234801561001057600080fd5b50600436106101735760003560e01c80637b0a47ee116100de578063b307b70411610097578063e2e15f2e11610071578063e2e15f2e146103af578063e39c08fc146103b7578063ebe2b12b146103e3578063f2fde38b146103eb57610173565b8063b307b7041461037c578063c6023f6614610384578063e2bbb1581461038c57610173565b80637b0a47ee146102d957806380faa57d146102e1578063853a0707146102e9578063874c120b146102f15780638da5cb5b1461030e57806393f1a40b1461033257610173565b8063441a3e7011610130578063441a3e7014610240578063475fcbf614610263578063523a3f081461026b5780635312ea8e146102885780635cce4409146102a5578063715018a6146102d157610173565b8063030e342214610178578063081e3eda146101925780631526fe271461019a57806317caf6f1146101e75780631ab06ee5146101ef5780632b8bbbe814610214575b600080fd5b610180610411565b60408051918252519081900360200190f35b610180610419565b6101b7600480360360208110156101b057600080fd5b503561041f565b604080516001600160a01b0390951685526020850193909352838301919091526060830152519081900360800190f35b610180610460565b6102126004803603604081101561020557600080fd5b5080359060200135610466565b005b6102126004803603604081101561022a57600080fd5b50803590602001356001600160a01b0316610532565b6102126004803603604081101561025657600080fd5b5080359060200135610703565b610180610c57565b6102126004803603602081101561028157600080fd5b5035610c5e565b6102126004803603602081101561029e57600080fd5b50356110b8565b610180600480360360408110156102bb57600080fd5b50803590602001356001600160a01b0316611153565b610212611168565b610180611214565b61018061121a565b610180611241565b6101806004803603602081101561030757600080fd5b5035611249565b61031661135b565b604080516001600160a01b039092168252519081900360200190f35b61035e6004803603604081101561034857600080fd5b50803590602001356001600160a01b031661136a565b60408051938452602084019290925282820152519081900360600190f35b610180611396565b61031661139e565b610212600480360360408110156103a257600080fd5b50803590602001356113ad565b6101806118a0565b610180600480360360408110156103cd57600080fd5b50803590602001356001600160a01b03166118a6565b610180611906565b6102126004803603602081101561040157600080fd5b50356001600160a01b031661190c565b6301e1338081565b60095490565b6009818154811061042c57fe5b600091825260209091206004909102018054600182015460028301546003909301546001600160a01b039092169350919084565b600b5481565b61046e611a0e565b6001600160a01b031661047f61135b565b6001600160a01b0316146104c8576040805162461bcd60e51b81526020600482018190526024820152600080516020612120833981519152604482015290519081900360640190fd5b610505816104ff600985815481106104dc57fe5b906000526020600020906004020160010154600b54611a1290919063ffffffff16565b90611a6f565b600b81905550806009838154811061051957fe5b9060005260206000209060040201600101819055505050565b61053a611a0e565b6001600160a01b031661054b61135b565b6001600160a01b031614610594576040805162461bcd60e51b81526020600482018190526024820152600080516020612120833981519152604482015290519081900360640190fd5b6001600160a01b0381166000908152600c602052604090205460ff16156105ec5760405162461bcd60e51b815260040180806020018281038252602b815260200180612140602b913960400191505060405180910390fd5b600b546105f99083611a6f565b600b55604080516080810182526001600160a01b039283168082526020808301958652600083850181815260608501828152600980546001808201835591855296517f6e1540171b6c0c960b71a7020d9f60077f6af931a8bbf590da0223dacf75c7af600490980297880180546001600160a01b03191691909a161790985597517f6e1540171b6c0c960b71a7020d9f60077f6af931a8bbf590da0223dacf75c7b0860155517f6e1540171b6c0c960b71a7020d9f60077f6af931a8bbf590da0223dacf75c7b185015595517f6e1540171b6c0c960b71a7020d9f60077f6af931a8bbf590da0223dacf75c7b2909301929092558452600c9052909120805460ff19169091179055565b813360006009838154811061071457fe5b60009182526020808320868452600a825260408085206001600160a01b038816865290925292206004909102909101915061074e84611249565b600383015561075b61121a565b60028301556001600160a01b038316156107895761077984846118a6565b6002820155600382015460018201555b60025461084b5761079d4262ed4e00611a6f565b6002556001546107b09062ed4e00611ac9565b600755600854600154604080516340c10f1960e01b81523060048201526024810192909252516001600160a01b03909216916340c10f199160448082019260009290919082900301818387803b15801561080957600080fd5b505af115801561081d573d6000803e3d6000fd5b505060015460408051918252516000805160206120df8339815191529350908190036020019150a160016003555b600254421015801561085d5750600454155b1561091f57610870426301e13380611a6f565b600255600154610884906301e13380611ac9565b600755600854600154604080516340c10f1960e01b81523060048201526024810192909252516001600160a01b03909216916340c10f199160448082019260009290919082900301818387803b1580156108dd57600080fd5b505af11580156108f1573d6000803e3d6000fd5b505060015460408051918252516000805160206120df8339815191529350908190036020019150a160016004555b60025442101580156109315750600554155b156109f357610944426303c26700611a6f565b600255600154610958906303c26700611ac9565b600755600854600154604080516340c10f1960e01b81523060048201526024810192909252516001600160a01b03909216916340c10f199160448082019260009290919082900301818387803b1580156109b157600080fd5b505af11580156109c5573d6000803e3d6000fd5b505060015460408051918252516000805160206120df8339815191529350908190036020019150a160016005555b6002544210158015610a055750600654155b15610b6657610a1842630784ce00611a6f565b60025560085460408051635219298960e01b815290516000926001600160a01b0316916352192989916004808301926020929190829003018186803b158015610a6057600080fd5b505afa158015610a74573d6000803e3d6000fd5b505050506040513d6020811015610a8a57600080fd5b5051600154909150600090610abe90610aa4906003611b30565b610ab88469a968163f0a57b4000000611a6f565b90611a12565b9050610ace816303c26700611ac9565b600755600854604080516340c10f1960e01b81523060048201526024810184905290516001600160a01b03909216916340c10f199160448082019260009290919082900301818387803b158015610b2457600080fd5b505af1158015610b38573d6000803e3d6000fd5b50506040805184815290516000805160206120df8339815191529350908190036020019150a1505060016006555b600060098781548110610b7557fe5b600091825260208083208a8452600a825260408085203386529092529220805460049092029092019250871115610be8576040805162461bcd60e51b81526020600482015260126024820152711dda5d1a191c985dce881b9bdd0819dbdbd960721b604482015290519081900360640190fd5b610bf28833611b89565b8054610bfe9088611a12565b81558154610c16906001600160a01b03163389611d15565b604080518881529051899133917ff279e6a1f5e320cca91135676d9cb6e44ca8a08c0b88342bcdb1144f6511b5689181900360200190a35050505050505050565b62ed4e0081565b8033600060098381548110610c6f57fe5b60009182526020808320868452600a825260408085206001600160a01b0388168652909252922060049091029091019150610ca984611249565b6003830155610cb661121a565b60028301556001600160a01b03831615610ce457610cd484846118a6565b6002820155600382015460018201555b600254610da657610cf84262ed4e00611a6f565b600255600154610d0b9062ed4e00611ac9565b600755600854600154604080516340c10f1960e01b81523060048201526024810192909252516001600160a01b03909216916340c10f199160448082019260009290919082900301818387803b158015610d6457600080fd5b505af1158015610d78573d6000803e3d6000fd5b505060015460408051918252516000805160206120df8339815191529350908190036020019150a160016003555b6002544210158015610db85750600454155b15610e7a57610dcb426301e13380611a6f565b600255600154610ddf906301e13380611ac9565b600755600854600154604080516340c10f1960e01b81523060048201526024810192909252516001600160a01b03909216916340c10f199160448082019260009290919082900301818387803b158015610e3857600080fd5b505af1158015610e4c573d6000803e3d6000fd5b505060015460408051918252516000805160206120df8339815191529350908190036020019150a160016004555b6002544210158015610e8c5750600554155b15610f4e57610e9f426303c26700611a6f565b600255600154610eb3906303c26700611ac9565b600755600854600154604080516340c10f1960e01b81523060048201526024810192909252516001600160a01b03909216916340c10f199160448082019260009290919082900301818387803b158015610f0c57600080fd5b505af1158015610f20573d6000803e3d6000fd5b505060015460408051918252516000805160206120df8339815191529350908190036020019150a160016005555b6002544210158015610f605750600654155b156110a757610f7342630784ce00611a6f565b60025560085460408051635219298960e01b815290516000926001600160a01b0316916352192989916004808301926020929190829003018186803b158015610fbb57600080fd5b505afa158015610fcf573d6000803e3d6000fd5b505050506040513d6020811015610fe557600080fd5b5051600154909150600090610fff90610aa4906003611b30565b905061100f816303c26700611ac9565b600755600854604080516340c10f1960e01b81523060048201526024810184905290516001600160a01b03909216916340c10f199160448082019260009290919082900301818387803b15801561106557600080fd5b505af1158015611079573d6000803e3d6000fd5b50506040805184815290516000805160206120df8339815191529350908190036020019150a1505060016006555b6110b18533611b89565b5050505050565b6000600982815481106110c757fe5b60009182526020808320858452600a8252604080852033808752935290932080546004909302909301805490945061110c926001600160a01b03919091169190611d15565b80546040805191825251849133917fbb757047c2b5f3974fe26b7c10f732e7bce710b0952a71082702781e62ae05959181900360200190a360008082556002909101555050565b600061115f83836118a6565b90505b92915050565b611170611a0e565b6001600160a01b031661118161135b565b6001600160a01b0316146111ca576040805162461bcd60e51b81526020600482018190526024820152600080516020612120833981519152604482015290519081900360640190fd5b600080546040516001600160a01b03909116907f8be0079c531659141344cd1fd0a4f28419497f9722a3daafe3b4186f6b6457e0908390a3600080546001600160a01b0319169055565b60075481565b60006002546000148061122e575060025442105b61123a5760025461123c565b425b905090565b630784ce0081565b6000806009838154811061125957fe5b600091825260208083206004928302018054604080516370a0823160e01b81523095810195909552519195506001600160a01b0316926370a08231926024808301939192829003018186803b1580156112b157600080fd5b505afa1580156112c5573d6000803e3d6000fd5b505050506040513d60208110156112db57600080fd5b50519050806112f05750600301549050611356565b61135161134682611340670de0b6b3a764000061133a600b54611340896001015461133a60075461133a8d60020154600014611330578d60020154611332565b425b610ab861121a565b90611b30565b90611ac9565b600384015490611a6f565b925050505b919050565b6000546001600160a01b031690565b600a60209081526000928352604080842090915290825290208054600182015460029092015490919083565b6303c2670081565b6008546001600160a01b031681565b81336000600983815481106113be57fe5b60009182526020808320868452600a825260408085206001600160a01b03881686529092529220600490910290910191506113f884611249565b600383015561140561121a565b60028301556001600160a01b038316156114335761142384846118a6565b6002820155600382015460018201555b6002546114f5576114474262ed4e00611a6f565b60025560015461145a9062ed4e00611ac9565b600755600854600154604080516340c10f1960e01b81523060048201526024810192909252516001600160a01b03909216916340c10f199160448082019260009290919082900301818387803b1580156114b357600080fd5b505af11580156114c7573d6000803e3d6000fd5b505060015460408051918252516000805160206120df8339815191529350908190036020019150a160016003555b60025442101580156115075750600454155b156115c95761151a426301e13380611a6f565b60025560015461152e906301e13380611ac9565b600755600854600154604080516340c10f1960e01b81523060048201526024810192909252516001600160a01b03909216916340c10f199160448082019260009290919082900301818387803b15801561158757600080fd5b505af115801561159b573d6000803e3d6000fd5b505060015460408051918252516000805160206120df8339815191529350908190036020019150a160016004555b60025442101580156115db5750600554155b1561169d576115ee426303c26700611a6f565b600255600154611602906303c26700611ac9565b600755600854600154604080516340c10f1960e01b81523060048201526024810192909252516001600160a01b03909216916340c10f199160448082019260009290919082900301818387803b15801561165b57600080fd5b505af115801561166f573d6000803e3d6000fd5b505060015460408051918252516000805160206120df8339815191529350908190036020019150a160016005555b60025442101580156116af5750600654155b156117f6576116c242630784ce00611a6f565b60025560085460408051635219298960e01b815290516000926001600160a01b0316916352192989916004808301926020929190829003018186803b15801561170a57600080fd5b505afa15801561171e573d6000803e3d6000fd5b505050506040513d602081101561173457600080fd5b505160015490915060009061174e90610aa4906003611b30565b905061175e816303c26700611ac9565b600755600854604080516340c10f1960e01b81523060048201526024810184905290516001600160a01b03909216916340c10f199160448082019260009290919082900301818387803b1580156117b457600080fd5b505af11580156117c8573d6000803e3d6000fd5b50506040805184815290516000805160206120df8339815191529350908190036020019150a1505060016006555b60006009878154811061180557fe5b600091825260208083208a8452600a82526040808520338087529352909320600490920290920192509061183a908990611b89565b8154611851906001600160a01b031633308a611d6c565b805461185d9088611a6f565b8155604080518881529051899133917f90890809c654f11d6e72a28fa60149770a0d11ec6c92319d6ceb2bb0a4ea1a159181900360200190a35050505050505050565b60015481565b6000828152600a602090815260408083206001600160a01b03851684529091528120600281015460018201546118fe91906104ff90670de0b6b3a764000090611340906118f690610ab88b611249565b865490611b30565b949350505050565b60025481565b611914611a0e565b6001600160a01b031661192561135b565b6001600160a01b03161461196e576040805162461bcd60e51b81526020600482018190526024820152600080516020612120833981519152604482015290519081900360640190fd5b6001600160a01b0381166119b35760405162461bcd60e51b81526004018080602001828103825260268152602001806120936026913960400191505060405180910390fd5b600080546040516001600160a01b03808516939216917f8be0079c531659141344cd1fd0a4f28419497f9722a3daafe3b4186f6b6457e091a3600080546001600160a01b0319166001600160a01b0392909216919091179055565b3390565b600082821115611a69576040805162461bcd60e51b815260206004820152601e60248201527f536166654d6174683a207375627472616374696f6e206f766572666c6f770000604482015290519081900360640190fd5b50900390565b60008282018381101561115f576040805162461bcd60e51b815260206004820152601b60248201527f536166654d6174683a206164646974696f6e206f766572666c6f770000000000604482015290519081900360640190fd5b6000808211611b1f576040805162461bcd60e51b815260206004820152601a60248201527f536166654d6174683a206469766973696f6e206279207a65726f000000000000604482015290519081900360640190fd5b818381611b2857fe5b049392505050565b600082611b3f57506000611162565b82820282848281611b4c57fe5b041461115f5760405162461bcd60e51b81526004018080602001828103825260218152602001806120ff6021913960400191505060405180910390fd5b6000828152600a602090815260408083206001600160a01b0385168452909152812090611bb684846118a6565b90508015611d0f57600060028301819055600854604080516370a0823160e01b815230600482015290516001600160a01b03909216916370a0823191602480820192602092909190829003018186803b158015611c1257600080fd5b505afa158015611c26573d6000803e3d6000fd5b505050506040513d6020811015611c3c57600080fd5b5051905080821115611c4c578091505b6008546040805163a9059cbb60e01b81526001600160a01b038781166004830152602482018690529151919092169163a9059cbb9160448083019260209291908290030181600087803b158015611ca257600080fd5b505af1158015611cb6573d6000803e3d6000fd5b505050506040513d6020811015611ccc57600080fd5b50506040805183815290516001600160a01b038616917fe2403640ba68fed3a2f88b7557551d1993f84b99bb10ff833f0cf8db0c5e0486919081900360200190a2505b50505050565b604080516001600160a01b038416602482015260448082018490528251808303909101815260649091019091526020810180516001600160e01b031663a9059cbb60e01b179052611d67908490611dc2565b505050565b604080516001600160a01b0380861660248301528416604482015260648082018490528251808303909101815260849091019091526020810180516001600160e01b03166323b872dd60e01b179052611d0f9085905b6060611e17826040518060400160405280602081526020017f5361666545524332303a206c6f772d6c6576656c2063616c6c206661696c6564815250856001600160a01b0316611e739092919063ffffffff16565b805190915015611d6757808060200190516020811015611e3657600080fd5b5051611d675760405162461bcd60e51b815260040180806020018281038252602a81526020018061216b602a913960400191505060405180910390fd5b6060611e828484600085611e8c565b90505b9392505050565b606082471015611ecd5760405162461bcd60e51b81526004018080602001828103825260268152602001806120b96026913960400191505060405180910390fd5b611ed685611fe8565b611f27576040805162461bcd60e51b815260206004820152601d60248201527f416464726573733a2063616c6c20746f206e6f6e2d636f6e7472616374000000604482015290519081900360640190fd5b60006060866001600160a01b031685876040518082805190602001908083835b60208310611f665780518252601f199092019160209182019101611f47565b6001836020036101000a03801982511681845116808217855250505050505090500191505060006040518083038185875af1925050503d8060008114611fc8576040519150601f19603f3d011682016040523d82523d6000602084013e611fcd565b606091505b5091509150611fdd828286611fee565b979650505050505050565b3b151590565b60608315611ffd575081611e85565b82511561200d5782518084602001fd5b8160405162461bcd60e51b81526004018080602001828103825283818151815260200191508051906020019080838360005b8381101561205757818101518382015260200161203f565b50505050905090810190601f1680156120845780820380516001836020036101000a031916815260200191505b509250505060405180910390fdfe4f776e61626c653a206e6577206f776e657220697320746865207a65726f2061646472657373416464726573733a20696e73756666696369656e742062616c616e636520666f722063616c6cde88a922e0d3b88b24e9623efeb464919c6bf9f66857a65e2bfcf2ce87a9433d536166654d6174683a206d756c7469706c69636174696f6e206f766572666c6f774f776e61626c653a2063616c6c6572206973206e6f7420746865206f776e6572646f206e6f7420616464207468652073616d65206c7020746f6b656e206d6f7265207468616e206f6e63655361666545524332303a204552433230206f7065726174696f6e20646964206e6f742073756363656564a2646970667358221220e89079b7950a21bcae07569f74639c9d67e40d99f8e6f9b60f8a63744041b2ea64736f6c634300060c0033",
  "immutableReferences": {},
  "source": "pragma solidity 0.6.12;\n\nimport \"@openzeppelin/contracts/GSN/Context.sol\";\nimport \"@openzeppelin/contracts/token/ERC20/IERC20.sol\";\nimport \"@openzeppelin/contracts/math/SafeMath.sol\";\nimport \"@openzeppelin/contracts/utils/Address.sol\";\nimport \"@openzeppelin/contracts/token/ERC20/ERC20.sol\";\nimport \"@openzeppelin/contracts/token/ERC20/SafeERC20.sol\";\nimport \"@openzeppelin/contracts/access/Ownable.sol\";\n\nimport \"./NinjaToken.sol\";\n\ncontract NinjaMaster is Ownable {\n    uint256 public constant period1 = 180 days; // about 6 months\n    uint256 public constant period2 = 365 days; // 1 year\n    uint256 public constant period3 = 730 days;  // 2 years\n    uint256 public constant period4 = 1460 days; // 4 years  \n    uint256 public Reward = 200000 * 1e18;\n    uint256 public periodFinish = 0;\n    uint256 Period1Status=0;\n    uint256 Period2Status=0;\n    uint256 Period3Status=0;\n    uint256 Period4Status=0;\n    using SafeMath for uint256;\n    using SafeERC20 for IERC20;\n\n    uint256 public rewardRate = 0;\n\n    // Info of each user.\n    struct UserInfo {\n        uint256 amount;\n        uint256 rewardPerTokenPaid;\n        uint256 rewards;\n    }\n\n    // Info of each pool.\n    struct PoolInfo {\n        IERC20 lpToken;\n        uint256 allocPoint;\n        uint256 lastUpdateTime;\n        uint256 rewardPerTokenStored;\n    }\n\n    // The NINJA TOKEN!\n    NinjaToken public ninja;\n    // Info of each pool.\n    PoolInfo[] public poolInfo;\n    // Info of each user that stakes LP tokens.\n    mapping(uint256 => mapping(address => UserInfo)) public userInfo;\n    // Total allocation poitns. Must be the sum of all allocation points in all pools.\n    uint256 public totalAllocPoint = 0;\n    // add the same LP token only once\n    mapping(address => bool) lpExists;\n\n    event RewardAdded(uint256 reward);\n    event Deposit(address indexed user, uint256 indexed pid, uint256 amount);\n    event Withdraw(address indexed user, uint256 indexed pid, uint256 amount);\n    event RewardPaid(address indexed user, uint256 reward);\n    event EmergencyWithdraw(address indexed user, uint256 indexed pid, uint256 amount);\n\n    constructor(NinjaToken _ninja) public {\n        ninja = _ninja;\n    }\n    modifier reduceHalve() {\n        if (periodFinish == 0) {\n            periodFinish = block.timestamp.add(period1);\n            rewardRate = Reward.div(period1);\n            ninja.mint(address(this), Reward);\n            emit RewardAdded(Reward);\n            Period1Status = 1;\n         } \n         if(block.timestamp >= periodFinish && Period2Status == 0) {\n            periodFinish = block.timestamp.add(period2);\n            rewardRate = Reward.div(period2);\n            ninja.mint(address(this), Reward);\n            emit RewardAdded(Reward);\n            Period2Status = 1;\n        } \n        if(block.timestamp >= periodFinish && Period3Status == 0) {\n            periodFinish = block.timestamp.add(period3);\n            rewardRate = Reward.div(period3);\n            ninja.mint(address(this), Reward);\n            emit RewardAdded(Reward);\n            Period3Status = 1;\n        }   \n        if(block.timestamp >= periodFinish && Period4Status == 0) {\n            periodFinish = block.timestamp.add(period4);\n            // calcualte 4th reward as AMO added 0.1x in wallet \n            uint256 masterChefWallet = ninja.masterChefWallet();\n            // add 800k in wallet and minus 3 previous rewards\n            uint256 reward4th = masterChefWallet.add(800000000000000000000000).sub(Reward.mul(3));\n            rewardRate = reward4th.div(period3);\n            ninja.mint(address(this), reward4th);\n            emit RewardAdded(reward4th);\n            Period4Status = 1;\n        }      \n        _;\n    }\n\n \n\n    modifier updateReward(uint256 _pid, address _user) {\n        PoolInfo storage pool = poolInfo[_pid];\n        UserInfo storage user = userInfo[_pid][_user];\n\n        pool.rewardPerTokenStored = rewardPerToken(_pid);\n        pool.lastUpdateTime = lastTimeRewardApplicable();\n        if (_user != address(0)) {\n            user.rewards = earned(_pid, _user);\n            user.rewardPerTokenPaid = pool.rewardPerTokenStored;\n        }\n        _;\n    }\n\n    function lastTimeRewardApplicable() public view returns (uint256) {\n        return (periodFinish == 0 || block.timestamp < periodFinish) ? block.timestamp : periodFinish;\n    }\n\n    function rewardPerToken(uint256 _pid) public view returns (uint256) {\n        PoolInfo storage pool = poolInfo[_pid];\n        uint256 lpSupply = pool.lpToken.balanceOf(address(this));\n        if (lpSupply == 0) {\n            return pool.rewardPerTokenStored;\n        }\n        return pool.rewardPerTokenStored.add(\n            lastTimeRewardApplicable()\n            .sub(pool.lastUpdateTime == 0 ? block.timestamp : pool.lastUpdateTime)\n            .mul(rewardRate)\n            .mul(pool.allocPoint)\n            .div(totalAllocPoint)\n            .mul(1e18)\n            .div(lpSupply)\n        );\n    }\n\n    function earned(uint256 _pid, address _user) public view returns (uint256) {\n        UserInfo storage user = userInfo[_pid][_user];\n        return user.amount\n        .mul(rewardPerToken(_pid).sub(user.rewardPerTokenPaid))\n        .div(1e18)\n        .add(user.rewards);\n    }\n\n    // Add a new lp to the pool. Can only be called by the owner.\n    function add(uint256 _allocPoint, IERC20 _lpToken) public onlyOwner {\n        require(!lpExists[address(_lpToken)], \"do not add the same lp token more than once\");\n\n        totalAllocPoint = totalAllocPoint.add(_allocPoint);\n        poolInfo.push(PoolInfo({\n            lpToken : _lpToken,\n            allocPoint : _allocPoint,\n            lastUpdateTime : 0,\n            rewardPerTokenStored : 0\n            }));\n\n        lpExists[address(_lpToken)] = true;\n    }\n\n    function poolLength() external view returns (uint256) {\n        return poolInfo.length;\n    }\n\n    // Update the given pool's NINJA allocation point. Can only be called by the owner.\n    function set(uint256 _pid, uint256 _allocPoint) public onlyOwner {\n        totalAllocPoint = totalAllocPoint.sub(poolInfo[_pid].allocPoint).add(_allocPoint);\n        poolInfo[_pid].allocPoint = _allocPoint;\n    }\n\n    // View function to see pending NINJAs on frontend.\n    function pendingNINJA(uint256 _pid, address _user) external view returns (uint256) {\n        return earned(_pid, _user);\n    }\n\n    function _getReward(uint256 _pid, address _user) private {\n        UserInfo storage user = userInfo[_pid][_user];\n        uint256 reward = earned(_pid, _user);\n        if (reward > 0) {\n            user.rewards = 0;\n            uint256 ninjaBal = ninja.balanceOf(address(this));\n            if (reward > ninjaBal) {\n                reward = ninjaBal;\n            }\n            ninja.transfer(_user, reward);\n            emit RewardPaid(_user, reward);\n        }\n    }\n\n    // Deposit LP tokens to MasterChef for NINJA allocation.\n    function deposit(uint256 _pid, uint256 _amount) public updateReward(_pid, msg.sender) reduceHalve {\n        PoolInfo storage pool = poolInfo[_pid];\n        UserInfo storage user = userInfo[_pid][msg.sender];\n        _getReward(_pid, msg.sender);\n        pool.lpToken.safeTransferFrom(address(msg.sender), address(this), _amount);\n        user.amount = user.amount.add(_amount);\n        emit Deposit(msg.sender, _pid, _amount);\n    }\n\n    // Withdraw LP tokens from MasterChef.\n    function withdraw(uint256 _pid, uint256 _amount) public updateReward(_pid, msg.sender) reduceHalve {\n        PoolInfo storage pool = poolInfo[_pid];\n        UserInfo storage user = userInfo[_pid][msg.sender];\n        require(user.amount >= _amount, \"withdraw: not good\");\n        _getReward(_pid, msg.sender);\n        user.amount = user.amount.sub(_amount);\n        pool.lpToken.safeTransfer(address(msg.sender), _amount);\n        emit Withdraw(msg.sender, _pid, _amount);\n    }\n\n    // withdraw reward only.\n    function withdrawReward(uint256 _pid) public updateReward(_pid, msg.sender) reduceHalve {\n        _getReward(_pid, msg.sender);\n    }\n\n    // Withdraw without caring about rewards. EMERGENCY ONLY.\n    function emergencyWithdraw(uint256 _pid) public {\n        PoolInfo storage pool = poolInfo[_pid];\n        UserInfo storage user = userInfo[_pid][msg.sender];\n        pool.lpToken.safeTransfer(address(msg.sender), user.amount);\n        emit EmergencyWithdraw(msg.sender, _pid, user.amount);\n        user.amount = 0;\n        user.rewards = 0;\n    }\n\n}",
  "sourcePath": "/home/zawaz/Desktop/ninjaswap-core/contracts/NinjaMaster.sol",
  "compiler": {
    "name": "solc",
    "version": "0.6.12+commit.27d51765.Emscripten.clang"
  },
  "schemaVersion": "3.3.4",
  "updatedAt": "2021-07-05T07:15:34.127Z",
  "devdoc": {
    "kind": "dev",
    "methods": {
      "owner()": {
        "details": "Returns the address of the current owner."
      },
      "renounceOwnership()": {
        "details": "Leaves the contract without owner. It will not be possible to call `onlyOwner` functions anymore. Can only be called by the current owner. NOTE: Renouncing ownership will leave the contract without an owner, thereby removing any functionality that is only available to the owner."
      },
      "transferOwnership(address)": {
        "details": "Transfers ownership of the contract to a new account (`newOwner`). Can only be called by the current owner."
      }
    },
    "version": 1
  },
  "userdoc": {
    "kind": "user",
    "methods": {},
    "version": 1
  }
}