{
  "contractName": "NinjaAMO",
  "abi": [
    {
      "inputs": [
        {
          "internalType": "contract IBondingCurve",
          "name": "_curve",
          "type": "address"
        },
        {
          "internalType": "contract NinjaToken",
          "name": "_ninja",
          "type": "address"
        },
        {
          "internalType": "address payable",
          "name": "_treasury",
          "type": "address"
        }
      ],
      "stateMutability": "nonpayable",
      "type": "constructor"
    },
    {
      "anonymous": false,
      "inputs": [
        {
          "indexed": false,
          "internalType": "address",
          "name": "sender",
          "type": "address"
        },
        {
          "indexed": false,
          "internalType": "uint256",
          "name": "amount",
          "type": "uint256"
        },
        {
          "indexed": false,
          "internalType": "uint256",
          "name": "deposit",
          "type": "uint256"
        }
      ],
      "name": "Minted",
      "type": "event"
    },
    {
      "anonymous": false,
      "inputs": [
        {
          "indexed": true,
          "internalType": "address",
          "name": "previousOwner",
          "type": "address"
        },
        {
          "indexed": true,
          "internalType": "address",
          "name": "newOwner",
          "type": "address"
        }
      ],
      "name": "OwnershipTransferred",
      "type": "event"
    },
    {
      "anonymous": false,
      "inputs": [
        {
          "indexed": true,
          "internalType": "address",
          "name": "beneficiary",
          "type": "address"
        },
        {
          "indexed": true,
          "internalType": "address",
          "name": "account",
          "type": "address"
        },
        {
          "indexed": false,
          "internalType": "uint256",
          "name": "amount",
          "type": "uint256"
        }
      ],
      "name": "ReferrerEarned",
      "type": "event"
    },
    {
      "inputs": [],
      "name": "CURVE",
      "outputs": [
        {
          "internalType": "contract IBondingCurve",
          "name": "",
          "type": "address"
        }
      ],
      "stateMutability": "view",
      "type": "function"
    },
    {
      "inputs": [],
      "name": "NINJA",
      "outputs": [
        {
          "internalType": "contract NinjaToken",
          "name": "",
          "type": "address"
        }
      ],
      "stateMutability": "view",
      "type": "function"
    },
    {
      "inputs": [
        {
          "internalType": "address",
          "name": "",
          "type": "address"
        }
      ],
      "name": "bonus",
      "outputs": [
        {
          "internalType": "uint256",
          "name": "count",
          "type": "uint256"
        },
        {
          "internalType": "uint256",
          "name": "amount",
          "type": "uint256"
        }
      ],
      "stateMutability": "view",
      "type": "function"
    },
    {
      "inputs": [
        {
          "internalType": "address",
          "name": "",
          "type": "address"
        }
      ],
      "name": "deposits",
      "outputs": [
        {
          "internalType": "uint256",
          "name": "",
          "type": "uint256"
        }
      ],
      "stateMutability": "view",
      "type": "function"
    },
    {
      "inputs": [],
      "name": "hardcap",
      "outputs": [
        {
          "internalType": "uint256",
          "name": "",
          "type": "uint256"
        }
      ],
      "stateMutability": "view",
      "type": "function"
    },
    {
      "inputs": [],
      "name": "owner",
      "outputs": [
        {
          "internalType": "address",
          "name": "",
          "type": "address"
        }
      ],
      "stateMutability": "view",
      "type": "function"
    },
    {
      "inputs": [],
      "name": "renounceOwnership",
      "outputs": [],
      "stateMutability": "nonpayable",
      "type": "function"
    },
    {
      "inputs": [],
      "name": "reserveRatio",
      "outputs": [
        {
          "internalType": "uint32",
          "name": "",
          "type": "uint32"
        }
      ],
      "stateMutability": "view",
      "type": "function"
    },
    {
      "inputs": [],
      "name": "softcap",
      "outputs": [
        {
          "internalType": "uint256",
          "name": "",
          "type": "uint256"
        }
      ],
      "stateMutability": "view",
      "type": "function"
    },
    {
      "inputs": [],
      "name": "totalNinjaSold",
      "outputs": [
        {
          "internalType": "uint256",
          "name": "",
          "type": "uint256"
        }
      ],
      "stateMutability": "view",
      "type": "function"
    },
    {
      "inputs": [
        {
          "internalType": "address",
          "name": "newOwner",
          "type": "address"
        }
      ],
      "name": "transferOwnership",
      "outputs": [],
      "stateMutability": "nonpayable",
      "type": "function"
    },
    {
      "inputs": [],
      "name": "treasury",
      "outputs": [
        {
          "internalType": "address payable",
          "name": "",
          "type": "address"
        }
      ],
      "stateMutability": "view",
      "type": "function"
    },
    {
      "inputs": [],
      "name": "virtualBalance",
      "outputs": [
        {
          "internalType": "uint256",
          "name": "",
          "type": "uint256"
        }
      ],
      "stateMutability": "view",
      "type": "function"
    },
    {
      "inputs": [],
      "name": "virtualSupply",
      "outputs": [
        {
          "internalType": "uint256",
          "name": "",
          "type": "uint256"
        }
      ],
      "stateMutability": "view",
      "type": "function"
    },
    {
      "stateMutability": "payable",
      "type": "receive"
    },
    {
      "inputs": [
        {
          "internalType": "uint256",
          "name": "_softcap",
          "type": "uint256"
        },
        {
          "internalType": "uint256",
          "name": "_hardcap",
          "type": "uint256"
        }
      ],
      "name": "initialize",
      "outputs": [],
      "stateMutability": "nonpayable",
      "type": "function"
    },
    {
      "inputs": [
        {
          "internalType": "uint256",
          "name": "_deposit",
          "type": "uint256"
        }
      ],
      "name": "buy",
      "outputs": [],
      "stateMutability": "payable",
      "type": "function"
    },
    {
      "inputs": [
        {
          "internalType": "address",
          "name": "_referrer",
          "type": "address"
        },
        {
          "internalType": "uint256",
          "name": "_deposit",
          "type": "uint256"
        }
      ],
      "name": "buyWithRef",
      "outputs": [],
      "stateMutability": "payable",
      "type": "function"
    },
    {
      "inputs": [
        {
          "internalType": "uint256",
          "name": "_reserveTokenAmount",
          "type": "uint256"
        }
      ],
      "name": "getEstimatedContinuousMintReward",
      "outputs": [
        {
          "internalType": "uint256",
          "name": "",
          "type": "uint256"
        }
      ],
      "stateMutability": "view",
      "type": "function"
    },
    {
      "inputs": [
        {
          "internalType": "address payable",
          "name": "_treasury",
          "type": "address"
        }
      ],
      "name": "updateTreasuryAdd",
      "outputs": [],
      "stateMutability": "nonpayable",
      "type": "function"
    },
    {
      "inputs": [],
      "name": "withdrawBNB",
      "outputs": [],
      "stateMutability": "nonpayable",
      "type": "function"
    }
  ],
  "bytecode": "0x6080604052678ac7230489e800006005556006805463ffffffff1916620186a017905569fe1c215e8f838e00000060075534801561003c57600080fd5b506040516113463803806113468339818101604052606081101561005f57600080fd5b5080516020820151604090920151909190600061007a610106565b600080546001600160a01b0319166001600160a01b0383169081178255604051929350917f8be0079c531659141344cd1fd0a4f28419497f9722a3daafe3b4186f6b6457e0908290a350600380546001600160a01b039485166001600160a01b03199182161790915560048054938516938216939093179092556009805491909316911617905561010a565b3390565b61122d806101196000396000f3fe6080604052600436106101225760003560e01c80638da5cb5b116100a0578063e4a3011611610064578063e4a3011614610342578063e69e87ac14610372578063f2fde38b14610387578063f89be593146103ba578063fc7e286d146103cf57610132565b80638da5cb5b1461029a578063b071cbe6146102af578063d8cb4aa3146102c4578063d96a094a14610310578063dcd2af171461032d57610132565b80633a3c3b87116100e75780633a3c3b87146101e05780633f550dd91461021157806345f316ae1461023d57806361d027b314610270578063715018a61461028557610132565b8062478c5b146101375780630ae56c73146101735780630c7d5cd8146101885780631d111d13146101b6578063277b2f97146101cb57610132565b366101325761013034610402565b005b600080fd5b34801561014357600080fd5b506101616004803603602081101561015a57600080fd5b50356106ce565b60408051918252519081900360200190f35b34801561017f57600080fd5b5061016161076f565b34801561019457600080fd5b5061019d610775565b6040805163ffffffff9092168252519081900360200190f35b3480156101c257600080fd5b50610130610781565b3480156101d757600080fd5b50610161610829565b3480156101ec57600080fd5b506101f561082f565b604080516001600160a01b039092168252519081900360200190f35b6101306004803603604081101561022757600080fd5b506001600160a01b03813516906020013561083e565b34801561024957600080fd5b506101306004803603602081101561026057600080fd5b50356001600160a01b0316610c52565b34801561027c57600080fd5b506101f5610cd6565b34801561029157600080fd5b50610130610ce5565b3480156102a657600080fd5b506101f5610d91565b3480156102bb57600080fd5b50610161610da0565b3480156102d057600080fd5b506102f7600480360360208110156102e757600080fd5b50356001600160a01b0316610da6565b6040805192835260208301919091528051918290030190f35b6101306004803603602081101561032657600080fd5b5035610402565b34801561033957600080fd5b50610161610dbf565b34801561034e57600080fd5b506101306004803603604081101561036557600080fd5b5080359060200135610dc5565b34801561037e57600080fd5b506101f5610ef1565b34801561039357600080fd5b50610130600480360360208110156103aa57600080fd5b50356001600160a01b0316610f00565b3480156103c657600080fd5b50610161611002565b3480156103db57600080fd5b50610161600480360360208110156103f257600080fd5b50356001600160a01b0316611008565b600254600854106104445760405162461bcd60e51b815260040180806020018281038252602b815260200180611168602b913960400191505060405180910390fd5b80341461045057600080fd5b3361045a57600080fd5b600081116104af576040805162461bcd60e51b815260206004820152601e60248201527f4465706f736974204d7573742047726561746572207468656e207a65726f0000604482015290519081900360640190fd5b60006104ba826106ce565b905060006104d460646104ce84601e61101a565b9061107c565b905060006104e860646104ce85600a61101a565b60048054604080516340c10f1960e01b8152339381019390935260248301879052519293506001600160a01b0316916340c10f199160448082019260009290919082900301818387803b15801561053e57600080fd5b505af1158015610552573d6000803e3d6000fd5b50506004805460408051633f61796560e11b8152928301869052516001600160a01b039091169350637ec2f2ca9250602480830192600092919082900301818387803b1580156105a157600080fd5b505af11580156105b5573d6000803e3d6000fd5b505060048054600954604080516340c10f1960e01b81526001600160a01b03928316948101949094526024840188905251911693506340c10f199250604480830192600092919082900301818387803b15801561061157600080fd5b505af1158015610625573d6000803e3d6000fd5b505060055461063792509050856110e3565b60055560075461064790846110e3565b60075560085461065790846110e3565b600855336000908152600a602052604090205461067490856110e3565b336000818152600a602090815260409182902093909355805191825291810185905280820186905290517f25b428dfde728ccfaddad7e29e4ac23c24ed7fd1a6e3e3f91894a9a073f5dfff9181900360600190a150505050565b60035460075460055460065460408051630a68039f60e21b81526004810194909452602484019290925263ffffffff16604483015260648201849052516000926001600160a01b0316916329a00e7c916084808301926020929190829003018186803b15801561073d57600080fd5b505afa158015610751573d6000803e3d6000fd5b505050506040513d602081101561076757600080fd5b505192915050565b60085481565b60065463ffffffff1681565b61078961113d565b6001600160a01b031661079a610d91565b6001600160a01b0316146107e3576040805162461bcd60e51b815260206004820181905260248201526000805160206111b4833981519152604482015290519081900360640190fd5b478015610826576009546040516001600160a01b039091169082156108fc029083906000818181858888f19350505050158015610824573d6000803e3d6000fd5b505b50565b60075481565b6003546001600160a01b031681565b600254600854106108805760405162461bcd60e51b815260040180806020018281038252602b815260200180611168602b913960400191505060405180910390fd5b80341461088c57600080fd5b3361089657600080fd5b600081116108eb576040805162461bcd60e51b815260206004820152601e60248201527f4465706f736974204d7573742047726561746572207468656e207a65726f0000604482015290519081900360640190fd5b6001600160a01b038216610946576040805162461bcd60e51b815260206004820152601860248201527f526566657272616c20636f646520697320696e76616c69640000000000000000604482015290519081900360640190fd5b6001600160a01b03821633141561098e5760405162461bcd60e51b81526004018080602001828103825260248152602001806111d46024913960400191505060405180910390fd5b6000610999826106ce565b905060006109ad60646104ce84601e61101a565b905060006109c160646104ce85600a61101a565b60048054604080516340c10f1960e01b8152339381019390935260248301879052519293506001600160a01b0316916340c10f199160448082019260009290919082900301818387803b158015610a1757600080fd5b505af1158015610a2b573d6000803e3d6000fd5b505060048054604080516340c10f1960e01b81526001600160a01b038b8116948201949094526024810187905290519290911693506340c10f19925060448082019260009290919082900301818387803b158015610a8857600080fd5b505af1158015610a9c573d6000803e3d6000fd5b505060048054600954604080516340c10f1960e01b81526001600160a01b03928316948101949094526024840188905251911693506340c10f199250604480830192600092919082900301818387803b158015610af857600080fd5b505af1158015610b0c573d6000803e3d6000fd5b5050600554610b1e92509050856110e3565b600555600754610b2e90846110e3565b600755600854610b3e90846110e3565b600855336000908152600a6020526040902054610b5b90856110e3565b336000908152600a60209081526040808320939093556001600160a01b0388168252600b90522054610b8e9060016110e3565b6001600160a01b0386166000908152600b6020526040902090815560010154610bb790826110e3565b6001600160a01b0386166000818152600b6020908152604091829020600101939093558051848152905133937f43cf41831fc24bf8fb2d20fc28d9390003ee2b6a2e7a8b9d87c628d18c247a74928290030190a3604080513381526020810185905280820186905290517f25b428dfde728ccfaddad7e29e4ac23c24ed7fd1a6e3e3f91894a9a073f5dfff9181900360600190a15050505050565b610c5a61113d565b6001600160a01b0316610c6b610d91565b6001600160a01b031614610cb4576040805162461bcd60e51b815260206004820181905260248201526000805160206111b4833981519152604482015290519081900360640190fd5b600980546001600160a01b0319166001600160a01b0392909216919091179055565b6009546001600160a01b031681565b610ced61113d565b6001600160a01b0316610cfe610d91565b6001600160a01b031614610d47576040805162461bcd60e51b815260206004820181905260248201526000805160206111b4833981519152604482015290519081900360640190fd5b600080546040516001600160a01b03909116907f8be0079c531659141344cd1fd0a4f28419497f9722a3daafe3b4186f6b6457e0908390a3600080546001600160a01b0319169055565b6000546001600160a01b031690565b60025481565b600b602052600090815260409020805460019091015482565b60055481565b610dcd61113d565b6001600160a01b0316610dde610d91565b6001600160a01b031614610e27576040805162461bcd60e51b815260206004820181905260248201526000805160206111b4833981519152604482015290519081900360640190fd5b69d3c21bcecceda1000000821115610e86576040805162461bcd60e51b815260206004820152601f60248201527f4d6178696d756d20736f667463617020314d206e696e6a6120546f6b656e7300604482015290519081900360640190fd5b6a01a784379d99db42000000811115610ee6576040805162461bcd60e51b815260206004820152601f60248201527f4d6178696d756d206861726463617020324d206e696e6a6120546f6b656e7300604482015290519081900360640190fd5b600191909155600255565b6004546001600160a01b031681565b610f0861113d565b6001600160a01b0316610f19610d91565b6001600160a01b031614610f62576040805162461bcd60e51b815260206004820181905260248201526000805160206111b4833981519152604482015290519081900360640190fd5b6001600160a01b038116610fa75760405162461bcd60e51b81526004018080602001828103825260268152602001806111426026913960400191505060405180910390fd5b600080546040516001600160a01b03808516939216917f8be0079c531659141344cd1fd0a4f28419497f9722a3daafe3b4186f6b6457e091a3600080546001600160a01b0319166001600160a01b0392909216919091179055565b60015481565b600a6020526000908152604090205481565b60008261102957506000611076565b8282028284828161103657fe5b04146110735760405162461bcd60e51b81526004018080602001828103825260218152602001806111936021913960400191505060405180910390fd5b90505b92915050565b60008082116110d2576040805162461bcd60e51b815260206004820152601a60248201527f536166654d6174683a206469766973696f6e206279207a65726f000000000000604482015290519081900360640190fd5b8183816110db57fe5b049392505050565b600082820183811015611073576040805162461bcd60e51b815260206004820152601b60248201527f536166654d6174683a206164646974696f6e206f766572666c6f770000000000604482015290519081900360640190fd5b339056fe4f776e61626c653a206e6577206f776e657220697320746865207a65726f20616464726573734e696e6a61414d4f2053746f70706564203a2053616c657320726561636865642061742068617264636170536166654d6174683a206d756c7469706c69636174696f6e206f766572666c6f774f776e61626c653a2063616c6c6572206973206e6f7420746865206f776e6572596f752063616e27742075736520796f7572206f776e20726566657272616c20636f6465a2646970667358221220a6590e51731b89f70c2ee6e1ccb0cfccd168a806c9a562c5fc37e3b3695c55db64736f6c634300060c0033",
  "immutableReferences": {},
  "source": "// SPDX-License-Identifier: MIT\n\npragma solidity ^0.6.0;\n\nimport \"./BondingCurve/IBondingCurve.sol\";\nimport \"./NinjaToken.sol\";\n\ncontract NinjaAMO is Ownable {\n    using SafeMath for uint256;\n\n    uint256 public softcap; //Max 1M Ninja tokens soft cap\n    uint256 public hardcap; //Max 2M Ninja tokens hard cap\n    IBondingCurve public CURVE;\n    NinjaToken public NINJA;\n    uint256 public virtualBalance = 10000000000000000000; //virtual start with 10 BNB to adjust price for Curve\n    uint32 public reserveRatio = 100000; // 100 000 ppm = %10 Connector Weight\n    uint256 public virtualSupply = 1200000000000000000000000; //virtual supply as 1200000 minted already\n    uint256 public totalNinjaSold;\n    address payable public treasury;\n\n\n    struct ReferralBonus {\n        uint256 count;\n        uint256 amount;\n    }\n\n    mapping(address => uint256) public deposits;\n    mapping(address => ReferralBonus) public bonus;\n\n    event ReferrerEarned(\n        address indexed beneficiary,\n        address indexed account,\n        uint256 amount\n    );\n    event Minted(address sender, uint256 amount, uint256 deposit);\n    constructor(\n        IBondingCurve _curve,\n        NinjaToken _ninja,\n        address payable _treasury\n    ) public {\n        CURVE = _curve;\n        NINJA = _ninja;\n        treasury = _treasury;                       \n    }\n\n    receive() external payable {\n        buy(msg.value);\n    }\n    function initialize(uint256 _softcap, uint256 _hardcap) public onlyOwner {\n        require(_softcap <= 1000000000000000000000000, \"Maximum softcap 1M ninja Tokens\");\n        require(_hardcap <= 2000000000000000000000000, \"Maximum hardcap 2M ninja Tokens\");\n        softcap = _softcap;\n        hardcap = _hardcap;    \n    }\n    // simple buy without Referral\n    function buy(uint256 _deposit) public payable whenHardCapNotReached {\n        require(msg.value == _deposit);\n        require(msg.sender != address(0));\n        require(_deposit > 0, \"Deposit Must Greater then zero\");\n        uint256 estimate = getEstimatedContinuousMintReward(_deposit);\n        uint256 _teamShare = estimate.mul(30).div(100); // 0.3x \n        uint256 _refferalShare = estimate.mul(10).div(100); // 0.1x \n        NINJA.mint(msg.sender, estimate);\n        NINJA.addRewardMWallet(_refferalShare);\n        NINJA.mint(treasury, _teamShare);\n        virtualBalance = virtualBalance.add(_deposit);\n        virtualSupply = virtualSupply.add(estimate);\n        totalNinjaSold = totalNinjaSold.add(estimate);\n        deposits[msg.sender] = deposits[msg.sender].add(_deposit);\n        emit Minted(msg.sender, estimate, _deposit);\n    }\n\n    //buy with Refferral\n    function buyWithRef(address _referrer, uint256 _deposit)\n        public\n        payable\n        whenHardCapNotReached\n    {\n        require(msg.value == _deposit);\n        require(msg.sender != address(0));\n        require(_deposit > 0, \"Deposit Must Greater then zero\");\n        require(_referrer != address(0), \"Referral code is invalid\");\n        require(_referrer != msg.sender,\"You can't use your own referral code\");\n        uint256 estimate = getEstimatedContinuousMintReward(_deposit);\n        uint256 _teamShare = estimate.mul(30).div(100); // 0.3x \n        uint256 _refferalShare = estimate.mul(10).div(100); // 0.1x \n        NINJA.mint(msg.sender, estimate);\n        NINJA.mint(_referrer, _refferalShare);\n        NINJA.mint(treasury, _teamShare);\n        virtualBalance = virtualBalance.add(_deposit);\n        virtualSupply = virtualSupply.add(estimate);\n        totalNinjaSold = totalNinjaSold.add(estimate);\n        deposits[msg.sender] = deposits[msg.sender].add(_deposit);\n        bonus[_referrer].count = bonus[_referrer].count.add(1);\n        bonus[_referrer].amount = bonus[_referrer].amount.add(_refferalShare);\n        emit ReferrerEarned(_referrer, msg.sender, _refferalShare);\n        emit Minted(msg.sender, estimate, _deposit);\n    }\n    function getEstimatedContinuousMintReward(uint256 _reserveTokenAmount)\n        public\n        view\n        returns (uint256)\n    {\n        return\n            CURVE.calculatePurchaseReturn(\n                virtualSupply,\n                virtualBalance,\n                reserveRatio,\n                _reserveTokenAmount\n            );\n    }\n\n    function updateTreasuryAdd(address payable _treasury) public onlyOwner {\n        treasury = _treasury;\n    }\n\n    function withdrawBNB() public onlyOwner {\n        uint256 BnbBal = address(this).balance;\n        if (BnbBal > 0) {\n            treasury.transfer(BnbBal);\n        }\n    }\n    modifier whenHardCapNotReached() {\n        require(\n            totalNinjaSold < hardcap,\n            \"NinjaAMO Stopped : Sales reached at hardcap\"\n        );\n        _;\n    }\n\n}\n",
  "sourcePath": "/home/adeel/Desktop/ninjaswap-core/contracts/NinjaAMO.sol",
  "compiler": {
    "name": "solc",
    "version": "0.6.12+commit.27d51765.Emscripten.clang"
  },
  "schemaVersion": "3.3.4",
  "updatedAt": "2021-02-26T04:52:10.174Z",
  "devdoc": {
    "kind": "dev",
    "methods": {
      "owner()": {
        "details": "Returns the address of the current owner."
      },
      "renounceOwnership()": {
        "details": "Leaves the contract without owner. It will not be possible to call `onlyOwner` functions anymore. Can only be called by the current owner. NOTE: Renouncing ownership will leave the contract without an owner, thereby removing any functionality that is only available to the owner."
      },
      "transferOwnership(address)": {
        "details": "Transfers ownership of the contract to a new account (`newOwner`). Can only be called by the current owner."
      }
    },
    "version": 1
  },
  "userdoc": {
    "kind": "user",
    "methods": {},
    "version": 1
  }
}