{
  "contractName": "NinjaTeam",
  "abi": [
    {
      "inputs": [
        {
          "internalType": "address payable",
          "name": "_Donatello",
          "type": "address"
        },
        {
          "internalType": "address payable",
          "name": "_Raphael",
          "type": "address"
        },
        {
          "internalType": "address payable",
          "name": "_Michelangelo",
          "type": "address"
        },
        {
          "internalType": "address payable",
          "name": "_Leonardo",
          "type": "address"
        },
        {
          "internalType": "contract IERC20",
          "name": "_ninja",
          "type": "address"
        }
      ],
      "stateMutability": "nonpayable",
      "type": "constructor"
    },
    {
      "inputs": [],
      "name": "Donatello",
      "outputs": [
        {
          "internalType": "address payable",
          "name": "",
          "type": "address"
        }
      ],
      "stateMutability": "view",
      "type": "function"
    },
    {
      "inputs": [],
      "name": "Leonardo",
      "outputs": [
        {
          "internalType": "address payable",
          "name": "",
          "type": "address"
        }
      ],
      "stateMutability": "view",
      "type": "function"
    },
    {
      "inputs": [],
      "name": "Michelangelo",
      "outputs": [
        {
          "internalType": "address payable",
          "name": "",
          "type": "address"
        }
      ],
      "stateMutability": "view",
      "type": "function"
    },
    {
      "inputs": [],
      "name": "NINJA",
      "outputs": [
        {
          "internalType": "contract IERC20",
          "name": "",
          "type": "address"
        }
      ],
      "stateMutability": "view",
      "type": "function"
    },
    {
      "inputs": [],
      "name": "Raphael",
      "outputs": [
        {
          "internalType": "address payable",
          "name": "",
          "type": "address"
        }
      ],
      "stateMutability": "view",
      "type": "function"
    },
    {
      "inputs": [
        {
          "internalType": "address payable",
          "name": "_Donatello",
          "type": "address"
        }
      ],
      "name": "updateDonatelloAdd",
      "outputs": [],
      "stateMutability": "nonpayable",
      "type": "function"
    },
    {
      "inputs": [
        {
          "internalType": "address payable",
          "name": "_Raphael",
          "type": "address"
        }
      ],
      "name": "updateRaphaelAdd",
      "outputs": [],
      "stateMutability": "nonpayable",
      "type": "function"
    },
    {
      "inputs": [
        {
          "internalType": "address payable",
          "name": "_Michelangelo",
          "type": "address"
        }
      ],
      "name": "updateMichelangeloAdd",
      "outputs": [],
      "stateMutability": "nonpayable",
      "type": "function"
    },
    {
      "inputs": [
        {
          "internalType": "address payable",
          "name": "_Leonardo",
          "type": "address"
        }
      ],
      "name": "updateLeonardoAdd",
      "outputs": [],
      "stateMutability": "nonpayable",
      "type": "function"
    },
    {
      "inputs": [],
      "name": "withdrawBNB",
      "outputs": [],
      "stateMutability": "nonpayable",
      "type": "function"
    },
    {
      "inputs": [],
      "name": "withdrawNINJA",
      "outputs": [],
      "stateMutability": "nonpayable",
      "type": "function"
    },
    {
      "inputs": [
        {
          "internalType": "address",
          "name": "newNinja",
          "type": "address"
        }
      ],
      "name": "updateNinjaAdd",
      "outputs": [],
      "stateMutability": "nonpayable",
      "type": "function"
    }
  ],
  "bytecode": "0x608060405234801561001057600080fd5b50604051610ec9380380610ec9833981810160405260a081101561003357600080fd5b508051602082015160408301516060840151608090940151600080546001600160a01b039586166001600160a01b03199182161790915560018054948616948216949094179093556002805492851692841692909217909155600380549484169483169490941790935560048054929093169116179055610e10806100b96000396000f3fe608060405234801561001057600080fd5b50600436106100b45760003560e01c8063ab3b2abb11610071578063ab3b2abb14610161578063ca13453114610187578063d3bcf6d1146101ad578063e69e87ac146101b5578063eb5392ff146101bd578063ed7259db146101c5576100b4565b806315447d08146100b95780631d111d13146100e15780632f1b19bf146100e957806337378b30146100f1578063526cfddf146101175780635c91bdd01461013d575b600080fd5b6100df600480360360208110156100cf57600080fd5b50356001600160a01b03166101cd565b005b6100df61027d565b6100df61042a565b6100df6004803603602081101561010757600080fd5b50356001600160a01b03166105c0565b6100df6004803603602081101561012d57600080fd5b50356001600160a01b0316610670565b610145610720565b604080516001600160a01b039092168252519081900360200190f35b6100df6004803603602081101561017757600080fd5b50356001600160a01b031661072f565b6100df6004803603602081101561019d57600080fd5b50356001600160a01b03166107df565b6101456108ea565b6101456108f9565b610145610908565b610145610917565b6000546001600160a01b03163314806101f057506001546001600160a01b031633145b8061020557506002546001600160a01b031633145b8061021a57506003546001600160a01b031633145b61025b576040805162461bcd60e51b815260206004820152600d60248201526c2737902832b936b4b9b9b4b7b760991b604482015290519081900360640190fd5b600380546001600160a01b0319166001600160a01b0392909216919091179055565b6000546001600160a01b03163314806102a057506001546001600160a01b031633145b806102b557506002546001600160a01b031633145b806102ca57506003546001600160a01b031633145b61030b576040805162461bcd60e51b815260206004820152600d60248201526c2737902832b936b4b9b9b4b7b760991b604482015290519081900360640190fd5b476000610324606461031e84601e610926565b90610988565b90506000610338606461031e85600a610926565b600080546040519293506001600160a01b03169184156108fc0291859190818181858888f19350505050158015610373573d6000803e3d6000fd5b506001546040516001600160a01b039091169083156108fc029084906000818181858888f193505050501580156103ae573d6000803e3d6000fd5b506002546040516001600160a01b039091169083156108fc029084906000818181858888f193505050501580156103e9573d6000803e3d6000fd5b506003546040516001600160a01b039091169082156108fc029083906000818181858888f19350505050158015610424573d6000803e3d6000fd5b50505050565b6000546001600160a01b031633148061044d57506001546001600160a01b031633145b8061046257506002546001600160a01b031633145b8061047757506003546001600160a01b031633145b6104b8576040805162461bcd60e51b815260206004820152600d60248201526c2737902832b936b4b9b9b4b7b760991b604482015290519081900360640190fd5b60048054604080516370a0823160e01b81523093810193909352516000926001600160a01b03909216916370a08231916024808301926020929190829003018186803b15801561050757600080fd5b505afa15801561051b573d6000803e3d6000fd5b505050506040513d602081101561053157600080fd5b505190506000610548606461031e8461014d610926565b9050600061056161055a836002610926565b84906109ef565b600054600454919250610581916001600160a01b03908116911684610a4c565b60015460045461059e916001600160a01b03918216911684610a4c565b6002546004546105bb916001600160a01b03918216911683610a4c565b505050565b6000546001600160a01b03163314806105e357506001546001600160a01b031633145b806105f857506002546001600160a01b031633145b8061060d57506003546001600160a01b031633145b61064e576040805162461bcd60e51b815260206004820152600d60248201526c2737902832b936b4b9b9b4b7b760991b604482015290519081900360640190fd5b600080546001600160a01b0319166001600160a01b0392909216919091179055565b6000546001600160a01b031633148061069357506001546001600160a01b031633145b806106a857506002546001600160a01b031633145b806106bd57506003546001600160a01b031633145b6106fe576040805162461bcd60e51b815260206004820152600d60248201526c2737902832b936b4b9b9b4b7b760991b604482015290519081900360640190fd5b600280546001600160a01b0319166001600160a01b0392909216919091179055565b6000546001600160a01b031681565b6000546001600160a01b031633148061075257506001546001600160a01b031633145b8061076757506002546001600160a01b031633145b8061077c57506003546001600160a01b031633145b6107bd576040805162461bcd60e51b815260206004820152600d60248201526c2737902832b936b4b9b9b4b7b760991b604482015290519081900360640190fd5b600180546001600160a01b0319166001600160a01b0392909216919091179055565b6000546001600160a01b031633148061080257506001546001600160a01b031633145b8061081757506002546001600160a01b031633145b8061082c57506003546001600160a01b031633145b61086d576040805162461bcd60e51b815260206004820152600d60248201526c2737902832b936b4b9b9b4b7b760991b604482015290519081900360640190fd5b6001600160a01b0381166108c8576040805162461bcd60e51b815260206004820152601b60248201527f4e696e6a6120546f6b656e206164647265737320696e76616c69640000000000604482015290519081900360640190fd5b600480546001600160a01b0319166001600160a01b0392909216919091179055565b6001546001600160a01b031681565b6004546001600160a01b031681565b6003546001600160a01b031681565b6002546001600160a01b031681565b60008261093557506000610982565b8282028284828161094257fe5b041461097f5760405162461bcd60e51b8152600401808060200182810382526021815260200180610d906021913960400191505060405180910390fd5b90505b92915050565b60008082116109de576040805162461bcd60e51b815260206004820152601a60248201527f536166654d6174683a206469766973696f6e206279207a65726f000000000000604482015290519081900360640190fd5b8183816109e757fe5b049392505050565b600082821115610a46576040805162461bcd60e51b815260206004820152601e60248201527f536166654d6174683a207375627472616374696f6e206f766572666c6f770000604482015290519081900360640190fd5b50900390565b604080516001600160a01b038416602482015260448082018490528251808303909101815260649091019091526020810180516001600160e01b031663a9059cbb60e01b1790526105bb9084906060610aee826040518060400160405280602081526020017f5361666545524332303a206c6f772d6c6576656c2063616c6c206661696c6564815250856001600160a01b0316610b4a9092919063ffffffff16565b8051909150156105bb57808060200190516020811015610b0d57600080fd5b50516105bb5760405162461bcd60e51b815260040180806020018281038252602a815260200180610db1602a913960400191505060405180910390fd5b6060610b598484600085610b63565b90505b9392505050565b606082471015610ba45760405162461bcd60e51b8152600401808060200182810382526026815260200180610d6a6026913960400191505060405180910390fd5b610bad85610cbf565b610bfe576040805162461bcd60e51b815260206004820152601d60248201527f416464726573733a2063616c6c20746f206e6f6e2d636f6e7472616374000000604482015290519081900360640190fd5b60006060866001600160a01b031685876040518082805190602001908083835b60208310610c3d5780518252601f199092019160209182019101610c1e565b6001836020036101000a03801982511681845116808217855250505050505090500191505060006040518083038185875af1925050503d8060008114610c9f576040519150601f19603f3d011682016040523d82523d6000602084013e610ca4565b606091505b5091509150610cb4828286610cc5565b979650505050505050565b3b151590565b60608315610cd4575081610b5c565b825115610ce45782518084602001fd5b8160405162461bcd60e51b81526004018080602001828103825283818151815260200191508051906020019080838360005b83811015610d2e578181015183820152602001610d16565b50505050905090810190601f168015610d5b5780820380516001836020036101000a031916815260200191505b509250505060405180910390fdfe416464726573733a20696e73756666696369656e742062616c616e636520666f722063616c6c536166654d6174683a206d756c7469706c69636174696f6e206f766572666c6f775361666545524332303a204552433230206f7065726174696f6e20646964206e6f742073756363656564a2646970667358221220d3d616a727c0dcd531bdd4dd3f9d9802e96aa560d4da67bea13c898f9d40f40564736f6c634300060c0033",
  "immutableReferences": {},
  "source": "// SPDX-License-Identifier: MIT\npragma solidity 0.6.12;\nimport \"@openzeppelin/contracts/math/SafeMath.sol\";\nimport \"@openzeppelin/contracts/token/ERC20/IERC20.sol\";\nimport \"@openzeppelin/contracts/token/ERC20/SafeERC20.sol\";\n\ncontract NinjaTeam {\n    using SafeERC20 for IERC20;\n    using SafeMath for uint256;\n    address payable public Donatello; // 0.3x\n    address payable public Raphael;  // 0.3x\n    address payable public Michelangelo; //0.3x\n    address payable public Leonardo; //0.1x\n    IERC20 public NINJA;\n\n    constructor(\n            address payable _Donatello,\n            address payable _Raphael,\n            address payable _Michelangelo,\n            address payable _Leonardo,\n            IERC20 _ninja\n    ) public {\n            Donatello = _Donatello;\n            Raphael = _Raphael;\n            Michelangelo = _Michelangelo;\n            Leonardo = _Leonardo;\n            NINJA = _ninja;\n    }\n\n      modifier onlyTeam() {\n        require(\n            Donatello == msg.sender || Raphael == msg.sender || Michelangelo == msg.sender || Leonardo  == msg.sender,\n            \"No Permission\"\n        );\n        _;\n    }\n    function updateDonatelloAdd(address payable _Donatello) public onlyTeam {\n        Donatello = _Donatello;\n    }\n    function updateRaphaelAdd(address payable _Raphael) public onlyTeam {\n        Raphael = _Raphael;\n    }\n    function updateMichelangeloAdd(address payable _Michelangelo) public onlyTeam {\n        Michelangelo = _Michelangelo;\n    }\n    function updateLeonardoAdd(address payable _Leonardo) public onlyTeam {\n        Leonardo = _Leonardo;\n    }\n\n    function withdrawBNB() public onlyTeam {\n        uint256 BnbBal = address(this).balance;\n        uint256 x3 = BnbBal.mul(30).div(100);\n        uint256 x1 = BnbBal.mul(10).div(100);\n        Donatello.transfer(x3);\n        Raphael.transfer(x3);\n        Michelangelo.transfer(x3);\n        Leonardo.transfer(x1);\n    }\n\n    function withdrawNINJA() public onlyTeam {\n        uint256 balance = NINJA.balanceOf(address(this));\n        uint256 x333 = balance.mul(333).div(100);\n        uint256 x34 = balance.sub(x333.mul(2));\n        NINJA.safeTransfer(Donatello, x333);\n        NINJA.safeTransfer(Raphael, x333);\n        NINJA.safeTransfer(Michelangelo, x34);\n    }\n\n    function updateNinjaAdd(address newNinja) public onlyTeam {\n        // incase of change Ninja\n        require(newNinja != address(0), \"Ninja Token address invalid\");\n        NINJA = IERC20(newNinja);\n    }\n\n}\n",
  "sourcePath": "/home/adeel/Desktop/ninjaswap-core/contracts/NinjaTeam.sol",
  "compiler": {
    "name": "solc",
    "version": "0.6.12+commit.27d51765.Emscripten.clang"
  },
  "schemaVersion": "3.3.4",
  "updatedAt": "2021-02-26T04:52:10.313Z",
  "devdoc": {
    "kind": "dev",
    "methods": {},
    "version": 1
  },
  "userdoc": {
    "kind": "user",
    "methods": {},
    "version": 1
  }
}