{
  "contractName": "NinjaStarter",
  "abi": [
    {
      "inputs": [
        {
          "internalType": "contract IBEP20",
          "name": "_offeringToken",
          "type": "address"
        },
        {
          "internalType": "contract IBEP20",
          "name": "_busd",
          "type": "address"
        },
        {
          "internalType": "address payable",
          "name": "_tokenOwner",
          "type": "address"
        },
        {
          "internalType": "address payable",
          "name": "_feeAddress",
          "type": "address"
        }
      ],
      "stateMutability": "nonpayable",
      "type": "constructor"
    },
    {
      "anonymous": false,
      "inputs": [
        {
          "indexed": true,
          "internalType": "address",
          "name": "previousOwner",
          "type": "address"
        },
        {
          "indexed": true,
          "internalType": "address",
          "name": "newOwner",
          "type": "address"
        }
      ],
      "name": "OwnershipTransferred",
      "type": "event"
    },
    {
      "anonymous": false,
      "inputs": [
        {
          "indexed": false,
          "internalType": "address",
          "name": "account",
          "type": "address"
        }
      ],
      "name": "Paused",
      "type": "event"
    },
    {
      "anonymous": false,
      "inputs": [
        {
          "indexed": false,
          "internalType": "address",
          "name": "account",
          "type": "address"
        }
      ],
      "name": "Unpaused",
      "type": "event"
    },
    {
      "anonymous": false,
      "inputs": [
        {
          "indexed": false,
          "internalType": "address",
          "name": "user",
          "type": "address"
        },
        {
          "indexed": false,
          "internalType": "uint256",
          "name": "amount",
          "type": "uint256"
        }
      ],
      "name": "purchased",
      "type": "event"
    },
    {
      "inputs": [],
      "name": "BUSD",
      "outputs": [
        {
          "internalType": "contract IBEP20",
          "name": "",
          "type": "address"
        }
      ],
      "stateMutability": "view",
      "type": "function"
    },
    {
      "inputs": [
        {
          "internalType": "address",
          "name": "",
          "type": "address"
        }
      ],
      "name": "bnbDeposits",
      "outputs": [
        {
          "internalType": "uint256",
          "name": "",
          "type": "uint256"
        }
      ],
      "stateMutability": "view",
      "type": "function"
    },
    {
      "inputs": [
        {
          "internalType": "address",
          "name": "",
          "type": "address"
        }
      ],
      "name": "busdDeposits",
      "outputs": [
        {
          "internalType": "uint256",
          "name": "",
          "type": "uint256"
        }
      ],
      "stateMutability": "view",
      "type": "function"
    },
    {
      "inputs": [],
      "name": "buyCap",
      "outputs": [
        {
          "internalType": "uint256",
          "name": "",
          "type": "uint256"
        }
      ],
      "stateMutability": "view",
      "type": "function"
    },
    {
      "inputs": [],
      "name": "buyPrice",
      "outputs": [
        {
          "internalType": "uint256",
          "name": "",
          "type": "uint256"
        }
      ],
      "stateMutability": "view",
      "type": "function"
    },
    {
      "inputs": [],
      "name": "fee",
      "outputs": [
        {
          "internalType": "uint16",
          "name": "",
          "type": "uint16"
        }
      ],
      "stateMutability": "view",
      "type": "function"
    },
    {
      "inputs": [],
      "name": "feeAddress",
      "outputs": [
        {
          "internalType": "address payable",
          "name": "",
          "type": "address"
        }
      ],
      "stateMutability": "view",
      "type": "function"
    },
    {
      "inputs": [],
      "name": "isEnded",
      "outputs": [
        {
          "internalType": "bool",
          "name": "",
          "type": "bool"
        }
      ],
      "stateMutability": "view",
      "type": "function"
    },
    {
      "inputs": [],
      "name": "offeringAmount",
      "outputs": [
        {
          "internalType": "uint256",
          "name": "",
          "type": "uint256"
        }
      ],
      "stateMutability": "view",
      "type": "function"
    },
    {
      "inputs": [],
      "name": "offeringToken",
      "outputs": [
        {
          "internalType": "contract IBEP20",
          "name": "",
          "type": "address"
        }
      ],
      "stateMutability": "view",
      "type": "function"
    },
    {
      "inputs": [],
      "name": "owner",
      "outputs": [
        {
          "internalType": "address",
          "name": "",
          "type": "address"
        }
      ],
      "stateMutability": "view",
      "type": "function"
    },
    {
      "inputs": [],
      "name": "paused",
      "outputs": [
        {
          "internalType": "bool",
          "name": "",
          "type": "bool"
        }
      ],
      "stateMutability": "view",
      "type": "function"
    },
    {
      "inputs": [
        {
          "internalType": "address",
          "name": "",
          "type": "address"
        }
      ],
      "name": "purchases",
      "outputs": [
        {
          "internalType": "uint256",
          "name": "",
          "type": "uint256"
        }
      ],
      "stateMutability": "view",
      "type": "function"
    },
    {
      "inputs": [],
      "name": "renounceOwnership",
      "outputs": [],
      "stateMutability": "nonpayable",
      "type": "function"
    },
    {
      "inputs": [],
      "name": "tokenOwner",
      "outputs": [
        {
          "internalType": "address payable",
          "name": "",
          "type": "address"
        }
      ],
      "stateMutability": "view",
      "type": "function"
    },
    {
      "inputs": [],
      "name": "totalCollectedBNB",
      "outputs": [
        {
          "internalType": "uint256",
          "name": "",
          "type": "uint256"
        }
      ],
      "stateMutability": "view",
      "type": "function"
    },
    {
      "inputs": [],
      "name": "totalCollectedBUSD",
      "outputs": [
        {
          "internalType": "uint256",
          "name": "",
          "type": "uint256"
        }
      ],
      "stateMutability": "view",
      "type": "function"
    },
    {
      "inputs": [],
      "name": "totalSaleParticipants",
      "outputs": [
        {
          "internalType": "uint256",
          "name": "",
          "type": "uint256"
        }
      ],
      "stateMutability": "view",
      "type": "function"
    },
    {
      "inputs": [],
      "name": "totalSold",
      "outputs": [
        {
          "internalType": "uint256",
          "name": "",
          "type": "uint256"
        }
      ],
      "stateMutability": "view",
      "type": "function"
    },
    {
      "inputs": [
        {
          "internalType": "address",
          "name": "newOwner",
          "type": "address"
        }
      ],
      "name": "transferOwnership",
      "outputs": [],
      "stateMutability": "nonpayable",
      "type": "function"
    },
    {
      "stateMutability": "payable",
      "type": "receive"
    },
    {
      "inputs": [
        {
          "internalType": "address",
          "name": "_beneficiary",
          "type": "address"
        }
      ],
      "name": "buywithBNB",
      "outputs": [],
      "stateMutability": "payable",
      "type": "function"
    },
    {
      "inputs": [
        {
          "internalType": "uint256",
          "name": "_amountBusd",
          "type": "uint256"
        }
      ],
      "name": "buyWithBusd",
      "outputs": [],
      "stateMutability": "nonpayable",
      "type": "function"
    },
    {
      "inputs": [
        {
          "internalType": "uint256",
          "name": "_bnbAmount",
          "type": "uint256"
        }
      ],
      "name": "getEstimatedTokensBuyWithBNB",
      "outputs": [
        {
          "internalType": "uint256",
          "name": "",
          "type": "uint256"
        }
      ],
      "stateMutability": "view",
      "type": "function"
    },
    {
      "inputs": [],
      "name": "endOffering",
      "outputs": [],
      "stateMutability": "nonpayable",
      "type": "function"
    },
    {
      "inputs": [
        {
          "internalType": "uint256",
          "name": "_offerAmount",
          "type": "uint256"
        }
      ],
      "name": "setOfferingAmount",
      "outputs": [],
      "stateMutability": "nonpayable",
      "type": "function"
    },
    {
      "inputs": [],
      "name": "getLatestBNBPrice",
      "outputs": [
        {
          "internalType": "uint256",
          "name": "",
          "type": "uint256"
        }
      ],
      "stateMutability": "view",
      "type": "function"
    },
    {
      "inputs": [
        {
          "internalType": "uint256",
          "name": "_buyCap",
          "type": "uint256"
        }
      ],
      "name": "setBuyCap",
      "outputs": [],
      "stateMutability": "nonpayable",
      "type": "function"
    },
    {
      "inputs": [
        {
          "internalType": "uint16",
          "name": "_fee",
          "type": "uint16"
        }
      ],
      "name": "setFee",
      "outputs": [],
      "stateMutability": "nonpayable",
      "type": "function"
    },
    {
      "inputs": [
        {
          "internalType": "uint256",
          "name": "_buyPrice",
          "type": "uint256"
        }
      ],
      "name": "setPrice",
      "outputs": [],
      "stateMutability": "nonpayable",
      "type": "function"
    },
    {
      "inputs": [],
      "name": "finalWithdraw",
      "outputs": [],
      "stateMutability": "nonpayable",
      "type": "function"
    },
    {
      "inputs": [
        {
          "internalType": "contract IBEP20",
          "name": "_token",
          "type": "address"
        },
        {
          "internalType": "uint256",
          "name": "_amount",
          "type": "uint256"
        }
      ],
      "name": "recoverStuckTokens",
      "outputs": [],
      "stateMutability": "nonpayable",
      "type": "function"
    }
  ],
  "bytecode": "0x608060405268d8d726b7177a80000060055560006006819055673782dace9d9000006007556008805460ff191690556009819055600a819055600b55600f805461ffff191660961790553480156200005657600080fd5b5060405162001e4238038062001e4283398101604081905262000079916200015d565b600160009081556200008a62000159565b600180546001600160a01b0319166001600160a01b038316908117909155604051919250906000907f8be0079c531659141344cd1fd0a4f28419497f9722a3daafe3b4186f6b6457e0908290a3506001805460ff60a01b19169055600380546001600160a01b03199081166001600160a01b039687161790915560048054821694861694909417909355600c8054841692851692909217909155600d8054831691909316179091556002805473da7a001b254cd22e46d3eab04d937489c93174c39216919091179055620001dd565b3390565b6000806000806080858703121562000173578384fd5b84516200018081620001c4565b60208601519094506200019381620001c4565b6040860151909350620001a681620001c4565b6060860151909250620001b981620001c4565b939692955090935050565b6001600160a01b0381168114620001da57600080fd5b50565b611c5580620001ed6000396000f3fe6080604052600436106101dc5760003560e01c80638da5cb5b11610102578063b781360711610095578063ddca3f4311610064578063ddca3f43146104c9578063e1af9a95146104eb578063ec3a5ad214610500578063f2fde38b14610520576101fc565b8063b781360714610454578063b847026f14610469578063bca2c6fe14610489578063c596f3fe146104a9576101fc565b80639be3b286116100d15780639be3b286146103f5578063a3e676101461040a578063a4fd6f561461041f578063b2bd658d14610434576101fc565b80638da5cb5b1461038b5780638e005553146103a05780639106d7ba146103c057806391b7f5ed146103d5576101fc565b8063484f4ea91161017a57806361d0524d1161014957806361d0524d14610321578063715018a614610341578063842a77d3146103565780638620410b14610376576101fc565b8063484f4ea9146102c0578063504e4730146102d557806353afd0c1146102ea5780635c975abb146102ff576101fc565b806329ddb429116101b657806329ddb429146102495780632deb278b1461027457806332befd0814610289578063412753581461029e576101fc565b806311f2a39514610201578063272e4d7f1461021657806327d1b1a214610229576101fc565b366101fc5760085460ff16156101f157600080fd5b6101fa33610540565b005b600080fd5b34801561020d57600080fd5b506101fa61079a565b6101fa610224366004611626565b610540565b34801561023557600080fd5b506101fa610244366004611706565b610977565b34801561025557600080fd5b5061025e6109bb565b60405161026b9190611bd2565b60405180910390f35b34801561028057600080fd5b5061025e6109c1565b34801561029557600080fd5b5061025e6109c7565b3480156102aa57600080fd5b506102b36109cd565b60405161026b9190611752565b3480156102cc57600080fd5b506102b36109dc565b3480156102e157600080fd5b5061025e6109eb565b3480156102f657600080fd5b5061025e610a7a565b34801561030b57600080fd5b50610314610a80565b60405161026b91906117a3565b34801561032d57600080fd5b5061025e61033c366004611626565b610a90565b34801561034d57600080fd5b506101fa610aa2565b34801561036257600080fd5b5061025e610371366004611626565b610b2b565b34801561038257600080fd5b5061025e610b3d565b34801561039757600080fd5b506102b3610b43565b3480156103ac57600080fd5b506101fa6103bb3660046116e4565b610b52565b3480156103cc57600080fd5b5061025e610bcf565b3480156103e157600080fd5b506101fa6103f0366004611706565b610bd5565b34801561040157600080fd5b506101fa610c19565b34801561041657600080fd5b506102b3610d31565b34801561042b57600080fd5b50610314610d40565b34801561044057600080fd5b5061025e61044f366004611706565b610d49565b34801561046057600080fd5b506102b3610d69565b34801561047557600080fd5b506101fa610484366004611706565b610d78565b34801561049557600080fd5b5061025e6104a4366004611626565b610f9b565b3480156104b557600080fd5b506101fa6104c4366004611662565b610fad565b3480156104d557600080fd5b506104de611000565b60405161026b9190611bc3565b3480156104f757600080fd5b5061025e61100a565b34801561050c57600080fd5b506101fa61051b366004611706565b611010565b34801561052c57600080fd5b506101fa61053b366004611626565b611054565b610548610a80565b1561056e5760405162461bcd60e51b8152600401610565906119ca565b60405180910390fd5b600260005414156105915760405162461bcd60e51b815260040161056590611b8c565b600260005534806105b45760405162461bcd60e51b815260040161056590611b1e565b6105bc611115565b6105d85760405162461bcd60e51b8152600401610565906117e1565b60006105e382610d49565b90506105ee816111c3565b9050600081116106105760405162461bcd60e51b815260040161056590611ad8565b600061063161061d6109eb565b60075461062b908590611326565b90611360565b90508083111561068157836001600160a01b0381166108fc6106538685611392565b6040518115909202916000818181858888f1935050505015801561067b573d6000803e3d6000fd5b50819350505b336000908152601060205260409020541580156106b457506001600160a01b038416600090815260116020526040902054155b156106cb57600e546106c79060016113ba565b600e555b600a546106d890846113ba565b600a556003546106f2906001600160a01b031633846113df565b6009546106ff90836113ba565b6009553360009081526011602052604090205461071c90846113ba565b3360009081526011602090815260408083209390935560129052205461074290836113ba565b336000908152601260205260409081902091909155517fe597ef12064a0ee0e5030bc6ee7111ce71a32df2a90cc813f7232a0733d89402906107879086908590611766565b60405180910390a1505060016000555050565b6107a261143a565b6001600160a01b03166107b3610b43565b6001600160a01b0316146107d95760405162461bcd60e51b815260040161056590611a35565b600480546040516370a0823160e01b815247926000926001600160a01b0316916370a082319161080b91309101611752565b60206040518083038186803b15801561082357600080fd5b505afa158015610837573d6000803e3d6000fd5b505050506040513d601f19601f8201168201806040525081019061085b919061171e565b905080156108cb57600f54600090610880906127109061062b90859061ffff16611326565b905061088c8282611392565b600d546004549193506108ac916001600160a01b039081169116836113df565b600c546004546108c9916001600160a01b039182169116846113df565b505b811561097357600f546000906108ee906127109061062b90869061ffff16611326565b90506108fa8382611392565b600d546040519194506001600160a01b03169082156108fc029083906000818181858888f19350505050158015610935573d6000803e3d6000fd5b50600c546040516001600160a01b039091169084156108fc029085906000818181858888f19350505050158015610970573d6000803e3d6000fd5b50505b5050565b61097f61143a565b6001600160a01b0316610990610b43565b6001600160a01b0316146109b65760405162461bcd60e51b815260040161056590611a35565b600555565b600a5481565b60065481565b600e5481565b600d546001600160a01b031681565b6004546001600160a01b031681565b60006109f5611605565b60025460405163195556f360e21b81526001600160a01b03909116906365555bcc90610a23906004016118df565b60606040518083038186803b158015610a3b57600080fd5b505afa158015610a4f573d6000803e3d6000fd5b505050506040513d601f19601f82011682018060405250810190610a73919061168d565b5191505090565b600b5481565b600154600160a01b900460ff1690565b60106020526000908152604090205481565b610aaa61143a565b6001600160a01b0316610abb610b43565b6001600160a01b031614610ae15760405162461bcd60e51b815260040161056590611a35565b6001546040516000916001600160a01b0316907f8be0079c531659141344cd1fd0a4f28419497f9722a3daafe3b4186f6b6457e0908390a3600180546001600160a01b0319169055565b60126020526000908152604090205481565b60075481565b6001546001600160a01b031690565b610b5a61143a565b6001600160a01b0316610b6b610b43565b6001600160a01b031614610b915760405162461bcd60e51b815260040161056590611a35565b6127108161ffff161115610bb75760405162461bcd60e51b815260040161056590611aa1565b600f805461ffff191661ffff92909216919091179055565b60095481565b610bdd61143a565b6001600160a01b0316610bee610b43565b6001600160a01b031614610c145760405162461bcd60e51b815260040161056590611a35565b600755565b610c2161143a565b6001600160a01b0316610c32610b43565b6001600160a01b031614610c585760405162461bcd60e51b815260040161056590611a35565b60085460ff1615610c7b5760405162461bcd60e51b8152600401610565906117e1565b6003546040516370a0823160e01b81526000916001600160a01b0316906370a0823190610cac903090600401611752565b60206040518083038186803b158015610cc457600080fd5b505afa158015610cd8573d6000803e3d6000fd5b505050506040513d601f19601f82011682018060405250810190610cfc919061171e565b90508015610d2157600c54600354610d21916001600160a01b039182169116836113df565b506008805460ff19166001179055565b600c546001600160a01b031681565b60085460ff1681565b6000610d6360075461062b610d5c6109eb565b8590611326565b92915050565b6003546001600160a01b031681565b610d80610a80565b15610d9d5760405162461bcd60e51b8152600401610565906119ca565b60026000541415610dc05760405162461bcd60e51b815260040161056590611b8c565b600260005580610de25760405162461bcd60e51b815260040161056590611a6a565b610dea611115565b610e065760405162461bcd60e51b8152600401610565906117e1565b600754600090610e229061062b84670de0b6b3a7640000611326565b9050610e2d816111c3565b905060008111610e4f5760405162461bcd60e51b815260040161056590611ad8565b6000610e72670de0b6b3a764000061062b6007548561132690919063ffffffff16565b600454909150610e8d906001600160a01b031633308461143e565b33600090815260106020526040902054158015610eb7575033600090815260116020526040902054155b15610ece57600e54610eca9060016113ba565b600e555b600354610ee5906001600160a01b031633846113df565b600954610ef290836113ba565b600955600b54610f0290826113ba565b600b5533600090815260106020526040902054610f1f90826113ba565b33600090815260106020908152604080832093909355601290522054610f4590836113ba565b33600081815260126020526040908190209290925590517fe597ef12064a0ee0e5030bc6ee7111ce71a32df2a90cc813f7232a0733d8940291610f89918590611766565b60405180910390a15050600160005550565b60116020526000908152604090205481565b610fb561143a565b6001600160a01b0316610fc6610b43565b6001600160a01b031614610fec5760405162461bcd60e51b815260040161056590611a35565b6109736001600160a01b03831633836113df565b600f5461ffff1681565b60055481565b61101861143a565b6001600160a01b0316611029610b43565b6001600160a01b03161461104f5760405162461bcd60e51b815260040161056590611a35565b600655565b61105c61143a565b6001600160a01b031661106d610b43565b6001600160a01b0316146110935760405162461bcd60e51b815260040161056590611a35565b6001600160a01b0381166110b95760405162461bcd60e51b815260040161056590611862565b6001546040516001600160a01b038084169216907f8be0079c531659141344cd1fd0a4f28419497f9722a3daafe3b4186f6b6457e090600090a3600180546001600160a01b0319166001600160a01b0392909216919091179055565b6008546003546040516370a0823160e01b815260009260ff161591839182916001600160a01b0316906370a0823190611152903090600401611752565b60206040518083038186803b15801561116a57600080fd5b505afa15801561117e573d6000803e3d6000fd5b505050506040513d601f19601f820116820180604052508101906111a2919061171e565b1190503315158280156111b25750815b80156111bb5750805b935050505090565b6006546000908290158015906111f45750600654336000908152601260205260409020546111f29083906113ba565b115b15611218573360009081526012602052604090205460065461121591611392565b90505b6003546040516370a0823160e01b81526001600160a01b03909116906370a0823190611248903090600401611752565b60206040518083038186803b15801561126057600080fd5b505afa158015611274573d6000803e3d6000fd5b505050506040513d601f19601f82011682018060405250810190611298919061171e565b811115610d63576003546040516370a0823160e01b81526001600160a01b03909116906370a08231906112cf903090600401611752565b60206040518083038186803b1580156112e757600080fd5b505afa1580156112fb573d6000803e3d6000fd5b505050506040513d601f19601f8201168201806040525081019061131f919061171e565b9392505050565b60008261133557506000610d63565b8282028284828161134257fe5b041461131f5760405162461bcd60e51b8152600401610565906119f4565b60008082116113815760405162461bcd60e51b815260040161056590611993565b81838161138a57fe5b049392505050565b6000828211156113b45760405162461bcd60e51b815260040161056590611916565b50900390565b60008282018381101561131f5760405162461bcd60e51b8152600401610565906118a8565b6114358363a9059cbb60e01b84846040516024016113fe929190611766565b60408051601f198184030181529190526020810180516001600160e01b03166001600160e01b03199093169290921790915261145f565b505050565b3390565b610970846323b872dd60e01b8585856040516024016113fe9392919061177f565b60606114b4826040518060400160405280602081526020017f5361666542455032303a206c6f772d6c6576656c2063616c6c206661696c6564815250856001600160a01b03166114ee9092919063ffffffff16565b80519091501561143557808060200190518101906114d29190611642565b6114355760405162461bcd60e51b815260040161056590611818565b60606114fd8484600085611505565b949350505050565b6060824710156115275760405162461bcd60e51b81526004016105659061194d565b611530856115c6565b61154c5760405162461bcd60e51b815260040161056590611b55565b60006060866001600160a01b031685876040516115699190611736565b60006040518083038185875af1925050503d80600081146115a6576040519150601f19603f3d011682016040523d82523d6000602084013e6115ab565b606091505b50915091506115bb8282866115cc565b979650505050505050565b3b151590565b606083156115db57508161131f565b8251156115eb5782518084602001fd5b8160405162461bcd60e51b815260040161056591906117ae565b60405180606001604052806000815260200160008152602001600081525090565b600060208284031215611637578081fd5b813561131f81611c07565b600060208284031215611653578081fd5b8151801515811461131f578182fd5b60008060408385031215611674578081fd5b823561167f81611c07565b946020939093013593505050565b60006060828403121561169e578081fd5b6040516060810181811067ffffffffffffffff821117156116bd578283fd5b80604052508251815260208301516020820152604083015160408201528091505092915050565b6000602082840312156116f5578081fd5b813561ffff8116811461131f578182fd5b600060208284031215611717578081fd5b5035919050565b60006020828403121561172f578081fd5b5051919050565b60008251611748818460208701611bdb565b9190910192915050565b6001600160a01b0391909116815260200190565b6001600160a01b03929092168252602082015260400190565b6001600160a01b039384168152919092166020820152604081019190915260600190565b901515815260200190565b60006020825282518060208401526117cd816040850160208701611bdb565b601f01601f19169190910160400192915050565b6020808252601a908201527f6f66666572696e6720616c72656164792066696e616c697a6564000000000000604082015260600190565b6020808252602a908201527f5361666542455032303a204245503230206f7065726174696f6e20646964206e6040820152691bdd081cdd58d8d9595960b21b606082015260800190565b60208082526026908201527f4f776e61626c653a206e6577206f776e657220697320746865207a65726f206160408201526564647265737360d01b606082015260800190565b6020808252601b908201527f536166654d6174683a206164646974696f6e206f766572666c6f770000000000604082015260600190565b604080825260039082018190526221272160e91b6060830152608060208301819052820152621554d160ea1b60a082015260c00190565b6020808252601e908201527f536166654d6174683a207375627472616374696f6e206f766572666c6f770000604082015260600190565b60208082526026908201527f416464726573733a20696e73756666696369656e742062616c616e636520666f6040820152651c8818d85b1b60d21b606082015260800190565b6020808252601a908201527f536166654d6174683a206469766973696f6e206279207a65726f000000000000604082015260600190565b60208082526010908201526f14185d5cd8589b194e881c185d5cd95960821b604082015260600190565b60208082526021908201527f536166654d6174683a206d756c7469706c69636174696f6e206f766572666c6f6040820152607760f81b606082015260800190565b6020808252818101527f4f776e61626c653a2063616c6c6572206973206e6f7420746865206f776e6572604082015260600190565b6020808252601a908201527f506c656173652053656e6420736f6d65206d6f72652042555344000000000000604082015260600190565b60208082526018908201527f696e76616c69642066656520626173697320706f696e74730000000000000000604082015260600190565b60208082526026908201527f596f75277665207265616368656420796f7572206c696d6974206f662070757260408201526563686173657360d01b606082015260800190565b60208082526019908201527f506c656173652073656e6420736f6d65206d6f726520424e4200000000000000604082015260600190565b6020808252601d908201527f416464726573733a2063616c6c20746f206e6f6e2d636f6e7472616374000000604082015260600190565b6020808252601f908201527f5265656e7472616e637947756172643a207265656e7472616e742063616c6c00604082015260600190565b61ffff91909116815260200190565b90815260200190565b60005b83811015611bf6578181015183820152602001611bde565b838111156109705750506000910152565b6001600160a01b0381168114611c1c57600080fd5b5056fea2646970667358221220ed720d631e4e7bf0e5e7e9ba4f7f48a6ba4c55ab16d5ac2bfecc21b8e008e00164736f6c634300060c0033",
  "immutableReferences": {},
  "source": "// SPDX-License-Identifier: MIT\npragma solidity ^0.6.0;\npragma experimental ABIEncoderV2;\nimport \"./libs/BEP20.sol\";\nimport \"./libs/SafeBEP20.sol\";\nimport \"@openzeppelin/contracts/access/Ownable.sol\";\nimport \"@openzeppelin/contracts/utils/Pausable.sol\";\nimport \"@openzeppelin/contracts/utils/ReentrancyGuard.sol\";\n\ninterface IStdReference {\n    /// A structure returned whenever someone requests for standard reference data.\n    struct ReferenceData {\n        uint256 rate; // base/quote exchange rate, multiplied by 1e18.\n        uint256 lastUpdatedBase; // UNIX epoch of the last time when base price gets updated.\n        uint256 lastUpdatedQuote; // UNIX epoch of the last time when quote price gets updated.\n    }\n\n    /// Returns the price data for the given base/quote pair. Revert if not available.\n    function getReferenceData(string memory _base, string memory _quote)\n        external\n        view\n        returns (ReferenceData memory);\n}\n\ncontract NinjaStarter is ReentrancyGuard, Ownable, Pausable {\n    using SafeMath for uint256;\n    using SafeBEP20 for IBEP20;\n    IStdReference internal ref;\n\n    //offering token\n    IBEP20 public offeringToken;\n\n    // BUSD Token\n    IBEP20 public BUSD;\n\n    // total amount of offeringToken that will offer\n    uint256 public offeringAmount = 4000 * 1e18;\n\n    // limit on each address on buy\n    uint256 public buyCap = 0;\n\n    // offering token price in BUSD\n    uint256 public buyPrice = 4 * 1e18;\n\n    // Time when the token sale closes\n    bool public isEnded = false;\n\n    // limit on each address on buy\n    uint256 public totalSold = 0;\n\n    // Keeps track of BNB deposited\n    uint256 public totalCollectedBNB = 0;\n\n    // Keeps track of BUSD deposited\n    uint256 public totalCollectedBUSD = 0;\n\n    //offering token owner address\n    address payable public tokenOwner;\n\n    //ninjaswap fee collector address\n    address payable public feeAddress;\n\n    //Total sale participants\n    uint256 public totalSaleParticipants;\n\n    //ninjaswap will charge this fee 1.5% max 10000 means 100%\n    uint16 public fee = 150;\n\n    //Amount each user deposited BUSD\n    mapping(address => uint256) public busdDeposits;\n\n    //Amount each user deposited BNB\n    mapping(address => uint256) public bnbDeposits;\n\n    //Amount of offering token bought each user\n    mapping(address => uint256) public purchases;\n\n    event purchased(address user, uint256 amount);\n    \n    constructor(\n        IBEP20 _offeringToken,\n        IBEP20 _busd,\n        address payable _tokenOwner,\n        address payable _feeAddress\n    ) public {\n        offeringToken = _offeringToken;\n        BUSD = _busd;\n        tokenOwner = _tokenOwner;\n        feeAddress = _feeAddress;\n        //ref = IStdReference(0xDA7a001b254CD22e46d3eAB04d937489c93174C3);\n        ref = IStdReference(0xDA7a001b254CD22e46d3eAB04d937489c93174C3);\n    }\n\n    receive() external payable {\n        if (isEnded) {\n            revert();\n        }\n        buywithBNB(msg.sender);\n    }\n\n    function buywithBNB(address _beneficiary) public payable whenNotPaused nonReentrant\n    {\n        uint256 bnbAmount = msg.value;\n        require(bnbAmount > 0, \"Please send some more BNB\");\n        require(_preValidation(), \"offering already finalized\");\n        uint256 tokensToBePurchased = _getTokenAmount(bnbAmount);\n        tokensToBePurchased = _verifyAmount(tokensToBePurchased);\n        require(tokensToBePurchased > 0, \"You've reached your limit of purchases\");\n        uint256 cost = tokensToBePurchased.mul(buyPrice).div(getLatestBNBPrice());\n        if (bnbAmount > cost) {\n            address payable refundAccount = payable(_beneficiary);\n\t        refundAccount.transfer(bnbAmount.sub(cost));\n            bnbAmount = cost;\n        }\n        // Update total sale participants\n        if (busdDeposits[msg.sender] == 0 && bnbDeposits[_beneficiary] == 0) {\n            totalSaleParticipants = totalSaleParticipants.add(1);\n        }\n        totalCollectedBNB = totalCollectedBNB.add(bnbAmount);\n        offeringToken.safeTransfer(address(msg.sender), tokensToBePurchased);\n        totalSold = totalSold.add(tokensToBePurchased);\n        bnbDeposits[msg.sender] = bnbDeposits[msg.sender].add(bnbAmount);\n        purchases[msg.sender] = purchases[msg.sender].add(tokensToBePurchased);\n        emit purchased(_beneficiary, tokensToBePurchased);\n    }\n\n    function buyWithBusd(uint256 _amountBusd) public whenNotPaused nonReentrant {\n        require(_amountBusd > 0, \"Please Send some more BUSD\");\n        require(_preValidation(), \"offering already finalized\");\n        uint256 tokensToBePurchased = _amountBusd.mul(10**18).div(buyPrice);\n        tokensToBePurchased = _verifyAmount(tokensToBePurchased);\n        require(tokensToBePurchased > 0, \"You've reached your limit of purchases\");\n        uint256 totalBusd = tokensToBePurchased.mul(buyPrice).div(10**18);\n        BUSD.safeTransferFrom(address(msg.sender), address(this), totalBusd);\n        // Update total sale participants\n        if (busdDeposits[msg.sender] == 0 && bnbDeposits[msg.sender] == 0) {\n            totalSaleParticipants = totalSaleParticipants.add(1);\n        }\n        offeringToken.safeTransfer(address(msg.sender), tokensToBePurchased);\n        totalSold = totalSold.add(tokensToBePurchased);\n        totalCollectedBUSD = totalCollectedBUSD.add(totalBusd);\n        busdDeposits[msg.sender] = busdDeposits[msg.sender].add(totalBusd);\n        purchases[msg.sender] = purchases[msg.sender].add(tokensToBePurchased);\n        emit purchased(msg.sender, tokensToBePurchased);\n    }\n\n    function getEstimatedTokensBuyWithBNB(uint256 _bnbAmount)\n        public\n        view\n        returns (uint256)\n    {\n        return _bnbAmount.mul(getLatestBNBPrice()).div(buyPrice);\n    }\n\n    function _preValidation() internal view returns (bool) {\n        // offering should not endeded\n        bool a = !isEnded;\n\n        // should have available offering tokens\n        bool b = offeringToken.balanceOf(address(this)) > 0;\n\n        bool c = msg.sender != address(0);\n        return a && b && c;\n    }\n\n    function endOffering() public onlyOwner {\n        require(!isEnded, \"offering already finalized\");\n        uint256 balance = offeringToken.balanceOf(address(this));\n        if (balance > 0) {\n            offeringToken.safeTransfer(tokenOwner, balance);\n        }\n        isEnded = true;\n    }\n\n    function _getTokenAmount(uint256 _bnbAmount)\n        internal\n        view\n        returns (uint256)\n    {\n        return _bnbAmount.mul(getLatestBNBPrice()).div(buyPrice);\n    }\n\n    function _verifyAmount(uint256 _tokensAmount)\n        internal\n        view\n        returns (uint256)\n    {\n        uint256 canBeBought = _tokensAmount;\n        if (buyCap > 0 && canBeBought.add(purchases[msg.sender]) > buyCap) {\n            canBeBought = buyCap.sub(purchases[msg.sender]);\n        }\n        if (canBeBought > offeringToken.balanceOf(address(this))) {\n            canBeBought = offeringToken.balanceOf(address(this));\n        }\n        return canBeBought;\n    }\n\n    function setOfferingAmount(uint256 _offerAmount) public onlyOwner {\n        offeringAmount = _offerAmount;\n    }\n\n    function getLatestBNBPrice() public view returns (uint256) {\n        IStdReference.ReferenceData memory data = ref.getReferenceData(\n            \"BNB\",\n            \"USD\"\n        );\n        return data.rate;\n    }\n\n    function setBuyCap(uint256 _buyCap) public onlyOwner {\n        buyCap = _buyCap;\n    }\n\n    function setFee(uint16 _fee) public onlyOwner {\n        require(_fee <= 10000, \"invalid fee basis points\");\n        fee = _fee;\n    }\n\n    function setPrice(uint256 _buyPrice) public onlyOwner {\n        buyPrice = _buyPrice;\n    }\n\n    function finalWithdraw() public onlyOwner {\n        uint256 bnbBalance = address(this).balance;\n        uint256 busdBalance = BUSD.balanceOf(address(this));\n        if (busdBalance > 0) {\n            uint256 busdFee = busdBalance.mul(fee).div(10000);\n            busdBalance = busdBalance.sub(busdFee);\n            BUSD.safeTransfer(feeAddress, busdFee);\n            BUSD.safeTransfer(tokenOwner, busdBalance);\n        }\n        if (bnbBalance > 0) {\n            uint256 bnbFee = bnbBalance.mul(fee).div(10000);\n            bnbBalance = bnbBalance.sub(bnbFee);\n            feeAddress.transfer(bnbFee);\n            tokenOwner.transfer(bnbBalance);\n        }\n    }\n\n    //recover stuck tokens in case someone transfer fund in accident\n    function recoverStuckTokens(IBEP20 _token, uint256 _amount)\n        public\n        onlyOwner\n    {\n        IBEP20(_token).safeTransfer(msg.sender, _amount);\n    }\n}\n",
  "sourcePath": "/home/zawaz/Desktop/ninjaswap-core/contracts/NinjaStarter.sol",
  "compiler": {
    "name": "solc",
    "version": "0.6.12+commit.27d51765.Emscripten.clang"
  },
  "schemaVersion": "3.3.4",
  "updatedAt": "2021-08-12T07:34:17.559Z",
  "devdoc": {
    "kind": "dev",
    "methods": {
      "owner()": {
        "details": "Returns the address of the current owner."
      },
      "paused()": {
        "details": "Returns true if the contract is paused, and false otherwise."
      },
      "renounceOwnership()": {
        "details": "Leaves the contract without owner. It will not be possible to call `onlyOwner` functions anymore. Can only be called by the current owner. NOTE: Renouncing ownership will leave the contract without an owner, thereby removing any functionality that is only available to the owner."
      },
      "transferOwnership(address)": {
        "details": "Transfers ownership of the contract to a new account (`newOwner`). Can only be called by the current owner."
      }
    },
    "version": 1
  },
  "userdoc": {
    "kind": "user",
    "methods": {},
    "version": 1
  }
}