{
  "contractName": "NinjaFactory",
  "abi": [
    {
      "inputs": [
        {
          "internalType": "address",
          "name": "_feeSetter",
          "type": "address"
        }
      ],
      "stateMutability": "nonpayable",
      "type": "constructor"
    },
    {
      "anonymous": false,
      "inputs": [
        {
          "indexed": true,
          "internalType": "address",
          "name": "token0",
          "type": "address"
        },
        {
          "indexed": true,
          "internalType": "address",
          "name": "token1",
          "type": "address"
        },
        {
          "indexed": false,
          "internalType": "address",
          "name": "pair",
          "type": "address"
        },
        {
          "indexed": false,
          "internalType": "uint256",
          "name": "",
          "type": "uint256"
        }
      ],
      "name": "PairCreated",
      "type": "event"
    },
    {
      "inputs": [
        {
          "internalType": "uint256",
          "name": "",
          "type": "uint256"
        }
      ],
      "name": "allPairs",
      "outputs": [
        {
          "internalType": "address",
          "name": "",
          "type": "address"
        }
      ],
      "stateMutability": "view",
      "type": "function"
    },
    {
      "inputs": [],
      "name": "feeSetter",
      "outputs": [
        {
          "internalType": "address",
          "name": "",
          "type": "address"
        }
      ],
      "stateMutability": "view",
      "type": "function"
    },
    {
      "inputs": [],
      "name": "feeTo",
      "outputs": [
        {
          "internalType": "address",
          "name": "",
          "type": "address"
        }
      ],
      "stateMutability": "view",
      "type": "function"
    },
    {
      "inputs": [
        {
          "internalType": "address",
          "name": "",
          "type": "address"
        },
        {
          "internalType": "address",
          "name": "",
          "type": "address"
        }
      ],
      "name": "getPair",
      "outputs": [
        {
          "internalType": "address",
          "name": "",
          "type": "address"
        }
      ],
      "stateMutability": "view",
      "type": "function"
    },
    {
      "inputs": [],
      "name": "migrator",
      "outputs": [
        {
          "internalType": "address",
          "name": "",
          "type": "address"
        }
      ],
      "stateMutability": "view",
      "type": "function"
    },
    {
      "inputs": [],
      "name": "swapFee",
      "outputs": [
        {
          "internalType": "uint256",
          "name": "",
          "type": "uint256"
        }
      ],
      "stateMutability": "view",
      "type": "function"
    },
    {
      "inputs": [],
      "name": "withdrawFee",
      "outputs": [
        {
          "internalType": "uint256",
          "name": "",
          "type": "uint256"
        }
      ],
      "stateMutability": "view",
      "type": "function"
    },
    {
      "inputs": [],
      "name": "withdrawFeeTo",
      "outputs": [
        {
          "internalType": "address",
          "name": "",
          "type": "address"
        }
      ],
      "stateMutability": "view",
      "type": "function"
    },
    {
      "inputs": [],
      "name": "allPairsLength",
      "outputs": [
        {
          "internalType": "uint256",
          "name": "",
          "type": "uint256"
        }
      ],
      "stateMutability": "view",
      "type": "function"
    },
    {
      "inputs": [],
      "name": "pairCodeHash",
      "outputs": [
        {
          "internalType": "bytes32",
          "name": "",
          "type": "bytes32"
        }
      ],
      "stateMutability": "pure",
      "type": "function"
    },
    {
      "inputs": [
        {
          "internalType": "address",
          "name": "tokenA",
          "type": "address"
        },
        {
          "internalType": "address",
          "name": "tokenB",
          "type": "address"
        }
      ],
      "name": "createPair",
      "outputs": [
        {
          "internalType": "address",
          "name": "pair",
          "type": "address"
        }
      ],
      "stateMutability": "nonpayable",
      "type": "function"
    },
    {
      "inputs": [
        {
          "internalType": "address",
          "name": "_feeTo",
          "type": "address"
        }
      ],
      "name": "setFeeTo",
      "outputs": [],
      "stateMutability": "nonpayable",
      "type": "function"
    },
    {
      "inputs": [
        {
          "internalType": "address",
          "name": "_withdrawFeeTo",
          "type": "address"
        }
      ],
      "name": "setWithdrawFeeTo",
      "outputs": [],
      "stateMutability": "nonpayable",
      "type": "function"
    },
    {
      "inputs": [
        {
          "internalType": "address",
          "name": "_migrator",
          "type": "address"
        }
      ],
      "name": "setMigrator",
      "outputs": [],
      "stateMutability": "nonpayable",
      "type": "function"
    },
    {
      "inputs": [
        {
          "internalType": "address",
          "name": "_feeSetter",
          "type": "address"
        }
      ],
      "name": "setFeeSetter",
      "outputs": [],
      "stateMutability": "nonpayable",
      "type": "function"
    },
    {
      "inputs": [
        {
          "internalType": "uint256",
          "name": "_swapFee",
          "type": "uint256"
        }
      ],
      "name": "setSwapFee",
      "outputs": [],
      "stateMutability": "nonpayable",
      "type": "function"
    }
  ],
  "bytecode": "0x60806040526003600255600160035534801561001a57600080fd5b506040516132583803806132588339818101604052602081101561003d57600080fd5b5051600480546001600160a01b0319166001600160a01b039092169190911790556131eb8061006d6000396000f3fe608060405234801561001057600080fd5b50600436106101005760003560e01c806387cf3ef411610097578063e4dae38711610066578063e4dae3871461023f578063e6a4390514610247578063e941fa7814610275578063f46901ed1461027d57610100565b806387cf3ef4146101db5780639aab9248146101e3578063b19805af146101eb578063c9c653961461021157610100565b806344f18430116100d357806344f184301461018b57806354cf2aeb146101b1578063574f2ba3146101cb5780637cd07e47146101d357610100565b8063017e7e58146101055780631e3dd18b1461012957806323cf31181461014657806334e199071461016e575b600080fd5b61010d6102a3565b604080516001600160a01b039092168252519081900360200190f35b61010d6004803603602081101561013f57600080fd5b50356102b2565b61016c6004803603602081101561015c57600080fd5b50356001600160a01b03166102d9565b005b61016c6004803603602081101561018457600080fd5b503561034d565b61016c600480360360208110156101a157600080fd5b50356001600160a01b0316610444565b6101b96104b8565b60408051918252519081900360200190f35b6101b96104be565b61010d6104c4565b61010d6104d3565b6101b96104e2565b61016c6004803603602081101561020157600080fd5b50356001600160a01b0316610514565b61010d6004803603604081101561022757600080fd5b506001600160a01b0381358116916020013516610588565b61010d6108a5565b61010d6004803603604081101561025d57600080fd5b506001600160a01b03813581169160200135166108b4565b6101b96108da565b61016c6004803603602081101561029357600080fd5b50356001600160a01b03166108e0565b6000546001600160a01b031681565b600781815481106102bf57fe5b6000918252602090912001546001600160a01b0316905081565b6004546001600160a01b0316331461032b576040805162461bcd60e51b815260206004820152601060248201526f2734b735309d102327a92124a22222a760811b604482015290519081900360640190fd5b600580546001600160a01b0319166001600160a01b0392909216919091179055565b6004546001600160a01b0316331461039f576040805162461bcd60e51b815260206004820152601060248201526f2734b735309d102327a92124a22222a760811b604482015290519081900360640190fd5b80600111156103ef576040805162461bcd60e51b81526020600482015260176024820152764e696e6a613a20696e76616c696420737761702066656560481b604482015290519081900360640190fd5b806006101561043f576040805162461bcd60e51b81526020600482015260176024820152764e696e6a613a20696e76616c696420737761702066656560481b604482015290519081900360640190fd5b600255565b6004546001600160a01b03163314610496576040805162461bcd60e51b815260206004820152601060248201526f2734b735309d102327a92124a22222a760811b604482015290519081900360640190fd5b600180546001600160a01b0319166001600160a01b0392909216919091179055565b60025481565b60075490565b6005546001600160a01b031681565b6004546001600160a01b031681565b6000604051806020016104f490610954565b6020820181038252601f19601f8201166040525080519060200120905090565b6004546001600160a01b03163314610566576040805162461bcd60e51b815260206004820152601060248201526f2734b735309d102327a92124a22222a760811b604482015290519081900360640190fd5b600480546001600160a01b0319166001600160a01b0392909216919091179055565b6000816001600160a01b0316836001600160a01b031614156105f1576040805162461bcd60e51b815260206004820152601a60248201527f4e696e6a613a204944454e544943414c5f414444524553534553000000000000604482015290519081900360640190fd5b600080836001600160a01b0316856001600160a01b031610610614578385610617565b84845b90925090506001600160a01b03821661066d576040805162461bcd60e51b81526020600482015260136024820152724e696e6a613a205a45524f5f4144445245535360681b604482015290519081900360640190fd5b6001600160a01b038281166000908152600660209081526040808320858516845290915290205416156106dc576040805162461bcd60e51b81526020600482015260126024820152714e696e6a613a20504149525f45584953545360701b604482015290519081900360640190fd5b6060604051806020016106ee90610954565b6020820181038252601f19601f8201166040525090506000838360405160200180836001600160a01b031660601b8152601401826001600160a01b031660601b815260140192505050604051602081830303815290604052805190602001209050808251602084016000f59450846001600160a01b031663485cc95585856040518363ffffffff1660e01b815260040180836001600160a01b03168152602001826001600160a01b0316815260200192505050600060405180830381600087803b1580156107bb57600080fd5b505af11580156107cf573d6000803e3d6000fd5b505050506001600160a01b0384811660008181526006602081815260408084208987168086529083528185208054978d166001600160a01b031998891681179091559383528185208686528352818520805488168517905560078054600181018255958190527fa66cc928b5edb82af9bd49922954155ab7b0942694bea4ce44661d9a8736c68890950180549097168417909655925483519283529082015281517f0d3648bd0f6ba80134a33ba9275ac585d9d315f0ad8355cddefde31afa28d0e9929181900390910190a35050505092915050565b6001546001600160a01b031681565b60066020908152600092835260408084209091529082529020546001600160a01b031681565b60035481565b6004546001600160a01b03163314610932576040805162461bcd60e51b815260206004820152601060248201526f2734b735309d102327a92124a22222a760811b604482015290519081900360640190fd5b600080546001600160a01b0319166001600160a01b0392909216919091179055565b612854806109628339019056fe60806040526001600c5534801561001557600080fd5b50604080518082018252600e81526d2734b73530902628102a37b5b2b760911b6020918201528151808301835260018152603160f81b9082015281517f8b73c3c69bb8fe3d512ecc4cf759cc79239f7b179b0ffacaa9a75d522b39400f818301527f94cf3e632940438369b46b21db3860394c7d702d43a0602b17af6dccfbbb9d8b818401527fc89efdaa54c0f20c7adf612882df0950f5a951637e0307cdcb4c672f298b8bc660608201524660808201523060a0808301919091528351808303909101815260c09091019092528151910120600355600580546001600160a01b031916331790556127488061010c6000396000f3fe608060405234801561001057600080fd5b50600436106101a95760003560e01c80636a627842116100f9578063ba9a7a5611610097578063d21220a711610071578063d21220a714610534578063d505accf1461053c578063dd62ed3e1461058d578063fff6cae9146105bb576101a9565b8063ba9a7a56146104fe578063bc25cf7714610506578063c45a01551461052c576101a9565b80637ecebe00116100d35780637ecebe001461046557806389afcb441461048b57806395d89b41146104ca578063a9059cbb146104d2576101a9565b80636a6278421461041157806370a08231146104375780637464fc3d1461045d576101a9565b806323b872dd116101665780633644e515116101405780633644e515146103cb578063485cc955146103d35780635909c0d5146104015780635a3d549314610409576101a9565b806323b872dd1461036f57806330adf81f146103a5578063313ce567146103ad576101a9565b8063022c0d9f146101ae57806306fdde031461023c5780630902f1ac146102b9578063095ea7b3146102f15780630dfe16811461033157806318160ddd14610355575b600080fd5b61023a600480360360808110156101c457600080fd5b8135916020810135916001600160a01b0360408301351691908101906080810160608201356401000000008111156101fb57600080fd5b82018360208201111561020d57600080fd5b8035906020019184600183028401116401000000008311171561022f57600080fd5b5090925090506105c3565b005b610244610b5d565b6040805160208082528351818301528351919283929083019185019080838360005b8381101561027e578181015183820152602001610266565b50505050905090810190601f1680156102ab5780820380516001836020036101000a031916815260200191505b509250505060405180910390f35b6102c1610b87565b604080516001600160701b03948516815292909316602083015263ffffffff168183015290519081900360600190f35b61031d6004803603604081101561030757600080fd5b506001600160a01b038135169060200135610bb1565b604080519115158252519081900360200190f35b610339610bc8565b604080516001600160a01b039092168252519081900360200190f35b61035d610bd7565b60408051918252519081900360200190f35b61031d6004803603606081101561038557600080fd5b506001600160a01b03813581169160208101359091169060400135610bdd565b61035d610c71565b6103b5610c95565b6040805160ff9092168252519081900360200190f35b61035d610c9a565b61023a600480360360408110156103e957600080fd5b506001600160a01b0381358116916020013516610ca0565b61035d610d20565b61035d610d26565b61035d6004803603602081101561042757600080fd5b50356001600160a01b0316610d2c565b61035d6004803603602081101561044d57600080fd5b50356001600160a01b03166111a4565b61035d6111b6565b61035d6004803603602081101561047b57600080fd5b50356001600160a01b03166111bc565b6104b1600480360360208110156104a157600080fd5b50356001600160a01b03166111ce565b6040805192835260208301919091528051918290030190f35b6102446115f9565b61031d600480360360408110156104e857600080fd5b506001600160a01b03813516906020013561161d565b61035d61162a565b61023a6004803603602081101561051c57600080fd5b50356001600160a01b0316611630565b61033961179e565b6103396117ad565b61023a600480360360e081101561055257600080fd5b506001600160a01b03813581169160208101359091169060408101359060608101359060ff6080820135169060a08101359060c001356117bc565b61035d600480360360408110156105a357600080fd5b506001600160a01b03813581169160200135166119ba565b61023a6119d7565b600c5460011461060a576040805162461bcd60e51b815260206004820152600d60248201526c139a5b9a984e881313d0d2d151609a1b604482015290519081900360640190fd5b6000600c558415158061061d5750600084115b6106585760405162461bcd60e51b81526004018080602001828103825260218152602001806126f26021913960400191505060405180910390fd5b600080610663610b87565b5091509150816001600160701b0316871080156106885750806001600160701b031686105b6106d9576040805162461bcd60e51b815260206004820152601d60248201527f4e696e6a613a20494e53554646494349454e545f4c4951554944495459000000604482015290519081900360640190fd5b60065460075460009182916001600160a01b039182169190811690891682148015906107175750806001600160a01b0316896001600160a01b031614155b61075c576040805162461bcd60e51b81526020600482015260116024820152704e696e6a613a20494e56414c49445f544f60781b604482015290519081900360640190fd5b8a1561076d5761076d828a8d611b35565b891561077e5761077e818a8c611b35565b861561083057886001600160a01b031663e4d3ae86338d8d8c8c6040518663ffffffff1660e01b815260040180866001600160a01b03168152602001858152602001848152602001806020018281038252848482818152602001925080828437600081840152601f19601f8201169050808301925050509650505050505050600060405180830381600087803b15801561081757600080fd5b505af115801561082b573d6000803e3d6000fd5b505050505b604080516370a0823160e01b815230600482015290516001600160a01b038416916370a08231916024808301926020929190829003018186803b15801561087657600080fd5b505afa15801561088a573d6000803e3d6000fd5b505050506040513d60208110156108a057600080fd5b5051604080516370a0823160e01b815230600482015290519195506001600160a01b038316916370a0823191602480820192602092909190829003018186803b1580156108ec57600080fd5b505afa158015610900573d6000803e3d6000fd5b505050506040513d602081101561091657600080fd5b5051925060009150506001600160701b0385168a90038311610939576000610948565b89856001600160701b03160383035b9050600089856001600160701b0316038311610965576000610974565b89856001600160701b03160383035b905060008211806109855750600081115b6109d6576040805162461bcd60e51b815260206004820181905260248201527f4e696e6a613a20494e53554646494349454e545f494e5055545f414d4f554e54604482015290519081900360640190fd5b600554604080516354cf2aeb60e01b815290516000926001600160a01b0316916354cf2aeb916004808301926020929190829003018186803b158015610a1b57600080fd5b505afa158015610a2f573d6000803e3d6000fd5b505050506040513d6020811015610a4557600080fd5b505190506000610a6a610a588584611cc8565b610a64886103e8611cc8565b90611d28565b90506000610a7b610a588585611cc8565b9050610aa0620f4240610a9a6001600160701b038c8116908c16611cc8565b90611cc8565b610aaa8383611cc8565b1015610ae8576040805162461bcd60e51b81526020600482015260086024820152674e696e6a613a204b60c01b604482015290519081900360640190fd5b505050610af784848888611d6a565b60408051838152602081018390528082018d9052606081018c905290516001600160a01b038b169133917fd78ad95fa46c994b6551d0da85fc275fe613ce37657fb8d5e3d130840159d8229181900360800190a350506001600c55505050505050505050565b6040518060400160405280600e81526020016d2734b73530902628102a37b5b2b760911b81525081565b6008546001600160701b0380821692600160701b830490911691600160e01b900463ffffffff1690565b6000610bbe338484611f25565b5060015b92915050565b6006546001600160a01b031681565b60005481565b6001600160a01b038316600090815260026020908152604080832033845290915281205460001914610c5c576001600160a01b0384166000908152600260209081526040808320338452909152902054610c379083611d28565b6001600160a01b03851660009081526002602090815260408083203384529091529020555b610c67848484611f87565b5060019392505050565b7f6e71edae12b1b97f4d1f60370fef10105fa2faae0126114a169c64845d6126c981565b601281565b60035481565b6005546001600160a01b03163314610cf2576040805162461bcd60e51b815260206004820152601060248201526f2734b735309d102327a92124a22222a760811b604482015290519081900360640190fd5b600680546001600160a01b039384166001600160a01b03199182161790915560078054929093169116179055565b60095481565b600a5481565b6000600c54600114610d75576040805162461bcd60e51b815260206004820152600d60248201526c139a5b9a984e881313d0d2d151609a1b604482015290519081900360640190fd5b6000600c81905580610d85610b87565b50600654604080516370a0823160e01b815230600482015290519395509193506000926001600160a01b03909116916370a08231916024808301926020929190829003018186803b158015610dd957600080fd5b505afa158015610ded573d6000803e3d6000fd5b505050506040513d6020811015610e0357600080fd5b5051600754604080516370a0823160e01b815230600482015290519293506000926001600160a01b03909216916370a0823191602480820192602092909190829003018186803b158015610e5657600080fd5b505afa158015610e6a573d6000803e3d6000fd5b505050506040513d6020811015610e8057600080fd5b505190506000610e99836001600160701b038716611d28565b90506000610eb0836001600160701b038716611d28565b90506000610ebe8787612035565b600054909150806110955760055460408051637cd07e4760e01b815290516000926001600160a01b031691637cd07e47916004808301926020929190829003018186803b158015610f0e57600080fd5b505afa158015610f22573d6000803e3d6000fd5b505050506040513d6020811015610f3857600080fd5b50519050336001600160a01b038216141561101357806001600160a01b03166340dc0e376040518163ffffffff1660e01b815260040160206040518083038186803b158015610f8657600080fd5b505afa158015610f9a573d6000803e3d6000fd5b505050506040513d6020811015610fb057600080fd5b505199508915801590610fc557506000198a14155b61100e576040805162461bcd60e51b81526020600482015260156024820152744261642064657369726564206c697175696469747960581b604482015290519081900360640190fd5b61108f565b6001600160a01b03811615611068576040805162461bcd60e51b815260206004820152601660248201527526bab9ba103737ba103430bb329036b4b3b930ba37b960511b604482015290519081900360640190fd5b6110806103e8610a6461107b8888611cc8565b6121f3565b995061108f60006103e8612245565b506110d8565b6110d56001600160701b0389166110ac8684611cc8565b816110b357fe5b046001600160701b0389166110c88685611cc8565b816110cf57fe5b046122cf565b98505b600089116111175760405162461bcd60e51b81526004018080602001828103825260248152602001806126896024913960400191505060405180910390fd5b6111218a8a612245565b61112d86868a8a611d6a565b811561115757600854611153906001600160701b0380821691600160701b900416611cc8565b600b555b6040805185815260208101859052815133927f4c209b5fc8ad50758f13e2e1088ba56a560dff690a1c6fef26394f4c03821c4f928290030190a250506001600c5550949695505050505050565b60016020526000908152604090205481565b600b5481565b60046020526000908152604090205481565b600080600c54600114611218576040805162461bcd60e51b815260206004820152600d60248201526c139a5b9a984e881313d0d2d151609a1b604482015290519081900360640190fd5b6000600c81905580611228610b87565b50600654600754604080516370a0823160e01b815230600482015290519496509294506001600160a01b039182169391169160009184916370a08231916024808301926020929190829003018186803b15801561128457600080fd5b505afa158015611298573d6000803e3d6000fd5b505050506040513d60208110156112ae57600080fd5b5051604080516370a0823160e01b815230600482015290519192506000916001600160a01b038516916370a08231916024808301926020929190829003018186803b1580156112fc57600080fd5b505afa158015611310573d6000803e3d6000fd5b505050506040513d602081101561132657600080fd5b5051306000908152600160209081526040808320546005548251637cd07e4760e01b8152925195965090946001600160a01b0390911692637cd07e479260048082019391829003018186803b15801561137e57600080fd5b505afa158015611392573d6000803e3d6000fd5b505050506040513d60208110156113a857600080fd5b50519050336001600160a01b038216146113c8576113c5826122e5565b91505b60006113d48989612035565b600054909150806113e58588611cc8565b816113ec57fe5b049b50806113fa8587611cc8565b8161140157fe5b049a5060008c118015611414575060008b115b61144f5760405162461bcd60e51b81526004018080602001828103825260248152602001806126ce6024913960400191505060405180910390fd5b611459308561242c565b611464888e8e611b35565b61146f878e8d611b35565b604080516370a0823160e01b815230600482015290516001600160a01b038a16916370a08231916024808301926020929190829003018186803b1580156114b557600080fd5b505afa1580156114c9573d6000803e3d6000fd5b505050506040513d60208110156114df57600080fd5b5051604080516370a0823160e01b815230600482015290519197506001600160a01b038916916370a0823191602480820192602092909190829003018186803b15801561152b57600080fd5b505afa15801561153f573d6000803e3d6000fd5b505050506040513d602081101561155557600080fd5b5051945061156586868c8c611d6a565b811561158f5760085461158b906001600160701b0380821691600160701b900416611cc8565b600b555b8c6001600160a01b0316336001600160a01b03167fdccd412f0b1252819cb1fd330b93224ca42612892bb3f4f789976e6d819364968e8e604051808381526020018281526020019250505060405180910390a3505050505050505050506001600c81905550915091565b6040518060400160405280600881526020016704e494e4a412d4c560c41b81525081565b6000610bbe338484611f87565b6103e881565b600c54600114611677576040805162461bcd60e51b815260206004820152600d60248201526c139a5b9a984e881313d0d2d151609a1b604482015290519081900360640190fd5b6000600c55600654600754600854604080516370a0823160e01b815230600482015290516001600160a01b039485169490931692611720928592879261171b926001600160701b03169185916370a0823191602480820192602092909190829003018186803b1580156116e957600080fd5b505afa1580156116fd573d6000803e3d6000fd5b505050506040513d602081101561171357600080fd5b505190611d28565b611b35565b611794818461171b6008600e9054906101000a90046001600160701b03166001600160701b0316856001600160a01b03166370a08231306040518263ffffffff1660e01b815260040180826001600160a01b0316815260200191505060206040518083038186803b1580156116e957600080fd5b50506001600c5550565b6005546001600160a01b031681565b6007546001600160a01b031681565b42841015611802576040805162461bcd60e51b815260206004820152600e60248201526d139a5b9a984e881156141254915160921b604482015290519081900360640190fd5b6003546001600160a01b0380891660008181526004602090815260408083208054600180820190925582517f6e71edae12b1b97f4d1f60370fef10105fa2faae0126114a169c64845d6126c98186015280840196909652958d166060860152608085018c905260a085019590955260c08085018b90528151808603909101815260e08501825280519083012061190160f01b6101008601526101028501969096526101228085019690965280518085039096018652610142840180825286519683019690962095839052610162840180825286905260ff89166101828501526101a284018890526101c28401879052519193926101e280820193601f1981019281900390910190855afa15801561191d573d6000803e3d6000fd5b5050604051601f1901519150506001600160a01b038116158015906119535750886001600160a01b0316816001600160a01b0316145b6119a4576040805162461bcd60e51b815260206004820152601860248201527f4e696e6a613a20494e56414c49445f5349474e41545552450000000000000000604482015290519081900360640190fd5b6119af898989611f25565b505050505050505050565b600260209081526000928352604080842090915290825290205481565b600c54600114611a1e576040805162461bcd60e51b815260206004820152600d60248201526c139a5b9a984e881313d0d2d151609a1b604482015290519081900360640190fd5b6000600c55600654604080516370a0823160e01b81523060048201529051611b2e926001600160a01b0316916370a08231916024808301926020929190829003018186803b158015611a6f57600080fd5b505afa158015611a83573d6000803e3d6000fd5b505050506040513d6020811015611a9957600080fd5b5051600754604080516370a0823160e01b815230600482015290516001600160a01b03909216916370a0823191602480820192602092909190829003018186803b158015611ae657600080fd5b505afa158015611afa573d6000803e3d6000fd5b505050506040513d6020811015611b1057600080fd5b50516008546001600160701b0380821691600160701b900416611d6a565b6001600c55565b604080518082018252601981527f7472616e7366657228616464726573732c75696e74323536290000000000000060209182015281516001600160a01b0385811660248301526044808301869052845180840390910181526064909201845291810180516001600160e01b031663a9059cbb60e01b1781529251815160009460609489169392918291908083835b60208310611be25780518252601f199092019160209182019101611bc3565b6001836020036101000a0380198251168184511680821785525050505050509050019150506000604051808303816000865af19150503d8060008114611c44576040519150601f19603f3d011682016040523d82523d6000602084013e611c49565b606091505b5091509150818015611c77575080511580611c775750808060200190516020811015611c7457600080fd5b50515b611cc1576040805162461bcd60e51b8152602060048201526016602482015275139a5b9a984e881514905394d1915497d1905253115160521b604482015290519081900360640190fd5b5050505050565b600082611cd757506000610bc2565b82820282848281611ce457fe5b0414611d215760405162461bcd60e51b81526004018080602001828103825260218152602001806126ad6021913960400191505060405180910390fd5b9392505050565b6000611d2183836040518060400160405280601e81526020017f536166654d6174683a207375627472616374696f6e206f766572666c6f7700008152506124be565b6001600160701b038411801590611d8857506001600160701b038311155b611dcb576040805162461bcd60e51b815260206004820152600f60248201526e4e696e6a613a204f564552464c4f5760881b604482015290519081900360640190fd5b60085463ffffffff42811691600160e01b90048116820390811615801590611dfb57506001600160701b03841615155b8015611e0f57506001600160701b03831615155b15611e7a578063ffffffff16611e3785611e2886612555565b6001600160e01b031690612567565b600980546001600160e01b03929092169290920201905563ffffffff8116611e6284611e2887612555565b600a80546001600160e01b0392909216929092020190555b600880546dffffffffffffffffffffffffffff19166001600160701b03888116919091176dffffffffffffffffffffffffffff60701b1916600160701b8883168102919091176001600160e01b0316600160e01b63ffffffff871602179283905560408051848416815291909304909116602082015281517f1c411e9a96e071241c2f21f7726b17ae89e3cab4c78be50e062b03a9fffbbad1929181900390910190a1505050505050565b6001600160a01b03808416600081815260026020908152604080832094871680845294825291829020859055815185815291517f8c5be1e5ebec7d5bd14f71427d1e84f3dd0314c0f7b2291e5b200ac8c7c3b9259281900390910190a3505050565b6001600160a01b038316600090815260016020526040902054611faa9082611d28565b6001600160a01b038085166000908152600160205260408082209390935590841681522054611fd9908261258c565b6001600160a01b0380841660008181526001602090815260409182902094909455805185815290519193928716927fddf252ad1be2c89b69c2b068fc378daa952ba7f163c4a11628f55a4df523b3ef92918290030190a3505050565b600080600560009054906101000a90046001600160a01b03166001600160a01b031663017e7e586040518163ffffffff1660e01b815260040160206040518083038186803b15801561208657600080fd5b505afa15801561209a573d6000803e3d6000fd5b505050506040513d60208110156120b057600080fd5b5051600554604080516354cf2aeb60e01b815290519293506000926001600160a01b03909216916354cf2aeb91600480820192602092909190829003018186803b1580156120fd57600080fd5b505afa158015612111573d6000803e3d6000fd5b505050506040513d602081101561212757600080fd5b5051600b546001600160a01b0384161580159550919250906121de5780156121d957600061216461107b6001600160701b03898116908916611cc8565b90506000612171836121f3565b9050808211156121d657600061219361218a8484611d28565b60005490611cc8565b905060006121b2836121ac8660001960028b0201611cc8565b9061258c565b905060008183816121bf57fe5b04905080156121d2576121d28882612245565b5050505b50505b6121ea565b80156121ea576000600b555b50505092915050565b60006003821115612236575080600160028204015b818110156122305780915060028182858161221f57fe5b04018161222857fe5b049050612208565b50612240565b8115612240575060015b919050565b600054612252908261258c565b60009081556001600160a01b038316815260016020526040902054612277908261258c565b6001600160a01b03831660008181526001602090815260408083209490945583518581529351929391927fddf252ad1be2c89b69c2b068fc378daa952ba7f163c4a11628f55a4df523b3ef9281900390910190a35050565b60008183106122de5781611d21565b5090919050565b600080600560009054906101000a90046001600160a01b03166001600160a01b031663e4dae3876040518163ffffffff1660e01b815260040160206040518083038186803b15801561233657600080fd5b505afa15801561234a573d6000803e3d6000fd5b505050506040513d602081101561236057600080fd5b505160055460408051631d283f4f60e31b815290519293506000926001600160a01b039092169163e941fa7891600480820192602092909190829003018186803b1580156123ad57600080fd5b505afa1580156123c1573d6000803e3d6000fd5b505050506040513d60208110156123d757600080fd5b505190506001600160a01b038216156124215760006124026103e86123fc8785611cc8565b906125e6565b905061240f308483611b35565b6124198582611d28565b935050612425565b8392505b5050919050565b6001600160a01b03821660009081526001602052604090205461244f9082611d28565b6001600160a01b038316600090815260016020526040812091909155546124769082611d28565b60009081556040805183815290516001600160a01b038516917fddf252ad1be2c89b69c2b068fc378daa952ba7f163c4a11628f55a4df523b3ef919081900360200190a35050565b6000818484111561254d5760405162461bcd60e51b81526004018080602001828103825283818151815260200191508051906020019080838360005b838110156125125781810151838201526020016124fa565b50505050905090810190601f16801561253f5780820380516001836020036101000a031916815260200191505b509250505060405180910390fd5b505050900390565b6001600160701b0316600160701b0290565b60006001600160701b0382166001600160e01b0384168161258457fe5b049392505050565b600082820183811015611d21576040805162461bcd60e51b815260206004820152601b60248201527f536166654d6174683a206164646974696f6e206f766572666c6f770000000000604482015290519081900360640190fd5b6000611d2183836040518060400160405280601a81526020017f536166654d6174683a206469766973696f6e206279207a65726f000000000000815250600081836126725760405162461bcd60e51b81526020600482018181528351602484015283519092839260449091019190850190808383600083156125125781810151838201526020016124fa565b50600083858161267e57fe5b049594505050505056fe4e696e6a613a20494e53554646494349454e545f4c49515549444954595f4d494e544544536166654d6174683a206d756c7469706c69636174696f6e206f766572666c6f774e696e6a613a20494e53554646494349454e545f4c49515549444954595f4255524e45444e696e6a613a20494e53554646494349454e545f4f55545055545f414d4f554e54a2646970667358221220884e86a54299d22a6837c53646b5d1f112462ff5f88cb730bacb25dfc09c90ee64736f6c634300060c0033a2646970667358221220a69c0c77caa331efac969af18ae633c6f8a5160a786a034a5e7c5fb5fe16d76064736f6c634300060c0033",
  "immutableReferences": {},
  "source": "// SPDX-License-Identifier: MIT\n\n// File: contracts/interfaces/INinjaFactory.sol\n\npragma solidity >=0.5.0;\n\ninterface INinjaFactory {\n    event PairCreated(address indexed token0, address indexed token1, address pair, uint);\n\n    function feeTo() external view returns (address);\n    function withdrawFeeTo() external view returns (address);\n    function swapFee() external view returns (uint);\n    function withdrawFee() external view returns (uint);\n    \n    function feeSetter() external view returns (address);\n    function migrator() external view returns (address);\n\n    function getPair(address tokenA, address tokenB) external view returns (address pair);\n    function allPairs(uint) external view returns (address pair);\n    function allPairsLength() external view returns (uint);\n\n    function createPair(address tokenA, address tokenB) external returns (address pair);\n\n    function setFeeTo(address) external;\n    function setWithdrawFeeTo(address) external;\n    function setSwapFee(uint) external;\n    function setFeeSetter(address) external;\n    function setMigrator(address) external;\n}\n\n// File: contracts/interfaces/IBEP20.sol\n\npragma solidity >=0.5.0;\n\ninterface IBEP20 {\n    event Approval(address indexed owner, address indexed spender, uint value);\n    event Transfer(address indexed from, address indexed to, uint value);\n\n    function name() external view returns (string memory);\n    function symbol() external view returns (string memory);\n    function decimals() external view returns (uint8);\n    function totalSupply() external view returns (uint);\n    function balanceOf(address owner) external view returns (uint);\n    function allowance(address owner, address spender) external view returns (uint);\n\n    function approve(address spender, uint value) external returns (bool);\n    function transfer(address to, uint value) external returns (bool);\n    function transferFrom(address from, address to, uint value) external returns (bool);\n}\n\n// File: @openzeppelin/contracts/math/SafeMath.sol\n\n\n\npragma solidity >=0.6.0 <0.8.0;\n\n/**\n * @dev Wrappers over Solidity's arithmetic operations with added overflow\n * checks.\n *\n * Arithmetic operations in Solidity wrap on overflow. This can easily result\n * in bugs, because programmers usually assume that an overflow raises an\n * error, which is the standard behavior in high level programming languages.\n * `SafeMath` restores this intuition by reverting the transaction when an\n * operation overflows.\n *\n * Using this library instead of the unchecked operations eliminates an entire\n * class of bugs, so it's recommended to use it always.\n */\nlibrary SafeMath {\n    /**\n     * @dev Returns the addition of two unsigned integers, reverting on\n     * overflow.\n     *\n     * Counterpart to Solidity's `+` operator.\n     *\n     * Requirements:\n     *\n     * - Addition cannot overflow.\n     */\n    function add(uint256 a, uint256 b) internal pure returns (uint256) {\n        uint256 c = a + b;\n        require(c >= a, \"SafeMath: addition overflow\");\n\n        return c;\n    }\n\n    /**\n     * @dev Returns the subtraction of two unsigned integers, reverting on\n     * overflow (when the result is negative).\n     *\n     * Counterpart to Solidity's `-` operator.\n     *\n     * Requirements:\n     *\n     * - Subtraction cannot overflow.\n     */\n    function sub(uint256 a, uint256 b) internal pure returns (uint256) {\n        return sub(a, b, \"SafeMath: subtraction overflow\");\n    }\n\n    /**\n     * @dev Returns the subtraction of two unsigned integers, reverting with custom message on\n     * overflow (when the result is negative).\n     *\n     * Counterpart to Solidity's `-` operator.\n     *\n     * Requirements:\n     *\n     * - Subtraction cannot overflow.\n     */\n    function sub(uint256 a, uint256 b, string memory errorMessage) internal pure returns (uint256) {\n        require(b <= a, errorMessage);\n        uint256 c = a - b;\n\n        return c;\n    }\n\n    /**\n     * @dev Returns the multiplication of two unsigned integers, reverting on\n     * overflow.\n     *\n     * Counterpart to Solidity's `*` operator.\n     *\n     * Requirements:\n     *\n     * - Multiplication cannot overflow.\n     */\n    function mul(uint256 a, uint256 b) internal pure returns (uint256) {\n        // Gas optimization: this is cheaper than requiring 'a' not being zero, but the\n        // benefit is lost if 'b' is also tested.\n        // See: https://github.com/OpenZeppelin/openzeppelin-contracts/pull/522\n        if (a == 0) {\n            return 0;\n        }\n\n        uint256 c = a * b;\n        require(c / a == b, \"SafeMath: multiplication overflow\");\n\n        return c;\n    }\n\n    /**\n     * @dev Returns the integer division of two unsigned integers. Reverts on\n     * division by zero. The result is rounded towards zero.\n     *\n     * Counterpart to Solidity's `/` operator. Note: this function uses a\n     * `revert` opcode (which leaves remaining gas untouched) while Solidity\n     * uses an invalid opcode to revert (consuming all remaining gas).\n     *\n     * Requirements:\n     *\n     * - The divisor cannot be zero.\n     */\n    function div(uint256 a, uint256 b) internal pure returns (uint256) {\n        return div(a, b, \"SafeMath: division by zero\");\n    }\n\n    /**\n     * @dev Returns the integer division of two unsigned integers. Reverts with custom message on\n     * division by zero. The result is rounded towards zero.\n     *\n     * Counterpart to Solidity's `/` operator. Note: this function uses a\n     * `revert` opcode (which leaves remaining gas untouched) while Solidity\n     * uses an invalid opcode to revert (consuming all remaining gas).\n     *\n     * Requirements:\n     *\n     * - The divisor cannot be zero.\n     */\n    function div(uint256 a, uint256 b, string memory errorMessage) internal pure returns (uint256) {\n        require(b > 0, errorMessage);\n        uint256 c = a / b;\n        // assert(a == b * c + a % b); // There is no case in which this doesn't hold\n\n        return c;\n    }\n\n    /**\n     * @dev Returns the remainder of dividing two unsigned integers. (unsigned integer modulo),\n     * Reverts when dividing by zero.\n     *\n     * Counterpart to Solidity's `%` operator. This function uses a `revert`\n     * opcode (which leaves remaining gas untouched) while Solidity uses an\n     * invalid opcode to revert (consuming all remaining gas).\n     *\n     * Requirements:\n     *\n     * - The divisor cannot be zero.\n     */\n    function mod(uint256 a, uint256 b) internal pure returns (uint256) {\n        return mod(a, b, \"SafeMath: modulo by zero\");\n    }\n\n    /**\n     * @dev Returns the remainder of dividing two unsigned integers. (unsigned integer modulo),\n     * Reverts with custom message when dividing by zero.\n     *\n     * Counterpart to Solidity's `%` operator. This function uses a `revert`\n     * opcode (which leaves remaining gas untouched) while Solidity uses an\n     * invalid opcode to revert (consuming all remaining gas).\n     *\n     * Requirements:\n     *\n     * - The divisor cannot be zero.\n     */\n    function mod(uint256 a, uint256 b, string memory errorMessage) internal pure returns (uint256) {\n        require(b != 0, errorMessage);\n        return a % b;\n    }\n}\n\n// File: contracts/NinjaBEP20.sol\n\npragma solidity =0.6.12;\n\n\ncontract NinjaBEP20 {\n    using SafeMath for uint;\n\n    string public constant name = 'Ninja LP Token';\n    string public constant symbol = 'NINJA-LP';\n    uint8 public constant decimals = 18;\n    uint  public totalSupply;\n    mapping(address => uint) public balanceOf;\n    mapping(address => mapping(address => uint)) public allowance;\n\n    bytes32 public DOMAIN_SEPARATOR;\n    // keccak256(\"Permit(address owner,address spender,uint256 value,uint256 nonce,uint256 deadline)\");\n    bytes32 public constant PERMIT_TYPEHASH = 0x6e71edae12b1b97f4d1f60370fef10105fa2faae0126114a169c64845d6126c9;\n    mapping(address => uint) public nonces;\n\n    event Approval(address indexed owner, address indexed spender, uint value);\n    event Transfer(address indexed from, address indexed to, uint value);\n\n    constructor() public {\n        uint chainId;\n        assembly {\n            chainId := chainid()\n        }\n        DOMAIN_SEPARATOR = keccak256(\n            abi.encode(\n                keccak256('EIP712Domain(string name,string version,uint256 chainId,address verifyingContract)'),\n                keccak256(bytes(name)),\n                keccak256(bytes('1')),\n                chainId,\n                address(this)\n            )\n        );\n    }\n\n    function _mint(address to, uint value) internal {\n        totalSupply = totalSupply.add(value);\n        balanceOf[to] = balanceOf[to].add(value);\n        emit Transfer(address(0), to, value);\n    }\n\n    function _burn(address from, uint value) internal {\n        balanceOf[from] = balanceOf[from].sub(value);\n        totalSupply = totalSupply.sub(value);\n        emit Transfer(from, address(0), value);\n    }\n\n    function _approve(address owner, address spender, uint value) private {\n        allowance[owner][spender] = value;\n        emit Approval(owner, spender, value);\n    }\n\n    function _transfer(address from, address to, uint value) private {\n        balanceOf[from] = balanceOf[from].sub(value);\n        balanceOf[to] = balanceOf[to].add(value);\n        emit Transfer(from, to, value);\n    }\n\n    function approve(address spender, uint value) external returns (bool) {\n        _approve(msg.sender, spender, value);\n        return true;\n    }\n\n    function transfer(address to, uint value) external returns (bool) {\n        _transfer(msg.sender, to, value);\n        return true;\n    }\n\n    function transferFrom(address from, address to, uint value) external returns (bool) {\n        if (allowance[from][msg.sender] != uint(-1)) {\n            allowance[from][msg.sender] = allowance[from][msg.sender].sub(value);\n        }\n        _transfer(from, to, value);\n        return true;\n    }\n\n    function permit(address owner, address spender, uint value, uint deadline, uint8 v, bytes32 r, bytes32 s) external {\n        require(deadline >= block.timestamp, 'Ninja: EXPIRED');\n        bytes32 digest = keccak256(\n            abi.encodePacked(\n                '\\x19\\x01',\n                DOMAIN_SEPARATOR,\n                keccak256(abi.encode(PERMIT_TYPEHASH, owner, spender, value, nonces[owner]++, deadline))\n            )\n        );\n        address recoveredAddress = ecrecover(digest, v, r, s);\n        require(recoveredAddress != address(0) && recoveredAddress == owner, 'Ninja: INVALID_SIGNATURE');\n        _approve(owner, spender, value);\n    }\n}\n\n// File: contracts/libraries/Math.sol\n\npragma solidity =0.6.12;\n\n// a library for performing various math operations\n\nlibrary Math {\n    function min(uint x, uint y) internal pure returns (uint z) {\n        z = x < y ? x : y;\n    }\n\n    // babylonian method (https://en.wikipedia.org/wiki/Methods_of_computing_square_roots#Babylonian_method)\n    function sqrt(uint y) internal pure returns (uint z) {\n        if (y > 3) {\n            z = y;\n            uint x = y / 2 + 1;\n            while (x < z) {\n                z = x;\n                x = (y / x + x) / 2;\n            }\n        } else if (y != 0) {\n            z = 1;\n        }\n    }\n}\n\n// File: contracts/libraries/UQ112x112.sol\n\npragma solidity =0.6.12;\n\n// a library for handling binary fixed point numbers (https://en.wikipedia.org/wiki/Q_(number_format))\n\n// range: [0, 2**112 - 1]\n// resolution: 1 / 2**112\n\nlibrary UQ112x112 {\n    uint224 constant Q112 = 2**112;\n\n    // encode a uint112 as a UQ112x112\n    function encode(uint112 y) internal pure returns (uint224 z) {\n        z = uint224(y) * Q112; // never overflows\n    }\n\n    // divide a UQ112x112 by a uint112, returning a UQ112x112\n    function uqdiv(uint224 x, uint112 y) internal pure returns (uint224 z) {\n        z = x / uint224(y);\n    }\n}\n\n// File: contracts/interfaces/INinjaCallee.sol\n\npragma solidity >=0.5.0;\n\ninterface INinjaCallee {\n    function ninjaCall(address sender, uint amount0, uint amount1, bytes calldata data) external;\n}\n\n// File: contracts/NinjaPair.sol\n\npragma solidity =0.6.12;\n\n\n\n\n\n\n\n\n\ninterface IMigrator {\n    // Return the desired amount of liquidity token that the migrator wants.\n    function desiredLiquidity() external view returns (uint256);\n}\n\ncontract NinjaPair is NinjaBEP20 {\n    using SafeMath  for uint;\n    using UQ112x112 for uint224;\n\n    uint public constant MINIMUM_LIQUIDITY = 10**3;\n    bytes4 private constant SELECTOR = bytes4(keccak256(bytes('transfer(address,uint256)')));\n\n    address public factory;\n    address public token0;\n    address public token1;\n\n    uint112 private reserve0;           // uses single storage slot, accessible via getReserves\n    uint112 private reserve1;           // uses single storage slot, accessible via getReserves\n    uint32  private blockTimestampLast; // uses single storage slot, accessible via getReserves\n\n    uint public price0CumulativeLast;\n    uint public price1CumulativeLast;\n    uint public kLast; // reserve0 * reserve1, as of immediately after the most recent liquidity event\n\n    uint private unlocked = 1;\n    modifier lock() {\n        require(unlocked == 1, 'Ninja: LOCKED');\n        unlocked = 0;\n        _;\n        unlocked = 1;\n    }\n\n    function getReserves() public view returns (uint112 _reserve0, uint112 _reserve1, uint32 _blockTimestampLast) {\n        _reserve0 = reserve0;\n        _reserve1 = reserve1;\n        _blockTimestampLast = blockTimestampLast;\n    }\n\n    function _safeTransfer(address token, address to, uint value) private {\n        (bool success, bytes memory data) = token.call(abi.encodeWithSelector(SELECTOR, to, value));\n        require(success && (data.length == 0 || abi.decode(data, (bool))), 'Ninja: TRANSFER_FAILED');\n    }\n\n    event Mint(address indexed sender, uint amount0, uint amount1);\n    event Burn(address indexed sender, uint amount0, uint amount1, address indexed to);\n    event Swap(\n        address indexed sender,\n        uint amount0In,\n        uint amount1In,\n        uint amount0Out,\n        uint amount1Out,\n        address indexed to\n    );\n    event Sync(uint112 reserve0, uint112 reserve1);\n\n    constructor() public {\n        factory = msg.sender;\n    }\n\n    // called once by the factory at time of deployment\n    function initialize(address _token0, address _token1) external {\n        require(msg.sender == factory, 'Ninja: FORBIDDEN'); // sufficient check\n        token0 = _token0;\n        token1 = _token1;\n    }\n\n    // update reserves and, on the first call per block, price accumulators\n    function _update(uint balance0, uint balance1, uint112 _reserve0, uint112 _reserve1) private {\n        require(balance0 <= uint112(-1) && balance1 <= uint112(-1), 'Ninja: OVERFLOW');\n        uint32 blockTimestamp = uint32(block.timestamp % 2**32);\n        uint32 timeElapsed = blockTimestamp - blockTimestampLast; // overflow is desired\n        if (timeElapsed > 0 && _reserve0 != 0 && _reserve1 != 0) {\n            // * never overflows, and + overflow is desired\n            price0CumulativeLast += uint(UQ112x112.encode(_reserve1).uqdiv(_reserve0)) * timeElapsed;\n            price1CumulativeLast += uint(UQ112x112.encode(_reserve0).uqdiv(_reserve1)) * timeElapsed;\n        }\n        reserve0 = uint112(balance0);\n        reserve1 = uint112(balance1);\n        blockTimestampLast = blockTimestamp;\n        emit Sync(reserve0, reserve1);\n    }\n\n    // if fee is on, mint liquidity equivalent to 1/6th of the growth in sqrt(k)\n    function _mintFee(uint112 _reserve0, uint112 _reserve1) private returns (bool feeOn) {\n        address feeTo = INinjaFactory(factory).feeTo();\n        uint fee = INinjaFactory(factory).swapFee();\n        feeOn = feeTo != address(0);\n        uint _kLast = kLast; // gas savings\n        if (feeOn) {\n            if (_kLast != 0) {\n                uint rootK = Math.sqrt(uint(_reserve0).mul(_reserve1));\n                uint rootKLast = Math.sqrt(_kLast);\n                if (rootK > rootKLast) {\n                    uint numerator = totalSupply.mul(rootK.sub(rootKLast));\n                    uint denominator = rootK.mul(fee * 2 - 1).add(rootKLast);\n                    uint liquidity = numerator / denominator;\n                    if (liquidity > 0) _mint(feeTo, liquidity);\n                }\n            }\n        } else if (_kLast != 0) {\n            kLast = 0;\n        }\n    }\n\n    function _chargeWithdrawFee(uint liquidity) private returns (uint returnLiquidity) {\n        address withdrawFeeTo = INinjaFactory(factory).withdrawFeeTo();\n        uint withdrawFee = INinjaFactory(factory).withdrawFee();\n        if (withdrawFeeTo != address(0)) {\n            uint fee = liquidity.mul(withdrawFee).div(1000);\n            _safeTransfer(address(this), withdrawFeeTo, fee);\n            returnLiquidity = liquidity.sub(fee);\n        }\n        else {\n            returnLiquidity = liquidity;\n        }\n    }\n\n    // this low-level function should be called from a contract which performs important safety checks\n    function mint(address to) external lock returns (uint liquidity) {\n        (uint112 _reserve0, uint112 _reserve1,) = getReserves(); // gas savings\n        uint balance0 = IBEP20(token0).balanceOf(address(this));\n        uint balance1 = IBEP20(token1).balanceOf(address(this));\n        uint amount0 = balance0.sub(_reserve0);\n        uint amount1 = balance1.sub(_reserve1);\n\n        bool feeOn = _mintFee(_reserve0, _reserve1);\n        uint _totalSupply = totalSupply; // gas savings, must be defined here since totalSupply can update in _mintFee\n        if (_totalSupply == 0) {\n            address migrator = INinjaFactory(factory).migrator();\n            if (msg.sender == migrator) {\n                liquidity = IMigrator(migrator).desiredLiquidity();\n                require(liquidity > 0 && liquidity != uint256(-1), \"Bad desired liquidity\");\n            } else {\n                require(migrator == address(0), \"Must not have migrator\");\n                liquidity = Math.sqrt(amount0.mul(amount1)).sub(MINIMUM_LIQUIDITY);\n                _mint(address(0), MINIMUM_LIQUIDITY); // permanently lock the first MINIMUM_LIQUIDITY tokens\n            }\n        } else {\n            liquidity = Math.min(amount0.mul(_totalSupply) / _reserve0, amount1.mul(_totalSupply) / _reserve1);\n        }\n        require(liquidity > 0, 'Ninja: INSUFFICIENT_LIQUIDITY_MINTED');\n        _mint(to, liquidity);\n\n        _update(balance0, balance1, _reserve0, _reserve1);\n        if (feeOn) kLast = uint(reserve0).mul(reserve1); // reserve0 and reserve1 are up-to-date\n        emit Mint(msg.sender, amount0, amount1);\n    }\n\n    // this low-level function should be called from a contract which performs important safety checks\n    function burn(address to) external lock returns (uint amount0, uint amount1) {\n        (uint112 _reserve0, uint112 _reserve1,) = getReserves(); // gas savings\n        address _token0 = token0;                                // gas savings\n        address _token1 = token1;                                // gas savings\n        uint balance0 = IBEP20(_token0).balanceOf(address(this));\n        uint balance1 = IBEP20(_token1).balanceOf(address(this));\n        uint liquidity = balanceOf[address(this)];\n        \n        address migrator = INinjaFactory(factory).migrator();\n        if (msg.sender != migrator) {\n            liquidity = _chargeWithdrawFee(liquidity);\n        }\n\n        bool feeOn = _mintFee(_reserve0, _reserve1);\n        uint _totalSupply = totalSupply; // gas savings, must be defined here since totalSupply can update in _mintFee\n        amount0 = liquidity.mul(balance0) / _totalSupply; // using balances ensures pro-rata distribution\n        amount1 = liquidity.mul(balance1) / _totalSupply; // using balances ensures pro-rata distribution\n        require(amount0 > 0 && amount1 > 0, 'Ninja: INSUFFICIENT_LIQUIDITY_BURNED');\n        _burn(address(this), liquidity);\n        _safeTransfer(_token0, to, amount0);\n        _safeTransfer(_token1, to, amount1);\n        balance0 = IBEP20(_token0).balanceOf(address(this));\n        balance1 = IBEP20(_token1).balanceOf(address(this));\n\n        _update(balance0, balance1, _reserve0, _reserve1);\n        if (feeOn) kLast = uint(reserve0).mul(reserve1); // reserve0 and reserve1 are up-to-date\n        emit Burn(msg.sender, amount0, amount1, to);\n    }\n\n    // this low-level function should be called from a contract which performs important safety checks\n    function swap(uint amount0Out, uint amount1Out, address to, bytes calldata data) external lock {\n        require(amount0Out > 0 || amount1Out > 0, 'Ninja: INSUFFICIENT_OUTPUT_AMOUNT');\n        (uint112 _reserve0, uint112 _reserve1,) = getReserves(); // gas savings\n        require(amount0Out < _reserve0 && amount1Out < _reserve1, 'Ninja: INSUFFICIENT_LIQUIDITY');\n\n        uint balance0;\n        uint balance1;\n        { // scope for _token{0,1}, avoids stack too deep errors\n        address _token0 = token0;\n        address _token1 = token1;\n        require(to != _token0 && to != _token1, 'Ninja: INVALID_TO');\n        if (amount0Out > 0) _safeTransfer(_token0, to, amount0Out); // optimistically transfer tokens\n        if (amount1Out > 0) _safeTransfer(_token1, to, amount1Out); // optimistically transfer tokens\n        if (data.length > 0) INinjaCallee(to).ninjaCall(msg.sender, amount0Out, amount1Out, data);\n        balance0 = IBEP20(_token0).balanceOf(address(this));\n        balance1 = IBEP20(_token1).balanceOf(address(this));\n        }\n        uint amount0In = balance0 > _reserve0 - amount0Out ? balance0 - (_reserve0 - amount0Out) : 0;\n        uint amount1In = balance1 > _reserve1 - amount1Out ? balance1 - (_reserve1 - amount1Out) : 0;\n        require(amount0In > 0 || amount1In > 0, 'Ninja: INSUFFICIENT_INPUT_AMOUNT');\n        { // scope for reserve{0,1}Adjusted, avoids stack too deep errors\n        uint fee = INinjaFactory(factory).swapFee();\n        uint balance0Adjusted = balance0.mul(1000).sub(amount0In.mul(fee));\n        uint balance1Adjusted = balance1.mul(1000).sub(amount1In.mul(fee));\n        require(balance0Adjusted.mul(balance1Adjusted) >= uint(_reserve0).mul(_reserve1).mul(1000**2), 'Ninja: K');\n        }\n\n        _update(balance0, balance1, _reserve0, _reserve1);\n        emit Swap(msg.sender, amount0In, amount1In, amount0Out, amount1Out, to);\n    }\n\n    // force balances to match reserves\n    function skim(address to) external lock {\n        address _token0 = token0; // gas savings\n        address _token1 = token1; // gas savings\n        _safeTransfer(_token0, to, IBEP20(_token0).balanceOf(address(this)).sub(reserve0));\n        _safeTransfer(_token1, to, IBEP20(_token1).balanceOf(address(this)).sub(reserve1));\n    }\n\n    // force reserves to match balances\n    function sync() external lock {\n        _update(IBEP20(token0).balanceOf(address(this)), IBEP20(token1).balanceOf(address(this)), reserve0, reserve1);\n    }\n}\n\n// File: contracts/NinjaFactory.sol\n\npragma solidity =0.6.12;\n\n\n\ncontract NinjaFactory is INinjaFactory {\n    address public override feeTo;\n    address public override withdrawFeeTo;\n    \n    uint public override swapFee = 3; // 0.3% = 3/1000\n    uint public override withdrawFee = 1; // 0.1% = 1/1000\n\n    address public override feeSetter;\n    address public override migrator;\n\n    mapping(address => mapping(address => address)) public override getPair;\n    address[] public override allPairs;\n\n    event PairCreated(address indexed token0, address indexed token1, address pair, uint);\n\n    constructor(address _feeSetter) public {\n        feeSetter = _feeSetter;\n    }\n\n    function allPairsLength() external override view returns (uint) {\n        return allPairs.length;\n    }\n\n    function pairCodeHash() external pure returns (bytes32) {\n        return keccak256(type(NinjaPair).creationCode);\n    }\n\n    function createPair(address tokenA, address tokenB) external override returns (address pair) {\n        require(tokenA != tokenB, 'Ninja: IDENTICAL_ADDRESSES');\n        (address token0, address token1) = tokenA < tokenB ? (tokenA, tokenB) : (tokenB, tokenA);\n        require(token0 != address(0), 'Ninja: ZERO_ADDRESS');\n        require(getPair[token0][token1] == address(0), 'Ninja: PAIR_EXISTS'); // single check is sufficient\n        bytes memory bytecode = type(NinjaPair).creationCode;\n        bytes32 salt = keccak256(abi.encodePacked(token0, token1));\n        assembly {\n            pair := create2(0, add(bytecode, 32), mload(bytecode), salt)\n        }\n        NinjaPair(pair).initialize(token0, token1);\n        getPair[token0][token1] = pair;\n        getPair[token1][token0] = pair; // populate mapping in the reverse direction\n        allPairs.push(pair);\n        emit PairCreated(token0, token1, pair, allPairs.length);\n    }\n\n    function setFeeTo(address _feeTo) external override {\n        require(msg.sender == feeSetter, 'Ninja: FORBIDDEN');\n        feeTo = _feeTo;\n    }\n\n    function setWithdrawFeeTo(address _withdrawFeeTo) external override {\n        require(msg.sender == feeSetter, 'Ninja: FORBIDDEN');\n        withdrawFeeTo = _withdrawFeeTo;\n    }\n\n    function setMigrator(address _migrator) external override {\n        require(msg.sender == feeSetter, 'Ninja: FORBIDDEN');\n        migrator = _migrator;\n    }\n\n    function setFeeSetter(address _feeSetter) external override {\n        require(msg.sender == feeSetter, 'Ninja: FORBIDDEN');\n        feeSetter = _feeSetter;\n    }\n\n    function setSwapFee(uint _swapFee) external override {\n        require(msg.sender == feeSetter, 'Ninja: FORBIDDEN');\n        require(1 <= _swapFee, \"Ninja: invalid swap fee\"); // 0.1% = 1/1000\n        require(6 >= _swapFee, \"Ninja: invalid swap fee\"); // 0.6% = 6/1000\n        swapFee = _swapFee;\n    }\n}",
  "sourcePath": "/home/adeel/Desktop/ninjaswap-core/contracts/swap/NinjaFactory.sol",
  "compiler": {
    "name": "solc",
    "version": "0.6.12+commit.27d51765.Emscripten.clang"
  },
  "schemaVersion": "3.3.4",
  "updatedAt": "2021-02-26T04:52:12.270Z",
  "devdoc": {
    "kind": "dev",
    "methods": {},
    "version": 1
  },
  "userdoc": {
    "kind": "user",
    "methods": {},
    "version": 1
  }
}