{
  "contractName": "NinjaTeam",
  "abi": [
    {
      "inputs": [
        {
          "internalType": "address",
          "name": "_Donatello",
          "type": "address"
        },
        {
          "internalType": "address",
          "name": "_Raphael",
          "type": "address"
        },
        {
          "internalType": "address",
          "name": "_Michelangelo",
          "type": "address"
        },
        {
          "internalType": "address",
          "name": "_Leonardo",
          "type": "address"
        },
        {
          "internalType": "contract IERC20",
          "name": "_ninja",
          "type": "address"
        }
      ],
      "stateMutability": "nonpayable",
      "type": "constructor"
    },
    {
      "inputs": [],
      "name": "Donatello",
      "outputs": [
        {
          "internalType": "address",
          "name": "",
          "type": "address"
        }
      ],
      "stateMutability": "view",
      "type": "function"
    },
    {
      "inputs": [],
      "name": "Leonardo",
      "outputs": [
        {
          "internalType": "address",
          "name": "",
          "type": "address"
        }
      ],
      "stateMutability": "view",
      "type": "function"
    },
    {
      "inputs": [],
      "name": "Michelangelo",
      "outputs": [
        {
          "internalType": "address",
          "name": "",
          "type": "address"
        }
      ],
      "stateMutability": "view",
      "type": "function"
    },
    {
      "inputs": [],
      "name": "NINJA",
      "outputs": [
        {
          "internalType": "contract IERC20",
          "name": "",
          "type": "address"
        }
      ],
      "stateMutability": "view",
      "type": "function"
    },
    {
      "inputs": [],
      "name": "Raphael",
      "outputs": [
        {
          "internalType": "address",
          "name": "",
          "type": "address"
        }
      ],
      "stateMutability": "view",
      "type": "function"
    },
    {
      "inputs": [
        {
          "internalType": "address",
          "name": "_Donatello",
          "type": "address"
        }
      ],
      "name": "updateDonatelloAdd",
      "outputs": [],
      "stateMutability": "nonpayable",
      "type": "function"
    },
    {
      "inputs": [
        {
          "internalType": "address",
          "name": "_Raphael",
          "type": "address"
        }
      ],
      "name": "updateRaphaelAdd",
      "outputs": [],
      "stateMutability": "nonpayable",
      "type": "function"
    },
    {
      "inputs": [
        {
          "internalType": "address",
          "name": "_Michelangelo",
          "type": "address"
        }
      ],
      "name": "updateMichelangeloAdd",
      "outputs": [],
      "stateMutability": "nonpayable",
      "type": "function"
    },
    {
      "inputs": [
        {
          "internalType": "address",
          "name": "_Leonardo",
          "type": "address"
        }
      ],
      "name": "updateLeonardoAdd",
      "outputs": [],
      "stateMutability": "nonpayable",
      "type": "function"
    },
    {
      "inputs": [],
      "name": "withdrawNINJA",
      "outputs": [],
      "stateMutability": "nonpayable",
      "type": "function"
    },
    {
      "inputs": [
        {
          "internalType": "address",
          "name": "newNinja",
          "type": "address"
        }
      ],
      "name": "updateNinjaAdd",
      "outputs": [],
      "stateMutability": "nonpayable",
      "type": "function"
    },
    {
      "inputs": [],
      "name": "availableNinja",
      "outputs": [
        {
          "internalType": "uint256",
          "name": "",
          "type": "uint256"
        }
      ],
      "stateMutability": "view",
      "type": "function"
    }
  ],
  "bytecode": "0x608060405234801561001057600080fd5b50604051610db3380380610db3833981810160405260a081101561003357600080fd5b508051602082015160408301516060840151608090940151600080546001600160a01b039586166001600160a01b03199182161790915560018054948616948216949094179093556002805492851692841692909217909155600380549484169483169490941790935560048054929093169116179055610cfa806100b96000396000f3fe608060405234801561001057600080fd5b50600436106100b45760003560e01c8063ab3b2abb11610071578063ab3b2abb14610173578063ca13453114610199578063d3bcf6d1146101bf578063e69e87ac146101c7578063eb5392ff146101cf578063ed7259db146101d7576100b4565b806315447d08146100b95780632f1b19bf146100e157806337378b30146100e9578063526cfddf1461010f5780635c91bdd014610135578063855e216814610159575b600080fd5b6100df600480360360208110156100cf57600080fd5b50356001600160a01b03166101df565b005b6100df61028f565b6100df600480360360208110156100ff57600080fd5b50356001600160a01b031661042a565b6100df6004803603602081101561012557600080fd5b50356001600160a01b03166104da565b61013d61058a565b604080516001600160a01b039092168252519081900360200190f35b610161610599565b60408051918252519081900360200190f35b6100df6004803603602081101561018957600080fd5b50356001600160a01b0316610619565b6100df600480360360208110156101af57600080fd5b50356001600160a01b03166106c9565b61013d6107d4565b61013d6107e3565b61013d6107f2565b61013d610801565b6000546001600160a01b031633148061020257506001546001600160a01b031633145b8061021757506002546001600160a01b031633145b8061022c57506003546001600160a01b031633145b61026d576040805162461bcd60e51b815260206004820152600d60248201526c2737902832b936b4b9b9b4b7b760991b604482015290519081900360640190fd5b600380546001600160a01b0319166001600160a01b0392909216919091179055565b6000546001600160a01b03163314806102b257506001546001600160a01b031633145b806102c757506002546001600160a01b031633145b806102dc57506003546001600160a01b031633145b61031d576040805162461bcd60e51b815260206004820152600d60248201526c2737902832b936b4b9b9b4b7b760991b604482015290519081900360640190fd5b60048054604080516370a0823160e01b81523093810193909352516000926001600160a01b03909216916370a08231916024808301926020929190829003018186803b15801561036c57600080fd5b505afa158015610380573d6000803e3d6000fd5b505050506040513d602081101561039657600080fd5b5051905060006103b260646103ac846021610810565b90610872565b905060006103cb6103c4836002610810565b84906108d9565b6000546004549192506103eb916001600160a01b03908116911684610936565b600154600454610408916001600160a01b03918216911684610936565b600254600454610425916001600160a01b03918216911683610936565b505050565b6000546001600160a01b031633148061044d57506001546001600160a01b031633145b8061046257506002546001600160a01b031633145b8061047757506003546001600160a01b031633145b6104b8576040805162461bcd60e51b815260206004820152600d60248201526c2737902832b936b4b9b9b4b7b760991b604482015290519081900360640190fd5b600080546001600160a01b0319166001600160a01b0392909216919091179055565b6000546001600160a01b03163314806104fd57506001546001600160a01b031633145b8061051257506002546001600160a01b031633145b8061052757506003546001600160a01b031633145b610568576040805162461bcd60e51b815260206004820152600d60248201526c2737902832b936b4b9b9b4b7b760991b604482015290519081900360640190fd5b600280546001600160a01b0319166001600160a01b0392909216919091179055565b6000546001600160a01b031681565b60048054604080516370a0823160e01b81523093810193909352516000926001600160a01b03909216916370a08231916024808301926020929190829003018186803b1580156105e857600080fd5b505afa1580156105fc573d6000803e3d6000fd5b505050506040513d602081101561061257600080fd5b5051905090565b6000546001600160a01b031633148061063c57506001546001600160a01b031633145b8061065157506002546001600160a01b031633145b8061066657506003546001600160a01b031633145b6106a7576040805162461bcd60e51b815260206004820152600d60248201526c2737902832b936b4b9b9b4b7b760991b604482015290519081900360640190fd5b600180546001600160a01b0319166001600160a01b0392909216919091179055565b6000546001600160a01b03163314806106ec57506001546001600160a01b031633145b8061070157506002546001600160a01b031633145b8061071657506003546001600160a01b031633145b610757576040805162461bcd60e51b815260206004820152600d60248201526c2737902832b936b4b9b9b4b7b760991b604482015290519081900360640190fd5b6001600160a01b0381166107b2576040805162461bcd60e51b815260206004820152601b60248201527f4e696e6a6120546f6b656e206164647265737320696e76616c69640000000000604482015290519081900360640190fd5b600480546001600160a01b0319166001600160a01b0392909216919091179055565b6001546001600160a01b031681565b6004546001600160a01b031681565b6003546001600160a01b031681565b6002546001600160a01b031681565b60008261081f5750600061086c565b8282028284828161082c57fe5b04146108695760405162461bcd60e51b8152600401808060200182810382526021815260200180610c7a6021913960400191505060405180910390fd5b90505b92915050565b60008082116108c8576040805162461bcd60e51b815260206004820152601a60248201527f536166654d6174683a206469766973696f6e206279207a65726f000000000000604482015290519081900360640190fd5b8183816108d157fe5b049392505050565b600082821115610930576040805162461bcd60e51b815260206004820152601e60248201527f536166654d6174683a207375627472616374696f6e206f766572666c6f770000604482015290519081900360640190fd5b50900390565b604080516001600160a01b038416602482015260448082018490528251808303909101815260649091019091526020810180516001600160e01b031663a9059cbb60e01b17905261042590849060606109d8826040518060400160405280602081526020017f5361666545524332303a206c6f772d6c6576656c2063616c6c206661696c6564815250856001600160a01b0316610a349092919063ffffffff16565b805190915015610425578080602001905160208110156109f757600080fd5b50516104255760405162461bcd60e51b815260040180806020018281038252602a815260200180610c9b602a913960400191505060405180910390fd5b6060610a438484600085610a4d565b90505b9392505050565b606082471015610a8e5760405162461bcd60e51b8152600401808060200182810382526026815260200180610c546026913960400191505060405180910390fd5b610a9785610ba9565b610ae8576040805162461bcd60e51b815260206004820152601d60248201527f416464726573733a2063616c6c20746f206e6f6e2d636f6e7472616374000000604482015290519081900360640190fd5b60006060866001600160a01b031685876040518082805190602001908083835b60208310610b275780518252601f199092019160209182019101610b08565b6001836020036101000a03801982511681845116808217855250505050505090500191505060006040518083038185875af1925050503d8060008114610b89576040519150601f19603f3d011682016040523d82523d6000602084013e610b8e565b606091505b5091509150610b9e828286610baf565b979650505050505050565b3b151590565b60608315610bbe575081610a46565b825115610bce5782518084602001fd5b8160405162461bcd60e51b81526004018080602001828103825283818151815260200191508051906020019080838360005b83811015610c18578181015183820152602001610c00565b50505050905090810190601f168015610c455780820380516001836020036101000a031916815260200191505b509250505060405180910390fdfe416464726573733a20696e73756666696369656e742062616c616e636520666f722063616c6c536166654d6174683a206d756c7469706c69636174696f6e206f766572666c6f775361666545524332303a204552433230206f7065726174696f6e20646964206e6f742073756363656564a2646970667358221220a53835a36d3bafa26e88e6a68451fc5dd70aa8f5f4c9a595140e55e90d12148764736f6c634300060c0033",
  "immutableReferences": {},
  "source": "// SPDX-License-Identifier: MIT\npragma solidity 0.6.12;\n\nimport \"@openzeppelin/contracts/math/SafeMath.sol\";\nimport \"@openzeppelin/contracts/token/ERC20/IERC20.sol\";\nimport \"@openzeppelin/contracts/token/ERC20/SafeERC20.sol\";\ncontract NinjaTeam {\n    using SafeERC20 for IERC20;\n    using SafeMath for uint256;\n    address public Donatello; // 0.3x\n    address public Raphael;  // 0.3x\n    address public Michelangelo; //0.3x\n    address public Leonardo; //0.1x\n    IERC20 public NINJA;\n\n    constructor(\n            address  _Donatello,\n            address  _Raphael,\n            address  _Michelangelo,\n            address  _Leonardo,\n            IERC20 _ninja\n\n    ) public {\n            Donatello = _Donatello;\n            Raphael = _Raphael;\n            Michelangelo = _Michelangelo;\n            Leonardo = _Leonardo;\n            NINJA = _ninja;\n    }\n\n      modifier onlyTeam() {\n        require(\n            Donatello == msg.sender || Raphael == msg.sender || Michelangelo == msg.sender || Leonardo  == msg.sender,\n            \"No Permission\"\n        );\n        _;\n    }\n    function updateDonatelloAdd(address _Donatello) public onlyTeam {\n        Donatello = _Donatello;\n    }\n    function updateRaphaelAdd(address _Raphael) public onlyTeam {\n        Raphael = _Raphael;\n    }\n    function updateMichelangeloAdd(address _Michelangelo) public onlyTeam {\n        Michelangelo = _Michelangelo;\n    }\n    function updateLeonardoAdd(address _Leonardo) public onlyTeam {\n        Leonardo = _Leonardo;\n    }\n\n     function withdrawNINJA() public onlyTeam {\n        uint256 balance = NINJA.balanceOf(address(this));\n        uint256 x33 = balance.mul(33).div(100);\n        uint256 x34 = balance.sub(x33.mul(2));\n        NINJA.safeTransfer(Donatello, x33);\n        NINJA.safeTransfer(Raphael, x33);\n        NINJA.safeTransfer(Michelangelo, x34);\n    }\n\n    function updateNinjaAdd(address newNinja) public onlyTeam {\n        // incase of change Ninja\n        require(newNinja != address(0), \"Ninja Token address invalid\");\n        NINJA = IERC20(newNinja);\n    }\n    function availableNinja() public view returns (uint256) {\n        return NINJA.balanceOf(address(this));\n    }\n\n}\n",
  "sourcePath": "/home/zawaz/Desktop/ninjaswap-core/contracts/NinjaTeam.sol",
  "compiler": {
    "name": "solc",
    "version": "0.6.12+commit.27d51765.Emscripten.clang"
  },
  "schemaVersion": "3.3.4",
  "updatedAt": "2021-07-05T07:15:34.176Z",
  "devdoc": {
    "kind": "dev",
    "methods": {},
    "version": 1
  },
  "userdoc": {
    "kind": "user",
    "methods": {},
    "version": 1
  }
}