{
  "contractName": "NinjaAMO",
  "abi": [
    {
      "inputs": [
        {
          "internalType": "contract IBondingCurve",
          "name": "_curve",
          "type": "address"
        },
        {
          "internalType": "contract NinjaToken",
          "name": "_ninja",
          "type": "address"
        },
        {
          "internalType": "contract NinjaTeam",
          "name": "_team",
          "type": "address"
        }
      ],
      "stateMutability": "nonpayable",
      "type": "constructor"
    },
    {
      "anonymous": false,
      "inputs": [
        {
          "indexed": false,
          "internalType": "address",
          "name": "sender",
          "type": "address"
        },
        {
          "indexed": false,
          "internalType": "uint256",
          "name": "amount",
          "type": "uint256"
        },
        {
          "indexed": false,
          "internalType": "uint256",
          "name": "deposit",
          "type": "uint256"
        }
      ],
      "name": "Minted",
      "type": "event"
    },
    {
      "anonymous": false,
      "inputs": [
        {
          "indexed": true,
          "internalType": "address",
          "name": "previousOwner",
          "type": "address"
        },
        {
          "indexed": true,
          "internalType": "address",
          "name": "newOwner",
          "type": "address"
        }
      ],
      "name": "OwnershipTransferred",
      "type": "event"
    },
    {
      "anonymous": false,
      "inputs": [
        {
          "indexed": true,
          "internalType": "address",
          "name": "beneficiary",
          "type": "address"
        },
        {
          "indexed": true,
          "internalType": "address",
          "name": "account",
          "type": "address"
        },
        {
          "indexed": false,
          "internalType": "uint256",
          "name": "amount",
          "type": "uint256"
        }
      ],
      "name": "ReferrerEarned",
      "type": "event"
    },
    {
      "inputs": [],
      "name": "CURVE",
      "outputs": [
        {
          "internalType": "contract IBondingCurve",
          "name": "",
          "type": "address"
        }
      ],
      "stateMutability": "view",
      "type": "function"
    },
    {
      "inputs": [],
      "name": "NINJA",
      "outputs": [
        {
          "internalType": "contract NinjaToken",
          "name": "",
          "type": "address"
        }
      ],
      "stateMutability": "view",
      "type": "function"
    },
    {
      "inputs": [],
      "name": "Team",
      "outputs": [
        {
          "internalType": "contract NinjaTeam",
          "name": "",
          "type": "address"
        }
      ],
      "stateMutability": "view",
      "type": "function"
    },
    {
      "inputs": [
        {
          "internalType": "address",
          "name": "",
          "type": "address"
        }
      ],
      "name": "bonus",
      "outputs": [
        {
          "internalType": "uint256",
          "name": "count",
          "type": "uint256"
        },
        {
          "internalType": "uint256",
          "name": "amount",
          "type": "uint256"
        }
      ],
      "stateMutability": "view",
      "type": "function"
    },
    {
      "inputs": [
        {
          "internalType": "address",
          "name": "",
          "type": "address"
        }
      ],
      "name": "deposits",
      "outputs": [
        {
          "internalType": "uint256",
          "name": "",
          "type": "uint256"
        }
      ],
      "stateMutability": "view",
      "type": "function"
    },
    {
      "inputs": [],
      "name": "hardcap",
      "outputs": [
        {
          "internalType": "uint256",
          "name": "",
          "type": "uint256"
        }
      ],
      "stateMutability": "view",
      "type": "function"
    },
    {
      "inputs": [],
      "name": "owner",
      "outputs": [
        {
          "internalType": "address",
          "name": "",
          "type": "address"
        }
      ],
      "stateMutability": "view",
      "type": "function"
    },
    {
      "inputs": [
        {
          "internalType": "address",
          "name": "",
          "type": "address"
        }
      ],
      "name": "purchases",
      "outputs": [
        {
          "internalType": "uint256",
          "name": "",
          "type": "uint256"
        }
      ],
      "stateMutability": "view",
      "type": "function"
    },
    {
      "inputs": [],
      "name": "renounceOwnership",
      "outputs": [],
      "stateMutability": "nonpayable",
      "type": "function"
    },
    {
      "inputs": [],
      "name": "reserveRatio",
      "outputs": [
        {
          "internalType": "uint32",
          "name": "",
          "type": "uint32"
        }
      ],
      "stateMutability": "view",
      "type": "function"
    },
    {
      "inputs": [],
      "name": "softcap",
      "outputs": [
        {
          "internalType": "uint256",
          "name": "",
          "type": "uint256"
        }
      ],
      "stateMutability": "view",
      "type": "function"
    },
    {
      "inputs": [],
      "name": "totalNinjaSold",
      "outputs": [
        {
          "internalType": "uint256",
          "name": "",
          "type": "uint256"
        }
      ],
      "stateMutability": "view",
      "type": "function"
    },
    {
      "inputs": [
        {
          "internalType": "address",
          "name": "newOwner",
          "type": "address"
        }
      ],
      "name": "transferOwnership",
      "outputs": [],
      "stateMutability": "nonpayable",
      "type": "function"
    },
    {
      "inputs": [],
      "name": "virtualBalance",
      "outputs": [
        {
          "internalType": "uint256",
          "name": "",
          "type": "uint256"
        }
      ],
      "stateMutability": "view",
      "type": "function"
    },
    {
      "inputs": [],
      "name": "virtualSupply",
      "outputs": [
        {
          "internalType": "uint256",
          "name": "",
          "type": "uint256"
        }
      ],
      "stateMutability": "view",
      "type": "function"
    },
    {
      "stateMutability": "payable",
      "type": "receive"
    },
    {
      "inputs": [
        {
          "internalType": "uint256",
          "name": "_softcap",
          "type": "uint256"
        },
        {
          "internalType": "uint256",
          "name": "_hardcap",
          "type": "uint256"
        }
      ],
      "name": "initialize",
      "outputs": [],
      "stateMutability": "nonpayable",
      "type": "function"
    },
    {
      "inputs": [
        {
          "internalType": "uint256",
          "name": "_deposit",
          "type": "uint256"
        }
      ],
      "name": "buy",
      "outputs": [],
      "stateMutability": "payable",
      "type": "function"
    },
    {
      "inputs": [
        {
          "internalType": "address",
          "name": "_referrer",
          "type": "address"
        },
        {
          "internalType": "uint256",
          "name": "_deposit",
          "type": "uint256"
        }
      ],
      "name": "buyWithRef",
      "outputs": [],
      "stateMutability": "payable",
      "type": "function"
    },
    {
      "inputs": [
        {
          "internalType": "uint256",
          "name": "_reserveTokenAmount",
          "type": "uint256"
        }
      ],
      "name": "getEstimatedContinuousMintReward",
      "outputs": [
        {
          "internalType": "uint256",
          "name": "",
          "type": "uint256"
        }
      ],
      "stateMutability": "view",
      "type": "function"
    },
    {
      "inputs": [],
      "name": "withdrawBNB",
      "outputs": [],
      "stateMutability": "nonpayable",
      "type": "function"
    }
  ],
  "bytecode": "0x60806040526801f399b1438a1000006005556006805463ffffffff1916620186a017905569fe1c215e8f838e00000060075534801561003d57600080fd5b506040516114643803806114648339818101604052606081101561006057600080fd5b5080516020820151604090920151909190600061007b610107565b600080546001600160a01b0319166001600160a01b0383169081178255604051929350917f8be0079c531659141344cd1fd0a4f28419497f9722a3daafe3b4186f6b6457e0908290a350600380546001600160a01b039485166001600160a01b03199182161790915560048054938516938216939093179092556009805491909316911617905561010b565b3390565b61134a8061011a6000396000f3fe6080604052600436106101225760003560e01c80638da5cb5b116100a0578063e4a3011611610064578063e4a3011614610342578063e69e87ac14610372578063f2fde38b14610387578063f89be593146103ba578063fc7e286d146103cf57610132565b80638da5cb5b1461029a578063b071cbe6146102af578063d8cb4aa3146102c4578063d96a094a14610310578063dcd2af171461032d57610132565b80633a3c3b87116100e75780633a3c3b87146101e05780633f550dd914610211578063639e01dd1461023d578063715018a614610252578063842a77d31461026757610132565b8062478c5b146101375780630ae56c73146101735780630c7d5cd8146101885780631d111d13146101b6578063277b2f97146101cb57610132565b366101325761013034610402565b005b600080fd5b34801561014357600080fd5b506101616004803603602081101561015a57600080fd5b5035610549565b60408051918252519081900360200190f35b34801561017f57600080fd5b506101616105ea565b34801561019457600080fd5b5061019d6105f0565b6040805163ffffffff9092168252519081900360200190f35b3480156101c257600080fd5b506101306105fc565b3480156101d757600080fd5b50610161610954565b3480156101ec57600080fd5b506101f561095a565b604080516001600160a01b039092168252519081900360200190f35b6101306004803603604081101561022757600080fd5b506001600160a01b038135169060200135610969565b34801561024957600080fd5b506101f5610bfc565b34801561025e57600080fd5b50610130610c0b565b34801561027357600080fd5b506101616004803603602081101561028a57600080fd5b50356001600160a01b0316610cb7565b3480156102a657600080fd5b506101f5610cc9565b3480156102bb57600080fd5b50610161610cd8565b3480156102d057600080fd5b506102f7600480360360208110156102e757600080fd5b50356001600160a01b0316610cde565b6040805192835260208301919091528051918290030190f35b6101306004803603602081101561032657600080fd5b5035610402565b34801561033957600080fd5b50610161610cf7565b34801561034e57600080fd5b506101306004803603604081101561036557600080fd5b5080359060200135610cfd565b34801561037e57600080fd5b506101f5610e29565b34801561039357600080fd5b50610130600480360360208110156103aa57600080fd5b50356001600160a01b0316610e38565b3480156103c657600080fd5b50610161610f3a565b3480156103db57600080fd5b50610161600480360360208110156103f257600080fd5b50356001600160a01b0316610f40565b600254600854106104445760405162461bcd60e51b815260040180806020018281038252602b815260200180611285602b913960400191505060405180910390fd5b80341461045057600080fd5b3361045a57600080fd5b600081116104af576040805162461bcd60e51b815260206004820152601e60248201527f4465706f736974204d7573742047726561746572207468656e207a65726f0000604482015290519081900360640190fd5b60006104ba82610549565b905060006104d460646104ce84600a610f52565b90610fb4565b6004805460408051633f61796560e11b8152928301849052519293506001600160a01b031691637ec2f2ca9160248082019260009290919082900301818387803b15801561052157600080fd5b505af1158015610535573d6000803e3d6000fd5b5050505061054483338461101b565b505050565b60035460075460055460065460408051630a68039f60e21b81526004810194909452602484019290925263ffffffff16604483015260648201849052516000926001600160a01b0316916329a00e7c916084808301926020929190829003018186803b1580156105b857600080fd5b505afa1580156105cc573d6000803e3d6000fd5b505050506040513d60208110156105e257600080fd5b505192915050565b60085481565b60065463ffffffff1681565b610604611200565b6001600160a01b0316610615610cc9565b6001600160a01b03161461065e576040805162461bcd60e51b815260206004820181905260248201526000805160206112d1833981519152604482015290519081900360640190fd5b47600061067160646104ce84601e610f52565b9050600061068560646104ce85600a610f52565b9050600960009054906101000a90046001600160a01b03166001600160a01b0316635c91bdd06040518163ffffffff1660e01b815260040160206040518083038186803b1580156106d557600080fd5b505afa1580156106e9573d6000803e3d6000fd5b505050506040513d60208110156106ff57600080fd5b50516040516001600160a01b039091169083156108fc029084906000818181858888f19350505050158015610738573d6000803e3d6000fd5b50600960009054906101000a90046001600160a01b03166001600160a01b031663d3bcf6d16040518163ffffffff1660e01b815260040160206040518083038186803b15801561078757600080fd5b505afa15801561079b573d6000803e3d6000fd5b505050506040513d60208110156107b157600080fd5b50516040516001600160a01b039091169083156108fc029084906000818181858888f193505050501580156107ea573d6000803e3d6000fd5b50600960009054906101000a90046001600160a01b03166001600160a01b031663ed7259db6040518163ffffffff1660e01b815260040160206040518083038186803b15801561083957600080fd5b505afa15801561084d573d6000803e3d6000fd5b505050506040513d602081101561086357600080fd5b50516040516001600160a01b039091169083156108fc029084906000818181858888f1935050505015801561089c573d6000803e3d6000fd5b50600960009054906101000a90046001600160a01b03166001600160a01b031663eb5392ff6040518163ffffffff1660e01b815260040160206040518083038186803b1580156108eb57600080fd5b505afa1580156108ff573d6000803e3d6000fd5b505050506040513d602081101561091557600080fd5b50516040516001600160a01b039091169082156108fc029083906000818181858888f1935050505015801561094e573d6000803e3d6000fd5b50505050565b60075481565b6003546001600160a01b031681565b600254600854106109ab5760405162461bcd60e51b815260040180806020018281038252602b815260200180611285602b913960400191505060405180910390fd5b8034146109b757600080fd5b336109c157600080fd5b60008111610a16576040805162461bcd60e51b815260206004820152601e60248201527f4465706f736974204d7573742047726561746572207468656e207a65726f0000604482015290519081900360640190fd5b6001600160a01b038216610a71576040805162461bcd60e51b815260206004820152601860248201527f526566657272616c20636f646520697320696e76616c69640000000000000000604482015290519081900360640190fd5b6001600160a01b038216331415610ab95760405162461bcd60e51b81526004018080602001828103825260248152602001806112f16024913960400191505060405180910390fd5b6000610ac482610549565b90506000610ad860646104ce84600a610f52565b60048054604080516340c10f1960e01b81526001600160a01b03898116948201949094526024810185905290519394509116916340c10f199160448082019260009290919082900301818387803b158015610b3257600080fd5b505af1158015610b46573d6000803e3d6000fd5b50505050610b5583338461101b565b6001600160a01b0384166000908152600b6020526040902054610b79906001611204565b6001600160a01b0385166000908152600b6020526040902090815560010154610ba29082611204565b6001600160a01b0385166000818152600b6020908152604091829020600101939093558051848152905133937f43cf41831fc24bf8fb2d20fc28d9390003ee2b6a2e7a8b9d87c628d18c247a74928290030190a350505050565b6009546001600160a01b031681565b610c13611200565b6001600160a01b0316610c24610cc9565b6001600160a01b031614610c6d576040805162461bcd60e51b815260206004820181905260248201526000805160206112d1833981519152604482015290519081900360640190fd5b600080546040516001600160a01b03909116907f8be0079c531659141344cd1fd0a4f28419497f9722a3daafe3b4186f6b6457e0908390a3600080546001600160a01b0319169055565b600c6020526000908152604090205481565b6000546001600160a01b031690565b60025481565b600b602052600090815260409020805460019091015482565b60055481565b610d05611200565b6001600160a01b0316610d16610cc9565b6001600160a01b031614610d5f576040805162461bcd60e51b815260206004820181905260248201526000805160206112d1833981519152604482015290519081900360640190fd5b69d3c21bcecceda1000000821115610dbe576040805162461bcd60e51b815260206004820152601f60248201527f4d6178696d756d20736f667463617020314d206e696e6a6120546f6b656e7300604482015290519081900360640190fd5b6a01a784379d99db42000000811115610e1e576040805162461bcd60e51b815260206004820152601f60248201527f4d6178696d756d206861726463617020324d206e696e6a6120546f6b656e7300604482015290519081900360640190fd5b600191909155600255565b6004546001600160a01b031681565b610e40611200565b6001600160a01b0316610e51610cc9565b6001600160a01b031614610e9a576040805162461bcd60e51b815260206004820181905260248201526000805160206112d1833981519152604482015290519081900360640190fd5b6001600160a01b038116610edf5760405162461bcd60e51b815260040180806020018281038252602681526020018061125f6026913960400191505060405180910390fd5b600080546040516001600160a01b03808516939216917f8be0079c531659141344cd1fd0a4f28419497f9722a3daafe3b4186f6b6457e091a3600080546001600160a01b0319166001600160a01b0392909216919091179055565b60015481565b600a6020526000908152604090205481565b600082610f6157506000610fae565b82820282848281610f6e57fe5b0414610fab5760405162461bcd60e51b81526004018080602001828103825260218152602001806112b06021913960400191505060405180910390fd5b90505b92915050565b600080821161100a576040805162461bcd60e51b815260206004820152601a60248201527f536166654d6174683a206469766973696f6e206279207a65726f000000000000604482015290519081900360640190fd5b81838161101357fe5b049392505050565b60048054604080516340c10f1960e01b81526001600160a01b038681169482019490945260248101859052905192909116916340c10f199160448082019260009290919082900301818387803b15801561107457600080fd5b505af1158015611088573d6000803e3d6000fd5b5050505060006110a760646104ce601e85610f5290919063ffffffff16565b60048054600954604080516340c10f1960e01b81526001600160a01b0392831694810194909452602484018590525193945016916340c10f199160448082019260009290919082900301818387803b15801561110257600080fd5b505af1158015611116573d6000803e3d6000fd5b50506005546111289250905085611204565b6005556007546111389083611204565b6007556008546111489083611204565b6008556001600160a01b0383166000908152600a602052604090205461116e9085611204565b6001600160a01b0384166000908152600a6020908152604080832093909355600c9052205461119d9083611204565b6001600160a01b0384166000818152600c602090815260409182902093909355805191825291810184905280820186905290517f25b428dfde728ccfaddad7e29e4ac23c24ed7fd1a6e3e3f91894a9a073f5dfff9181900360600190a150505050565b3390565b600082820183811015610fab576040805162461bcd60e51b815260206004820152601b60248201527f536166654d6174683a206164646974696f6e206f766572666c6f770000000000604482015290519081900360640190fdfe4f776e61626c653a206e6577206f776e657220697320746865207a65726f20616464726573734e696e6a61414d4f2053746f70706564203a2053616c657320726561636865642061742068617264636170536166654d6174683a206d756c7469706c69636174696f6e206f766572666c6f774f776e61626c653a2063616c6c6572206973206e6f7420746865206f776e6572596f752063616e27742075736520796f7572206f776e20726566657272616c20636f6465a26469706673582212202126044417736c53d94a8ffcab23bb6a38ac218fc2b5e6bb6736a6c56427f00164736f6c634300060c0033",
  "immutableReferences": {},
  "source": "// SPDX-License-Identifier: MIT\n\npragma solidity ^0.6.0;\n\nimport \"./BondingCurve/IBondingCurve.sol\";\nimport \"./NinjaToken.sol\";\nimport \"./NinjaTeam.sol\";\n\ncontract NinjaAMO is Ownable {\n    using SafeMath for uint256;\n\n    uint256 public softcap; //Max 1M Ninja tokens soft cap\n    uint256 public hardcap; //Max 2M Ninja tokens hard cap\n    IBondingCurve public CURVE;\n    NinjaToken public NINJA;\n    uint256 public virtualBalance = 36000000000000000000; //virtual start with 36 BNB to adjust price for Curve\n    uint32 public reserveRatio = 100000; // 100 000 ppm = %10 Connector Weight\n    uint256 public virtualSupply = 1200000000000000000000000; //virtual supply as 1200000 minted already\n    uint256 public totalNinjaSold;\n    NinjaTeam public Team;\n\n    struct ReferralBonus {\n        uint256 count;\n        uint256 amount;\n    }\n\n    mapping(address => uint256) public deposits;\n    mapping(address => ReferralBonus) public bonus;\n    mapping(address => uint256) public purchases;\n\n    event ReferrerEarned(\n        address indexed beneficiary,\n        address indexed account,\n        uint256 amount\n    );\n    event Minted(address sender, uint256 amount, uint256 deposit);\n    constructor(\n        IBondingCurve _curve,\n        NinjaToken _ninja,\n        NinjaTeam  _team\n    ) public {\n        CURVE = _curve;\n        NINJA = _ninja;\n        Team = _team;                       \n    }\n\n    receive() external payable {\n        buy(msg.value);\n    }\n    function initialize(uint256 _softcap, uint256 _hardcap) public onlyOwner {\n        require(_softcap <= 1000000000000000000000000, \"Maximum softcap 1M ninja Tokens\");\n        require(_hardcap <= 2000000000000000000000000, \"Maximum hardcap 2M ninja Tokens\");\n        softcap = _softcap;\n        hardcap = _hardcap;    \n    }\n    // simple buy without Referral\n    function buy(uint256 _deposit) public payable whenHardCapNotReached {\n        require(msg.value == _deposit);\n        require(msg.sender != address(0));\n        require(_deposit > 0, \"Deposit Must Greater then zero\");\n        uint256 estimate = getEstimatedContinuousMintReward(_deposit);\n        uint256 _masterChefShare = estimate.mul(10).div(100); // 0.1x \n        NINJA.addRewardMWallet(_masterChefShare);\n        _buy(_deposit, msg.sender, estimate);\n    }\n\n    //buy with Refferral\n    function buyWithRef(address _referrer, uint256 _deposit)\n        public\n        payable\n        whenHardCapNotReached\n    {\n        require(msg.value == _deposit);\n        require(msg.sender != address(0));\n        require(_deposit > 0, \"Deposit Must Greater then zero\");\n        require(_referrer != address(0), \"Referral code is invalid\");\n        require(_referrer != msg.sender,\"You can't use your own referral code\");\n        uint256 estimate = getEstimatedContinuousMintReward(_deposit);\n        uint256 _refferalShare = estimate.mul(10).div(100); // 0.1x \n        NINJA.mint(_referrer, _refferalShare);\n        _buy(_deposit, msg.sender, estimate);\n        bonus[_referrer].count = bonus[_referrer].count.add(1);\n        bonus[_referrer].amount = bonus[_referrer].amount.add(_refferalShare);\n        emit ReferrerEarned(_referrer, msg.sender, _refferalShare);\n        \n    }\n    function getEstimatedContinuousMintReward(uint256 _reserveTokenAmount)\n        public\n        view\n        returns (uint256)\n    {\n        return\n            CURVE.calculatePurchaseReturn(\n                virtualSupply,\n                virtualBalance,\n                reserveRatio,\n                _reserveTokenAmount\n            );\n    }\n\n   function withdrawBNB() public onlyOwner {\n        uint256 BnbBal = address(this).balance;\n        uint256 x3 = BnbBal.mul(30).div(100);\n        uint256 x1 = BnbBal.mul(10).div(100);\n        payable(Team.Donatello()).transfer(x3);\n        payable(Team.Raphael()).transfer(x3);\n        payable(Team.Michelangelo()).transfer(x3);\n        payable(Team.Leonardo()).transfer(x1);\n    }\n    function _buy(uint256 _deposit, address _user, uint256 _estimate) private {\n        NINJA.mint(_user, _estimate);\n        uint256 _teamShare = _estimate.mul(30).div(100); // 0.3x \n        NINJA.mint(address(Team), _teamShare);\n        virtualBalance = virtualBalance.add(_deposit);\n        virtualSupply = virtualSupply.add(_estimate);\n        totalNinjaSold = totalNinjaSold.add(_estimate);\n        deposits[_user] = deposits[_user].add(_deposit);\n        purchases[_user] = purchases[_user].add(_estimate);\n        emit Minted(_user, _estimate, _deposit);\n    }\n    modifier whenHardCapNotReached() {\n        require(\n            totalNinjaSold < hardcap,\n            \"NinjaAMO Stopped : Sales reached at hardcap\"\n        );\n        _;\n    }\n\n}\n",
  "sourcePath": "/home/zawaz/Desktop/ninjaswap-core/contracts/NinjaAMO.sol",
  "compiler": {
    "name": "solc",
    "version": "0.6.12+commit.27d51765.Emscripten.clang"
  },
  "schemaVersion": "3.3.4",
  "updatedAt": "2021-07-05T07:15:34.096Z",
  "devdoc": {
    "kind": "dev",
    "methods": {
      "owner()": {
        "details": "Returns the address of the current owner."
      },
      "renounceOwnership()": {
        "details": "Leaves the contract without owner. It will not be possible to call `onlyOwner` functions anymore. Can only be called by the current owner. NOTE: Renouncing ownership will leave the contract without an owner, thereby removing any functionality that is only available to the owner."
      },
      "transferOwnership(address)": {
        "details": "Transfers ownership of the contract to a new account (`newOwner`). Can only be called by the current owner."
      }
    },
    "version": 1
  },
  "userdoc": {
    "kind": "user",
    "methods": {},
    "version": 1
  }
}