{
  "contractName": "NinjaBounty",
  "abi": [
    {
      "anonymous": false,
      "inputs": [
        {
          "indexed": true,
          "internalType": "address",
          "name": "previousOwner",
          "type": "address"
        },
        {
          "indexed": true,
          "internalType": "address",
          "name": "newOwner",
          "type": "address"
        }
      ],
      "name": "OwnershipTransferred",
      "type": "event"
    },
    {
      "inputs": [],
      "name": "AVAILABLE_NINJA_FOR_AIRDROP",
      "outputs": [
        {
          "internalType": "uint256",
          "name": "",
          "type": "uint256"
        }
      ],
      "stateMutability": "view",
      "type": "function"
    },
    {
      "inputs": [],
      "name": "AVAILABLE_NINJA_FOR_BOUNTY",
      "outputs": [
        {
          "internalType": "uint256",
          "name": "",
          "type": "uint256"
        }
      ],
      "stateMutability": "view",
      "type": "function"
    },
    {
      "inputs": [],
      "name": "owner",
      "outputs": [
        {
          "internalType": "address",
          "name": "",
          "type": "address"
        }
      ],
      "stateMutability": "view",
      "type": "function"
    },
    {
      "inputs": [],
      "name": "renounceOwnership",
      "outputs": [],
      "stateMutability": "nonpayable",
      "type": "function"
    },
    {
      "inputs": [],
      "name": "token",
      "outputs": [
        {
          "internalType": "contract IERC20",
          "name": "",
          "type": "address"
        }
      ],
      "stateMutability": "view",
      "type": "function"
    },
    {
      "inputs": [
        {
          "internalType": "address",
          "name": "newOwner",
          "type": "address"
        }
      ],
      "name": "transferOwnership",
      "outputs": [],
      "stateMutability": "nonpayable",
      "type": "function"
    },
    {
      "inputs": [
        {
          "internalType": "address[]",
          "name": "recipients",
          "type": "address[]"
        },
        {
          "internalType": "uint256[]",
          "name": "values",
          "type": "uint256[]"
        }
      ],
      "name": "exchangeStake",
      "outputs": [],
      "stateMutability": "nonpayable",
      "type": "function"
    },
    {
      "inputs": [
        {
          "internalType": "address[]",
          "name": "recipients",
          "type": "address[]"
        },
        {
          "internalType": "uint256[]",
          "name": "values",
          "type": "uint256[]"
        }
      ],
      "name": "airdrop",
      "outputs": [],
      "stateMutability": "nonpayable",
      "type": "function"
    },
    {
      "inputs": [],
      "name": "emergencyWithdraw",
      "outputs": [],
      "stateMutability": "nonpayable",
      "type": "function"
    },
    {
      "inputs": [],
      "name": "availableNinja",
      "outputs": [
        {
          "internalType": "uint256",
          "name": "",
          "type": "uint256"
        }
      ],
      "stateMutability": "view",
      "type": "function"
    },
    {
      "inputs": [
        {
          "internalType": "address",
          "name": "newNinja",
          "type": "address"
        }
      ],
      "name": "updateNinjaAdd",
      "outputs": [],
      "stateMutability": "nonpayable",
      "type": "function"
    }
  ],
  "bytecode": "0x6080604052691969368974c05b0000006002556910f0cf064dd59200000060035534801561002c57600080fd5b506000610037610086565b600080546001600160a01b0319166001600160a01b0383169081178255604051929350917f8be0079c531659141344cd1fd0a4f28419497f9722a3daafe3b4186f6b6457e0908290a35061008a565b3390565b610dc3806100996000396000f3fe608060405234801561001057600080fd5b50600436106100a95760003560e01c8063c5009ed711610071578063c5009ed71461033c578063ca13453114610344578063db2e21bc1461036a578063f261205714610372578063f2fde38b1461037a578063fc0c546a146103a0576100a9565b8063239ebd31146100ae57806367243482146101d3578063715018a6146102f6578063855e2168146102fe5780638da5cb5b14610318575b600080fd5b6101d1600480360360408110156100c457600080fd5b810190602081018135600160201b8111156100de57600080fd5b8201836020820111156100f057600080fd5b803590602001918460208302840111600160201b8311171561011157600080fd5b9190808060200260200160405190810160405280939291908181526020018383602002808284376000920191909152509295949360208101935035915050600160201b81111561016057600080fd5b82018360208201111561017257600080fd5b803590602001918460208302840111600160201b8311171561019357600080fd5b9190808060200260200160405190810160405280939291908181526020018383602002808284376000920191909152509295506103a8945050505050565b005b6101d1600480360360408110156101e957600080fd5b810190602081018135600160201b81111561020357600080fd5b82018360208201111561021557600080fd5b803590602001918460208302840111600160201b8311171561023657600080fd5b9190808060200260200160405190810160405280939291908181526020018383602002808284376000920191909152509295949360208101935035915050600160201b81111561028557600080fd5b82018360208201111561029757600080fd5b803590602001918460208302840111600160201b831117156102b857600080fd5b91908080602002602001604051908101604052809392919081815260200183836020028082843760009201919091525092955061049d945050505050565b6101d161054d565b6103066105f9565b60408051918252519081900360200190f35b610320610675565b604080516001600160a01b039092168252519081900360200190f35b610306610684565b6101d16004803603602081101561035a57600080fd5b50356001600160a01b031661068a565b6101d1610769565b61030661085d565b6101d16004803603602081101561039057600080fd5b50356001600160a01b0316610863565b610320610965565b6103b0610974565b6001600160a01b03166103c1610675565b6001600160a01b03161461040a576040805162461bcd60e51b81526020600482018190526024820152600080516020610d44833981519152604482015290519081900360640190fd5b805182511461041857600080fd5b60005b82518110156104985761046583828151811061043357fe5b602002602001015183838151811061044757fe5b60209081029190910101516001546001600160a01b03169190610978565b61048d82828151811061047457fe5b60200260200101516003546109ca90919063ffffffff16565b60035560010161041b565b505050565b6104a5610974565b6001600160a01b03166104b6610675565b6001600160a01b0316146104ff576040805162461bcd60e51b81526020600482018190526024820152600080516020610d44833981519152604482015290519081900360640190fd5b60005b82518110156104985761051a83828151811061043357fe5b61054282828151811061052957fe5b60200260200101516002546109ca90919063ffffffff16565b600255600101610502565b610555610974565b6001600160a01b0316610566610675565b6001600160a01b0316146105af576040805162461bcd60e51b81526020600482018190526024820152600080516020610d44833981519152604482015290519081900360640190fd5b600080546040516001600160a01b03909116907f8be0079c531659141344cd1fd0a4f28419497f9722a3daafe3b4186f6b6457e0908390a3600080546001600160a01b0319169055565b600154604080516370a0823160e01b815230600482015290516000926001600160a01b0316916370a08231916024808301926020929190829003018186803b15801561064457600080fd5b505afa158015610658573d6000803e3d6000fd5b505050506040513d602081101561066e57600080fd5b5051905090565b6000546001600160a01b031690565b60025481565b610692610974565b6001600160a01b03166106a3610675565b6001600160a01b0316146106ec576040805162461bcd60e51b81526020600482018190526024820152600080516020610d44833981519152604482015290519081900360640190fd5b6001600160a01b038116610747576040805162461bcd60e51b815260206004820152601b60248201527f4e696e6a6120546f6b656e206164647265737320696e76616c69640000000000604482015290519081900360640190fd5b600180546001600160a01b0319166001600160a01b0392909216919091179055565b610771610974565b6001600160a01b0316610782610675565b6001600160a01b0316146107cb576040805162461bcd60e51b81526020600482018190526024820152600080516020610d44833981519152604482015290519081900360640190fd5b600154604080516370a0823160e01b8152306004820152905161085b9233926001600160a01b03909116916370a0823191602480820192602092909190829003018186803b15801561081c57600080fd5b505afa158015610830573d6000803e3d6000fd5b505050506040513d602081101561084657600080fd5b50516001546001600160a01b03169190610978565b565b60035481565b61086b610974565b6001600160a01b031661087c610675565b6001600160a01b0316146108c5576040805162461bcd60e51b81526020600482018190526024820152600080516020610d44833981519152604482015290519081900360640190fd5b6001600160a01b03811661090a5760405162461bcd60e51b8152600401808060200182810382526026815260200180610cf86026913960400191505060405180910390fd5b600080546040516001600160a01b03808516939216917f8be0079c531659141344cd1fd0a4f28419497f9722a3daafe3b4186f6b6457e091a3600080546001600160a01b0319166001600160a01b0392909216919091179055565b6001546001600160a01b031681565b3390565b604080516001600160a01b038416602482015260448082018490528251808303909101815260649091019091526020810180516001600160e01b031663a9059cbb60e01b179052610498908490610a27565b600082821115610a21576040805162461bcd60e51b815260206004820152601e60248201527f536166654d6174683a207375627472616374696f6e206f766572666c6f770000604482015290519081900360640190fd5b50900390565b6060610a7c826040518060400160405280602081526020017f5361666545524332303a206c6f772d6c6576656c2063616c6c206661696c6564815250856001600160a01b0316610ad89092919063ffffffff16565b80519091501561049857808060200190516020811015610a9b57600080fd5b50516104985760405162461bcd60e51b815260040180806020018281038252602a815260200180610d64602a913960400191505060405180910390fd5b6060610ae78484600085610af1565b90505b9392505050565b606082471015610b325760405162461bcd60e51b8152600401808060200182810382526026815260200180610d1e6026913960400191505060405180910390fd5b610b3b85610c4d565b610b8c576040805162461bcd60e51b815260206004820152601d60248201527f416464726573733a2063616c6c20746f206e6f6e2d636f6e7472616374000000604482015290519081900360640190fd5b60006060866001600160a01b031685876040518082805190602001908083835b60208310610bcb5780518252601f199092019160209182019101610bac565b6001836020036101000a03801982511681845116808217855250505050505090500191505060006040518083038185875af1925050503d8060008114610c2d576040519150601f19603f3d011682016040523d82523d6000602084013e610c32565b606091505b5091509150610c42828286610c53565b979650505050505050565b3b151590565b60608315610c62575081610aea565b825115610c725782518084602001fd5b8160405162461bcd60e51b81526004018080602001828103825283818151815260200191508051906020019080838360005b83811015610cbc578181015183820152602001610ca4565b50505050905090810190601f168015610ce95780820380516001836020036101000a031916815260200191505b509250505060405180910390fdfe4f776e61626c653a206e6577206f776e657220697320746865207a65726f2061646472657373416464726573733a20696e73756666696369656e742062616c616e636520666f722063616c6c4f776e61626c653a2063616c6c6572206973206e6f7420746865206f776e65725361666545524332303a204552433230206f7065726174696f6e20646964206e6f742073756363656564a26469706673582212204987d4bf6145a1b36fa9e77c6136c5e945ae7b332f84d00f06db2ce8599daa5d64736f6c634300060c0033",
  "immutableReferences": {},
  "source": "// SPDX-License-Identifier: MIT\n\npragma solidity ^0.6.0;\n\nimport \"@openzeppelin/contracts/token/ERC20/IERC20.sol\";\nimport \"@openzeppelin/contracts/token/ERC20/SafeERC20.sol\";\nimport \"@openzeppelin/contracts/access/Ownable.sol\";\nimport \"@openzeppelin/contracts/math/SafeMath.sol\";\n\ncontract NinjaBounty is Ownable {\n    using SafeERC20 for IERC20;\n    using SafeMath for uint256;\n\n    IERC20 public token;\n    uint8 private constant decimals = 18;\n    uint256 private constant decimalFactor = 10**uint256(decimals);\n    uint256 public  AVAILABLE_NINJA_FOR_AIRDROP = 120000 * decimalFactor; // 120K AIRDROP\n    uint256 public  AVAILABLE_NINJA_FOR_BOUNTY = 80000 * decimalFactor; // 80K AIRDROP\n\n    function exchangeStake(address[] memory recipients, uint256[] memory values)\n        public\n        onlyOwner\n    {\n        require(recipients.length == values.length);\n\n        for (uint256 i = 0; i < recipients.length; i++) {\n            token.safeTransfer(recipients[i], values[i]);\n            AVAILABLE_NINJA_FOR_BOUNTY = AVAILABLE_NINJA_FOR_BOUNTY.sub(values[i]);\n        }\n    }\n\n    function airdrop(address[] memory recipients, uint256[] memory values)\n        public\n        onlyOwner\n    {\n        for (uint256 i = 0; i < recipients.length; i++) {\n            token.safeTransfer(recipients[i], values[i]);\n            AVAILABLE_NINJA_FOR_AIRDROP = AVAILABLE_NINJA_FOR_AIRDROP.sub(values[i]);\n        }\n    }\n\n    function emergencyWithdraw() public onlyOwner {\n        token.safeTransfer(msg.sender, token.balanceOf(address(this)));\n    }\n\n    function availableNinja() public view returns (uint256) {\n        return token.balanceOf(address(this));\n    }\n    function updateNinjaAdd(address newNinja) public onlyOwner {\n        // incase of change Ninja\n        require(newNinja != address(0), \"Ninja Token address invalid\");\n        token = IERC20(newNinja);\n    }\n}\n",
  "sourcePath": "/home/adeel/Desktop/ninjaswap-core/contracts/NinjaBounty.sol",
  "compiler": {
    "name": "solc",
    "version": "0.6.12+commit.27d51765.Emscripten.clang"
  },
  "schemaVersion": "3.3.4",
  "updatedAt": "2021-02-26T04:52:10.219Z",
  "devdoc": {
    "kind": "dev",
    "methods": {
      "owner()": {
        "details": "Returns the address of the current owner."
      },
      "renounceOwnership()": {
        "details": "Leaves the contract without owner. It will not be possible to call `onlyOwner` functions anymore. Can only be called by the current owner. NOTE: Renouncing ownership will leave the contract without an owner, thereby removing any functionality that is only available to the owner."
      },
      "transferOwnership(address)": {
        "details": "Transfers ownership of the contract to a new account (`newOwner`). Can only be called by the current owner."
      }
    },
    "version": 1
  },
  "userdoc": {
    "kind": "user",
    "methods": {},
    "version": 1
  }
}