{
  "contractName": "XNinjaSwap",
  "abi": [
    {
      "inputs": [],
      "stateMutability": "nonpayable",
      "type": "constructor"
    },
    {
      "anonymous": false,
      "inputs": [
        {
          "indexed": true,
          "internalType": "address",
          "name": "owner",
          "type": "address"
        },
        {
          "indexed": true,
          "internalType": "address",
          "name": "spender",
          "type": "address"
        },
        {
          "indexed": false,
          "internalType": "uint256",
          "name": "value",
          "type": "uint256"
        }
      ],
      "name": "Approval",
      "type": "event"
    },
    {
      "anonymous": false,
      "inputs": [
        {
          "indexed": true,
          "internalType": "address",
          "name": "previousOwner",
          "type": "address"
        },
        {
          "indexed": true,
          "internalType": "address",
          "name": "newOwner",
          "type": "address"
        }
      ],
      "name": "OwnershipTransferred",
      "type": "event"
    },
    {
      "anonymous": false,
      "inputs": [
        {
          "indexed": true,
          "internalType": "address",
          "name": "from",
          "type": "address"
        },
        {
          "indexed": true,
          "internalType": "address",
          "name": "to",
          "type": "address"
        },
        {
          "indexed": false,
          "internalType": "uint256",
          "name": "value",
          "type": "uint256"
        }
      ],
      "name": "Transfer",
      "type": "event"
    },
    {
      "inputs": [],
      "name": "MasterChef",
      "outputs": [
        {
          "internalType": "address",
          "name": "",
          "type": "address"
        }
      ],
      "stateMutability": "view",
      "type": "function"
    },
    {
      "inputs": [
        {
          "internalType": "address",
          "name": "owner",
          "type": "address"
        },
        {
          "internalType": "address",
          "name": "spender",
          "type": "address"
        }
      ],
      "name": "allowance",
      "outputs": [
        {
          "internalType": "uint256",
          "name": "",
          "type": "uint256"
        }
      ],
      "stateMutability": "view",
      "type": "function"
    },
    {
      "inputs": [],
      "name": "allowedMinting",
      "outputs": [
        {
          "internalType": "bool",
          "name": "",
          "type": "bool"
        }
      ],
      "stateMutability": "view",
      "type": "function"
    },
    {
      "inputs": [
        {
          "internalType": "address",
          "name": "spender",
          "type": "address"
        },
        {
          "internalType": "uint256",
          "name": "amount",
          "type": "uint256"
        }
      ],
      "name": "approve",
      "outputs": [
        {
          "internalType": "bool",
          "name": "",
          "type": "bool"
        }
      ],
      "stateMutability": "nonpayable",
      "type": "function"
    },
    {
      "inputs": [
        {
          "internalType": "address",
          "name": "account",
          "type": "address"
        }
      ],
      "name": "balanceOf",
      "outputs": [
        {
          "internalType": "uint256",
          "name": "",
          "type": "uint256"
        }
      ],
      "stateMutability": "view",
      "type": "function"
    },
    {
      "inputs": [],
      "name": "current_minter",
      "outputs": [
        {
          "internalType": "address",
          "name": "",
          "type": "address"
        }
      ],
      "stateMutability": "view",
      "type": "function"
    },
    {
      "inputs": [],
      "name": "decimals",
      "outputs": [
        {
          "internalType": "uint8",
          "name": "",
          "type": "uint8"
        }
      ],
      "stateMutability": "view",
      "type": "function"
    },
    {
      "inputs": [
        {
          "internalType": "address",
          "name": "spender",
          "type": "address"
        },
        {
          "internalType": "uint256",
          "name": "subtractedValue",
          "type": "uint256"
        }
      ],
      "name": "decreaseAllowance",
      "outputs": [
        {
          "internalType": "bool",
          "name": "",
          "type": "bool"
        }
      ],
      "stateMutability": "nonpayable",
      "type": "function"
    },
    {
      "inputs": [
        {
          "internalType": "address",
          "name": "spender",
          "type": "address"
        },
        {
          "internalType": "uint256",
          "name": "addedValue",
          "type": "uint256"
        }
      ],
      "name": "increaseAllowance",
      "outputs": [
        {
          "internalType": "bool",
          "name": "",
          "type": "bool"
        }
      ],
      "stateMutability": "nonpayable",
      "type": "function"
    },
    {
      "inputs": [],
      "name": "maxSupply",
      "outputs": [
        {
          "internalType": "uint256",
          "name": "",
          "type": "uint256"
        }
      ],
      "stateMutability": "view",
      "type": "function"
    },
    {
      "inputs": [],
      "name": "name",
      "outputs": [
        {
          "internalType": "string",
          "name": "",
          "type": "string"
        }
      ],
      "stateMutability": "view",
      "type": "function"
    },
    {
      "inputs": [],
      "name": "owner",
      "outputs": [
        {
          "internalType": "address",
          "name": "",
          "type": "address"
        }
      ],
      "stateMutability": "view",
      "type": "function"
    },
    {
      "inputs": [],
      "name": "renounceOwnership",
      "outputs": [],
      "stateMutability": "nonpayable",
      "type": "function"
    },
    {
      "inputs": [],
      "name": "symbol",
      "outputs": [
        {
          "internalType": "string",
          "name": "",
          "type": "string"
        }
      ],
      "stateMutability": "view",
      "type": "function"
    },
    {
      "inputs": [],
      "name": "totalMinted",
      "outputs": [
        {
          "internalType": "uint256",
          "name": "",
          "type": "uint256"
        }
      ],
      "stateMutability": "view",
      "type": "function"
    },
    {
      "inputs": [],
      "name": "totalSupply",
      "outputs": [
        {
          "internalType": "uint256",
          "name": "",
          "type": "uint256"
        }
      ],
      "stateMutability": "view",
      "type": "function"
    },
    {
      "inputs": [
        {
          "internalType": "address",
          "name": "recipient",
          "type": "address"
        },
        {
          "internalType": "uint256",
          "name": "amount",
          "type": "uint256"
        }
      ],
      "name": "transfer",
      "outputs": [
        {
          "internalType": "bool",
          "name": "",
          "type": "bool"
        }
      ],
      "stateMutability": "nonpayable",
      "type": "function"
    },
    {
      "inputs": [
        {
          "internalType": "address",
          "name": "sender",
          "type": "address"
        },
        {
          "internalType": "address",
          "name": "recipient",
          "type": "address"
        },
        {
          "internalType": "uint256",
          "name": "amount",
          "type": "uint256"
        }
      ],
      "name": "transferFrom",
      "outputs": [
        {
          "internalType": "bool",
          "name": "",
          "type": "bool"
        }
      ],
      "stateMutability": "nonpayable",
      "type": "function"
    },
    {
      "inputs": [
        {
          "internalType": "address",
          "name": "newOwner",
          "type": "address"
        }
      ],
      "name": "transferOwnership",
      "outputs": [],
      "stateMutability": "nonpayable",
      "type": "function"
    },
    {
      "inputs": [
        {
          "internalType": "address",
          "name": "_to",
          "type": "address"
        },
        {
          "internalType": "uint256",
          "name": "_amount",
          "type": "uint256"
        }
      ],
      "name": "mint",
      "outputs": [],
      "stateMutability": "nonpayable",
      "type": "function"
    },
    {
      "inputs": [
        {
          "internalType": "uint256",
          "name": "amount",
          "type": "uint256"
        }
      ],
      "name": "burn",
      "outputs": [],
      "stateMutability": "nonpayable",
      "type": "function"
    },
    {
      "inputs": [
        {
          "internalType": "address",
          "name": "newMinter",
          "type": "address"
        }
      ],
      "name": "replaceMinter",
      "outputs": [],
      "stateMutability": "nonpayable",
      "type": "function"
    },
    {
      "inputs": [
        {
          "internalType": "bool",
          "name": "_status",
          "type": "bool"
        }
      ],
      "name": "updateMinting",
      "outputs": [],
      "stateMutability": "nonpayable",
      "type": "function"
    },
    {
      "inputs": [
        {
          "internalType": "address",
          "name": "newMasterChef",
          "type": "address"
        }
      ],
      "name": "replaceMasterChef",
      "outputs": [],
      "stateMutability": "nonpayable",
      "type": "function"
    }
  ],
  "bytecode": "0x60806040526a06495cd356e2412e000000600655600880546001600160a01b0319169055600980546001600160a81b031916600160a01b1790553480156200004657600080fd5b50604080518082018252600a8152690584e696e6a61537761760b41b602080830191825283518085019094526006845265584e494e4a4160d01b908401528151919291620000979160039162000153565b508051620000ad90600490602084019062000153565b50506005805460ff19166012179055506000620000c96200014f565b60058054610100600160a81b0319166101006001600160a01b03841690810291909117909155604051919250906000907f8be0079c531659141344cd1fd0a4f28419497f9722a3daafe3b4186f6b6457e0908290a350620001296200014f565b600880546001600160a01b0319166001600160a01b0392909216919091179055620001ef565b3390565b828054600181600116156101000203166002900490600052602060002090601f016020900481019282601f106200019657805160ff1916838001178555620001c6565b82800160010185558215620001c6579182015b82811115620001c6578251825591602001919060010190620001a9565b50620001d4929150620001d8565b5090565b5b80821115620001d45760008155600101620001d9565b6113b480620001ff6000396000f3fe608060405234801561001057600080fd5b50600436106101585760003560e01c8063715018a6116100c3578063a9059cbb1161007c578063a9059cbb146103e9578063b22b784014610415578063d5abeb0114610434578063dd62ed3e1461043c578063e9ea46c71461046a578063f2fde38b1461047257610158565b8063715018a6146103775780638da5cb5b1461037f57806395d89b41146103875780639a9d43c61461038f578063a2309ff8146103b5578063a457c2d7146103bd57610158565b8063313ce56711610115578063313ce567146102b657806335b7588f146102d457806339509351146102dc57806340c10f191461030857806342966c681461033457806370a082311461035157610158565b806306fdde031461015d57806307f1af44146101da578063095ea7b31461020257806318160ddd1461024257806323b872dd1461025c5780632e5ed95514610292575b600080fd5b610165610498565b6040805160208082528351818301528351919283929083019185019080838360005b8381101561019f578181015183820152602001610187565b50505050905090810190601f1680156101cc5780820380516001836020036101000a031916815260200191505b509250505060405180910390f35b610200600480360360208110156101f057600080fd5b50356001600160a01b031661052e565b005b61022e6004803603604081101561021857600080fd5b506001600160a01b0381351690602001356105b2565b604080519115158252519081900360200190f35b61024a6105cf565b60408051918252519081900360200190f35b61022e6004803603606081101561027257600080fd5b506001600160a01b038135811691602081013590911690604001356105d5565b61029a61065c565b604080516001600160a01b039092168252519081900360200190f35b6102be61066b565b6040805160ff9092168252519081900360200190f35b61022e610674565b61022e600480360360408110156102f257600080fd5b506001600160a01b038135169060200135610684565b6102006004803603604081101561031e57600080fd5b506001600160a01b0381351690602001356106d2565b6102006004803603602081101561034a57600080fd5b50356107b3565b61024a6004803603602081101561036757600080fd5b50356001600160a01b0316610829565b610200610844565b61029a6108f6565b61016561090a565b610200600480360360208110156103a557600080fd5b50356001600160a01b031661096b565b61024a6109ef565b61022e600480360360408110156103d357600080fd5b506001600160a01b0381351690602001356109f5565b61022e600480360360408110156103ff57600080fd5b506001600160a01b038135169060200135610a5d565b6102006004803603602081101561042b57600080fd5b50351515610a71565b61024a610af1565b61024a6004803603604081101561045257600080fd5b506001600160a01b0381358116916020013516610af7565b61029a610b22565b6102006004803603602081101561048857600080fd5b50356001600160a01b0316610b31565b60038054604080516020601f60026000196101006001881615020190951694909404938401819004810282018101909252828152606093909290918301828280156105245780601f106104f957610100808354040283529160200191610524565b820191906000526020600020905b81548152906001019060200180831161050757829003601f168201915b5050505050905090565b610536610c3f565b6001600160a01b03166105476108f6565b6001600160a01b031614610590576040805162461bcd60e51b815260206004820181905260248201526000805160206112d0833981519152604482015290519081900360640190fd5b600880546001600160a01b0319166001600160a01b0392909216919091179055565b60006105c66105bf610c3f565b8484610c43565b50600192915050565b60025490565b60006105e2848484610d2f565b610652846105ee610c3f565b61064d85604051806060016040528060288152602001611284602891396001600160a01b038a1660009081526001602052604081209061062c610c3f565b6001600160a01b031681526020810191909152604001600020549190610e8a565b610c43565b5060019392505050565b6008546001600160a01b031681565b60055460ff1690565b600954600160a01b900460ff1681565b60006105c6610691610c3f565b8461064d85600160006106a2610c3f565b6001600160a01b03908116825260208083019390935260409182016000908120918c168152925290205490610f21565b6106da610c3f565b6009546001600160a01b039081169116148061070b57506106f9610c3f565b6008546001600160a01b039081169116145b6107465760405162461bcd60e51b81526004018080602001828103825260248152602001806112ac6024913960400191505060405180910390fd5b600954600160a01b900460ff1615156001148015610772575060065460075461076f9083610f21565b11155b61077b57600080fd5b6007546107889082610f21565b6007556107958282610f82565b60065460075414156107af576009805460ff60a01b191690555b5050565b6107bb610c3f565b6001600160a01b03166107cc6108f6565b6001600160a01b031614610815576040805162461bcd60e51b815260206004820181905260248201526000805160206112d0833981519152604482015290519081900360640190fd5b610826610820610c3f565b82611072565b50565b6001600160a01b031660009081526020819052604090205490565b61084c610c3f565b6001600160a01b031661085d6108f6565b6001600160a01b0316146108a6576040805162461bcd60e51b815260206004820181905260248201526000805160206112d0833981519152604482015290519081900360640190fd5b60055460405160009161010090046001600160a01b0316907f8be0079c531659141344cd1fd0a4f28419497f9722a3daafe3b4186f6b6457e0908390a360058054610100600160a81b0319169055565b60055461010090046001600160a01b031690565b60048054604080516020601f60026000196101006001881615020190951694909404938401819004810282018101909252828152606093909290918301828280156105245780601f106104f957610100808354040283529160200191610524565b610973610c3f565b6001600160a01b03166109846108f6565b6001600160a01b0316146109cd576040805162461bcd60e51b815260206004820181905260248201526000805160206112d0833981519152604482015290519081900360640190fd5b600980546001600160a01b0319166001600160a01b0392909216919091179055565b60075481565b60006105c6610a02610c3f565b8461064d8560405180606001604052806025815260200161135a6025913960016000610a2c610c3f565b6001600160a01b03908116825260208083019390935260409182016000908120918d16815292529020549190610e8a565b60006105c6610a6a610c3f565b8484610d2f565b610a79610c3f565b6001600160a01b0316610a8a6108f6565b6001600160a01b031614610ad3576040805162461bcd60e51b815260206004820181905260248201526000805160206112d0833981519152604482015290519081900360640190fd5b60098054911515600160a01b0260ff60a01b19909216919091179055565b60065481565b6001600160a01b03918216600090815260016020908152604080832093909416825291909152205490565b6009546001600160a01b031681565b610b39610c3f565b6001600160a01b0316610b4a6108f6565b6001600160a01b031614610b93576040805162461bcd60e51b815260206004820181905260248201526000805160206112d0833981519152604482015290519081900360640190fd5b6001600160a01b038116610bd85760405162461bcd60e51b81526004018080602001828103825260268152602001806112166026913960400191505060405180910390fd5b6005546040516001600160a01b0380841692610100900416907f8be0079c531659141344cd1fd0a4f28419497f9722a3daafe3b4186f6b6457e090600090a3600580546001600160a01b0390921661010002610100600160a81b0319909216919091179055565b3390565b6001600160a01b038316610c885760405162461bcd60e51b81526004018080602001828103825260248152602001806113366024913960400191505060405180910390fd5b6001600160a01b038216610ccd5760405162461bcd60e51b815260040180806020018281038252602281526020018061123c6022913960400191505060405180910390fd5b6001600160a01b03808416600081815260016020908152604080832094871680845294825291829020859055815185815291517f8c5be1e5ebec7d5bd14f71427d1e84f3dd0314c0f7b2291e5b200ac8c7c3b9259281900390910190a3505050565b6001600160a01b038316610d745760405162461bcd60e51b81526004018080602001828103825260258152602001806113116025913960400191505060405180910390fd5b6001600160a01b038216610db95760405162461bcd60e51b81526004018080602001828103825260238152602001806111d16023913960400191505060405180910390fd5b610dc483838361116e565b610e018160405180606001604052806026815260200161125e602691396001600160a01b0386166000908152602081905260409020549190610e8a565b6001600160a01b038085166000908152602081905260408082209390935590841681522054610e309082610f21565b6001600160a01b038084166000818152602081815260409182902094909455805185815290519193928716927fddf252ad1be2c89b69c2b068fc378daa952ba7f163c4a11628f55a4df523b3ef92918290030190a3505050565b60008184841115610f195760405162461bcd60e51b81526004018080602001828103825283818151815260200191508051906020019080838360005b83811015610ede578181015183820152602001610ec6565b50505050905090810190601f168015610f0b5780820380516001836020036101000a031916815260200191505b509250505060405180910390fd5b505050900390565b600082820183811015610f7b576040805162461bcd60e51b815260206004820152601b60248201527f536166654d6174683a206164646974696f6e206f766572666c6f770000000000604482015290519081900360640190fd5b9392505050565b6001600160a01b038216610fdd576040805162461bcd60e51b815260206004820152601f60248201527f45524332303a206d696e7420746f20746865207a65726f206164647265737300604482015290519081900360640190fd5b610fe96000838361116e565b600254610ff69082610f21565b6002556001600160a01b03821660009081526020819052604090205461101c9082610f21565b6001600160a01b0383166000818152602081815260408083209490945583518581529351929391927fddf252ad1be2c89b69c2b068fc378daa952ba7f163c4a11628f55a4df523b3ef9281900390910190a35050565b6001600160a01b0382166110b75760405162461bcd60e51b81526004018080602001828103825260218152602001806112f06021913960400191505060405180910390fd5b6110c38260008361116e565b611100816040518060600160405280602281526020016111f4602291396001600160a01b0385166000908152602081905260409020549190610e8a565b6001600160a01b0383166000908152602081905260409020556002546111269082611173565b6002556040805182815290516000916001600160a01b038516917fddf252ad1be2c89b69c2b068fc378daa952ba7f163c4a11628f55a4df523b3ef9181900360200190a35050565b505050565b6000828211156111ca576040805162461bcd60e51b815260206004820152601e60248201527f536166654d6174683a207375627472616374696f6e206f766572666c6f770000604482015290519081900360640190fd5b5090039056fe45524332303a207472616e7366657220746f20746865207a65726f206164647265737345524332303a206275726e20616d6f756e7420657863656564732062616c616e63654f776e61626c653a206e6577206f776e657220697320746865207a65726f206164647265737345524332303a20617070726f766520746f20746865207a65726f206164647265737345524332303a207472616e7366657220616d6f756e7420657863656564732062616c616e636545524332303a207472616e7366657220616d6f756e74206578636565647320616c6c6f77616e63656f6e6c794d696e7465723a2063616c6c6572206973206e6f7420746865206d696e7465724f776e61626c653a2063616c6c6572206973206e6f7420746865206f776e657245524332303a206275726e2066726f6d20746865207a65726f206164647265737345524332303a207472616e736665722066726f6d20746865207a65726f206164647265737345524332303a20617070726f76652066726f6d20746865207a65726f206164647265737345524332303a2064656372656173656420616c6c6f77616e63652062656c6f77207a65726fa2646970667358221220873b33c9466e7369d512126c431a14129b573d4228fccbaad3e462c6ed29b2b764736f6c634300060c0033",
  "immutableReferences": {},
  "source": "// SPDX-License-Identifier: MIT\npragma solidity 0.6.12;\nimport \"@openzeppelin/contracts/GSN/Context.sol\";\nimport \"@openzeppelin/contracts/token/ERC20/IERC20.sol\";\nimport \"@openzeppelin/contracts/math/SafeMath.sol\";\nimport \"@openzeppelin/contracts/utils/Address.sol\";\nimport \"@openzeppelin/contracts/token/ERC20/ERC20.sol\";\nimport \"@openzeppelin/contracts/access/Ownable.sol\";\n\ncontract XNinjaSwap is ERC20(\"XNinjaSwap\", \"XNINJA\"), Ownable {\n    using SafeMath for uint256;\n    uint256 public maxSupply = 7600000000000000000000000; // 7.6 Million\n    uint256 public totalMinted;\n    address public current_minter = address(0);\n    address public MasterChef = address(0);\n    bool public allowedMinting = true;\n\n    constructor() public {\n        current_minter = _msgSender();\n    }\n\n    function mint(address _to, uint256 _amount) public onlyMinter {\n        require(allowedMinting == true && totalMinted.add(_amount) <= maxSupply);\n        totalMinted = totalMinted.add(_amount);\n        _mint(_to, _amount);\n        if (totalMinted == maxSupply) {\n            allowedMinting = false;\n        }\n    }\n\n    function burn(uint256 amount) external onlyOwner {\n        _burn(_msgSender(), amount);\n    }\n\n    function replaceMinter(address newMinter) external onlyOwner {\n        current_minter = newMinter;\n    }\n    \n    function updateMinting(bool _status) external onlyOwner {\n        allowedMinting = _status;\n    }\n\n    function replaceMasterChef(address newMasterChef) external onlyOwner {\n        MasterChef = newMasterChef;\n    }\n\n    modifier onlyMinter() {\n        require(\n            MasterChef == _msgSender() || current_minter == _msgSender(),\n            \"onlyMinter: caller is not the minter\"\n        );\n        _;\n    }\n}",
  "sourcePath": "/home/zawaz/Desktop/ninjaswap-core/contracts/XNinjaSwap.sol",
  "compiler": {
    "name": "solc",
    "version": "0.6.12+commit.27d51765.Emscripten.clang"
  },
  "schemaVersion": "3.3.4",
  "updatedAt": "2021-08-12T07:34:17.635Z",
  "devdoc": {
    "kind": "dev",
    "methods": {
      "allowance(address,address)": {
        "details": "See {IERC20-allowance}."
      },
      "approve(address,uint256)": {
        "details": "See {IERC20-approve}. Requirements: - `spender` cannot be the zero address."
      },
      "balanceOf(address)": {
        "details": "See {IERC20-balanceOf}."
      },
      "decimals()": {
        "details": "Returns the number of decimals used to get its user representation. For example, if `decimals` equals `2`, a balance of `505` tokens should be displayed to a user as `5,05` (`505 / 10 ** 2`). Tokens usually opt for a value of 18, imitating the relationship between Ether and Wei. This is the value {ERC20} uses, unless {_setupDecimals} is called. NOTE: This information is only used for _display_ purposes: it in no way affects any of the arithmetic of the contract, including {IERC20-balanceOf} and {IERC20-transfer}."
      },
      "decreaseAllowance(address,uint256)": {
        "details": "Atomically decreases the allowance granted to `spender` by the caller. This is an alternative to {approve} that can be used as a mitigation for problems described in {IERC20-approve}. Emits an {Approval} event indicating the updated allowance. Requirements: - `spender` cannot be the zero address. - `spender` must have allowance for the caller of at least `subtractedValue`."
      },
      "increaseAllowance(address,uint256)": {
        "details": "Atomically increases the allowance granted to `spender` by the caller. This is an alternative to {approve} that can be used as a mitigation for problems described in {IERC20-approve}. Emits an {Approval} event indicating the updated allowance. Requirements: - `spender` cannot be the zero address."
      },
      "name()": {
        "details": "Returns the name of the token."
      },
      "owner()": {
        "details": "Returns the address of the current owner."
      },
      "renounceOwnership()": {
        "details": "Leaves the contract without owner. It will not be possible to call `onlyOwner` functions anymore. Can only be called by the current owner. NOTE: Renouncing ownership will leave the contract without an owner, thereby removing any functionality that is only available to the owner."
      },
      "symbol()": {
        "details": "Returns the symbol of the token, usually a shorter version of the name."
      },
      "totalSupply()": {
        "details": "See {IERC20-totalSupply}."
      },
      "transfer(address,uint256)": {
        "details": "See {IERC20-transfer}. Requirements: - `recipient` cannot be the zero address. - the caller must have a balance of at least `amount`."
      },
      "transferFrom(address,address,uint256)": {
        "details": "See {IERC20-transferFrom}. Emits an {Approval} event indicating the updated allowance. This is not required by the EIP. See the note at the beginning of {ERC20}. Requirements: - `sender` and `recipient` cannot be the zero address. - `sender` must have a balance of at least `amount`. - the caller must have allowance for ``sender``'s tokens of at least `amount`."
      },
      "transferOwnership(address)": {
        "details": "Transfers ownership of the contract to a new account (`newOwner`). Can only be called by the current owner."
      }
    },
    "version": 1
  },
  "userdoc": {
    "kind": "user",
    "methods": {},
    "version": 1
  }
}